:0400000032EF00F0EB
:06000800728254EF0DF0BE
:100018007280D8CF3BF0E8CF3CF0E0CF3DF0F2A4BF
:1000280015D0F294B10ED76EE00ED66E71862E50B2
:100038000CE0262A290E266002D08B8801D08B98E6
:10004800500E266403D0266A01D08B983DC0E0FF8D
:100058003CC0E8FF3BC0D8FF7290100044EF0CF0A2
:1000680067EC09F0010E426E74EC0DF02F0E456E30
:100078001F0E466E13EC09F067EC07F074EC0DF0F8
:100088005F0E456E1F0E466E13EC09F0070E3F6EAD
:10009800D00E3E6E30EC0DF08FEC0DF081B217D023
:1000A8008FEC0DF0020E83EC07F074EC0DF03F0EB0
:1000B800456E1F0E466E13EC09F067EC07F074EC02
:1000C8000DF0C50E456E1F0E466E13EC09F0100EAE
:1000D800E3EC0CF040C021F041C022F0120EE3EC3A
:1000E8000CF040C01FF041C020F06AEC07F07FEC34
:1000F80007F000EC0CF03E502A6E6FEC07F07FEC36
:1001080007F000EC0CF03E50296E170EE3EC0CF0F3
:1001180014EC08F0B5EC0BF006EC08F07BEC0AF0F8
:1001280051C01DF052C01EF0140EE3EC0CF040C09C
:100138001BF041C01CF03F6A350E3E6EB2EC0DF06C
:10014800676E673002E3718201D071923F6A360EA2
:100158003E6EB2EC0DF0676E673002E3718001D03D
:10016800719071A271B002D0719401D0718471A69E
:1001780003D088EC0BF07196C1EC0DF02D6EE7EF13
:1001880006F0390E456E3A0E466EA5EC08F00009E9
:1001980012E0700E5E6E010EB8EC09F05EC06BF0F6
:1001A8005FC06CF06F0E5E6E020EB8EC09F05EC0B8
:1001B80069F05FC06AF0010E426E74EC0DF0040E37
:1001C800BBEC0DF03A0EBBEC0DF06B2804E17F0E92
:1001D8006C1801E1D4D058EC07F013EC07F000ECF0
:1001E8000CF004EC07F025EC0CF0455046107EE1CD
:1001F80043EC07F013EC07F000EC0CF004EC07F00C
:1002080025EC0CF04550461033E1416A640E13ECBE
:1002180007F000EC0CF004EC07F025EC0CF045506E
:10022800300FBBEC0DF02E0EBBEC0DF0416A0A0E40
:1002380013EC07F000EC0CF004EC07F025EC0CF0E4
:100248004550300FBBEC0DF046EC07F03AEC07F0E8
:1002580025EC0CF04550300FBBEC0DF0010EBBEC5B
:100268000DF0200EBBEC0DF0200EBBEC0DF09CD079
:1002780043EC07F013EC07F000EC0CF004EC07F08B
:1002880025EC0CF04550300FBBEC0DF0416A640EC4
:1002980013EC07F000EC0CF004EC07F025EC0CF084
:1002A8004550300FBBEC0DF02E0EBBEC0DF0416A43
:1002B8000A0E13EC07F000EC0CF004EC07F025EC48
:1002C8000CF04550300FBBEC0DF046EC07F03AEC63
:1002D80007F025EC0CF04550300FBBEC0DF0010E8B
:1002E800BBEC0DF0200EBBEC0DF05ED058EC07F027
:1002F80013EC07F000EC0CF004EC07F025EC0CF024
:100308004550300FBBEC0DF043EC07F013EC07F051
:1003180000EC0CF004EC07F025EC0CF04550300F25
:10032800BBEC0DF0416A640E13EC07F000EC0CF026
:1003380004EC07F025EC0CF04550300FBBEC0DF049
:100348002E0EBBEC0DF0416A0A0E13EC07F000EC20
:100358000CF004EC07F025EC0CF04550300FBBEC2A
:100368000DF046EC07F03AEC07F025EC0CF04550A0
:10037800300FBBEC0DF0010EBBEC0DF015D02D0EBF
:10038800BBEC0DF02D0EBBEC0DF02D0EBBEC0DF003
:10039800200EBBEC0DF0200EBBEC0DF0200EBBECDC
:1003A8000DF0200EBBEC0DF0010E426E0B0E74EC3E
:1003B8000DF043EC07F061EC07F000EC0CF004ECF6
:1003C80007F025EC0CF04550300FBBEC0DF0416AFE
:1003D800640E61EC07F000EC0CF004EC07F025EC7F
:1003E8000CF04550300FBBEC0DF02E0EBBEC0DF0B1
:1003F800416A0A0E61EC07F000EC0CF004EC07F01F
:1004080025EC0CF04550300FBBEC0DF01BC045F04F
:100418001CC046F03AEC07F025EC0CF04550300FC4
:10042800BBEC0DF071A204D0020EBBEC0DF003D0B2
:10043800010EBBEC0DF067EC07F074EC0DF0030E49
:10044800BBEC0DF03A0EBBEC0DF0692804E17F0E11
:100458006A1801E1D4D058EC07F019EC07F000EC69
:100468000CF004EC07F025EC0CF0455046107EE14A
:1004780043EC07F019EC07F000EC0CF004EC07F083
:1004880025EC0CF04550461033E1416A640E19EC36
:1004980007F000EC0CF004EC07F025EC0CF04550EC
:1004A800300FBBEC0DF02E0EBBEC0DF0416A0A0EBE
:1004B80019EC07F000EC0CF004EC07F025EC0CF05C
:1004C8004550300FBBEC0DF04BEC07F03AEC07F061
:1004D80025EC0CF04550300FBBEC0DF0010EBBECD9
:1004E8000DF0200EBBEC0DF0200EBBEC0DF09CD0F7
:1004F80043EC07F019EC07F000EC0CF004EC07F003
:1005080025EC0CF04550300FBBEC0DF0416A640E41
:1005180019EC07F000EC0CF004EC07F025EC0CF0FB
:100528004550300FBBEC0DF02E0EBBEC0DF0416AC0
:100538000A0E19EC07F000EC0CF004EC07F025ECBF
:100548000CF04550300FBBEC0DF04BEC07F03AECDB
:1005580007F025EC0CF04550300FBBEC0DF0010E08
:10056800BBEC0DF0200EBBEC0DF05ED058EC07F0A4
:1005780019EC07F000EC0CF004EC07F025EC0CF09B
:100588004550300FBBEC0DF043EC07F019EC07F0C9
:1005980000EC0CF004EC07F025EC0CF04550300FA3
:1005A800BBEC0DF0416A640E19EC07F000EC0CF09E
:1005B80004EC07F025EC0CF04550300FBBEC0DF0C7
:1005C8002E0EBBEC0DF0416A0A0E19EC07F000EC98
:1005D8000CF004EC07F025EC0CF04550300FBBECA8
:1005E8000DF04BEC07F03AEC07F025EC0CF0455019
:1005F800300FBBEC0DF0010EBBEC0DF015D02D0E3D
:10060800BBEC0DF02D0EBBEC0DF02D0EBBEC0DF080
:10061800200EBBEC0DF0200EBBEC0DF0200EBBEC59
:100628000DF0200EBBEC0DF08CEC07F074EC0DF027
:10063800030E416EE80E5BEC07F03FEC0AF050EC5D
:1006480007F0F0EC0AF04650300FBBEC0DF0416AB1
:10065800640E5BEC07F03FEC0AF050EC07F0F0ECAE
:100668000AF04650300FBBEC0DF02E0EBBEC0DF02F
:10067800416A0A0E5BEC07F03FEC0AF050EC07F019
:10068800F0EC0AF04650300FBBEC0DF01DC046F000
:100698001EC047F0496A0A0E486EF0EC0AF0465050
:1006A800300FBBEC0DF071A004D0020EBBEC0DF0C6
:1006B80003D0010EBBEC0DF071A430D071A21FD095
:1006C8002A501B24676E000E1C20686E67506B5CF6
:1006D80068506C580BE229501B5C676E000E1C5862
:1006E800686E6B50675C6C50685808E36B2803E1D0
:1006F8007F0E6C1803E0010E2E6E01D02E6A71A0D9
:100708000FD01D50695C1E506A5809E3692803E13F
:100718007F0E6A1804E0010E2E6E02D08B982E6AA6
:100728002D0407E12C062C2802E1080E2C6E93EC10
:1007380007F0020E2D1807E12C2A080E2C6401D0B0
:100748002C6A93EC07F0030E2D1801E010D58FECFE
:100758000DF0070ED4DB74EC0DF06F0E456E1F0E16
:10076800466E13EC09F0AFDB74EC0DF04F0E456EDE
:100778001F0E466E13EC09F0FAD4020E426E0E0EEE
:1007880074EC0DF06D50300FBBEC0DF02D0406E14C
:100798006D2A030E6D1802E1010E6D6E020E2D1802
:1007A80005E16D066D5002E1020E6D6E030E2D1807
:1007B80001E0DDD46D5024EC0BF0000909E083DB87
:1007C80074EC0DF00F0E456E1F0E466E13EC09F01B
:1007D800030E6E6ECCD42D0415E18FEC0DF0040ED3
:1007E8008EDB74EC0DF09D0E456E1F0E466E13ECFD
:1007F80009F069DB74EC0DF01F0E456E1F0E466E96
:1008080013EC09F0020E2D180CE18FEC0DF0080E18
:1008180076DB74EC0DF07F0E456E1F0E466E13EC02
:1008280009F0030E2D1801E0A2D48BBA03D0676A31
:10083800672A01D0676A673A67468B506718DF0BEB
:1008480067188B6E010E6E6E93EC07F090D4020E53
:10085800426E040E74EC0DF071A204D0ED0EBBECE8
:100868000DF003D0D50EBBEC0DF0020E426E0D0E4E
:1008780074EC0DF071A004D0ED0EBBEC0DF003D0BC
:10088800D50EBBEC0DF02D0405E171B202D07182DA
:1008980001D07192020E2D1805E171B002D071805D
:1008A80001D07190030E2D1801E061D471A271B0CE
:1008B80002D0719401D07184000E71B2010E3E6EA7
:1008C800350E1EEC0DF0000E71B0010E3E6E360EA8
:1008D8001EEC0DF0B7D72D0425E1050E6E6E010E46
:1008E8002B6EF4DA10DB00EC0CF03E50286EF3DAD5
:1008F8000ADB00EC0CF03E50276E8FEC0DF0010E79
:10090800426E74EC0DF0B80E456E1F0E466E13EC79
:1009180009F0D9DA74EC0DF0D20E456E1F0E466E52
:1009280013EC09F0020E2D1801E021D4060E6E6EAC
:100938008FEC0DF0010E426E74EC0DF0AB0E456EAF
:100948001F0E466E13EC09F0BEDA74EC0DF0DD0EE6
:10095800456E1F0E466E13EC09F0170EE3EC0CF013
:10096800C5DA2C6A04D428C03EF0BADAF8EC0CF0E8
:100978003EC021F03FC022F0A9DABDDA00EC0CF04D
:100988003E502A6EC5DA74EC0DF02B0EBBEC0DF060
:10099800300EBBEC0DF02E0EBBEC0DF00A0E426EC5
:1009A8003E6E2A5098EC0CF00BEC0DF0300FBBECBF
:1009B8000DF00A0E426E2A500BEC0DF0300FBBEC16
:1009C8000DF02D0405E1282A0F0E286401D0286AAD
:1009D800020E2D1805E12806282802E10F0E286EC0
:1009E800030E2D1802E0BBEF00F0020E2B6E426ED4
:1009F800010E74EC0DF08E0E456E1F0E466E13EC54
:100A080009F0BBEF00F027C03EF06ADAF8EC0CF012
:100A18003EC01FF03FC020F05EDA6DDA00EC0CF04B
:100A28003E50296E26EC08F074EC0DF02D0EBBEC50
:100A38000DF0300EBBEC0DF02E0EBBEC0DF00A0ED7
:100A4800426E3E6E295098EC0CF00BEC0DF0300F16
:100A5800BBEC0DF00A0E426E29500BEC0DF0300F76
:100A6800BBEC0DF0200EBBEC0DF0200EBBEC0DF036
:100A78002D0405E1272A0F0E276401D0276A020EEC
:100A88002D1805E12706272802E10F0E276E030E11
:100A98002D1802E0BBEF00F0030E2B6E21C040F0D2
:100AA80022C041F0100E9CEC0DF01FC040F020C099
:100AB80041F0120E9CEC0DF0010E426E74EC0DF03C
:100AC800FE0E456E1E0E466E13EC09F0FCD974EC52
:100AD8000DF0ED0E456E1E0E466E13EC09F0BBEFE1
:100AE80000F02D040FE1010E6E6E6BC01BF06CC0A0
:100AF8001CF01BC040F01CC041F0140E9CEC0DF023
:100B080093EC07F0020E2D1801E19CD6BBEF00F024
:100B18002B50010A01E127D7030A01E174D7010A22
:100B2800E0E0BBEF00F01DC045F01EC046F0000E2F
:100B380046BEFF0E476E486E6BD9B5EC0BF006EC5F
:100B480008F07BEC0AF051C015F052C016F053C003
:100B580017F054C018F0020E426E070E74EC0DF038
:100B68003FD0E30E456E1F0E466E13EC09F04AD0D7
:100B7800E60E456E1F0E466E13EC09F043D0E90EE3
:100B8800456E1F0E466E13EC09F03CD0EC0E456E18
:100B98001F0E466E13EC09F035D0EF0E456E1F0E92
:100BA800466E13EC09F02ED0F20E456E1F0E466EFF
:100BB80013EC09F027D0F50E456E1F0E466E13ECA8
:100BC80009F020D0F80E456E1F0E466E13EC09F0A2
:100BD80019D0FB0E456E1F0E466E13EC09F012D0AD
:100BE8002C50BFE0010AC4E0030AC9E0010ACEE0C4
:100BF800070AD3E0010AD8E0030ADDE0010AE2E0CF
:100C08000F0AE7E0E80E556E030E566E576A586AEB
:100C180015C051F016C052F017C053F018C054F068
:100C28007BEC0AF008D957EC0BF05E50300FBBECA8
:100C38000DF0640E0ED97BEC0AF0FDD857EC0BF0E2
:100C48005E50300FBBEC0DF02E0EBBEC0DF00A0E13
:100C580000D97BEC0AF0EFD857EC0BF05E50300F60
:100C6800BBEC0DF015C05EF016C05FF017C060F069
:100C780018C061F00A0E626E636A646A656A57ECAE
:100C88000BF05E50300FBBEC0DF0010EBBEC0DF01D
:100C98002D0414E12F5005E00A0E1D26000E1E2219
:100CA80002D01D4A1E2A1EBE09D0310E1D5C060E3A
:100CB8001E5804E3060E1E6E300E1D6E020E2D1811
:100CC80013E12F5005E0F60E1D26FF0E1E2203D05D
:100CD8001D06D8A01E061EBE04D01E5005E11D0428
:100CE80003E21E6A010E1D6E030E2D1802E0BBEF13
:100CF80000F02F5048E02C6AA5D5BCD8170E9CEC04
:100D08000DF0190EE3EC0CF037D0B4D8190E9CECAA
:100D18000DF01B0EE3EC0CF02FD0ACD81B0E9CECA6
:100D28000DF01D0EE3EC0CF027D0A4D81D0E9CECA2
:100D38000DF01F0EE3EC0CF01FD09CD81F0E9CEC9E
:100D48000DF0210EE3EC0CF017D094D8210E9CEC9A
:100D58000DF0230EE3EC0CF00FD08CD8230E9CEC96
:100D68000DF0250EE3EC0CF007D084D8250E9CEC92
:100D78000DF0270EE3EC0CF0B9D817D07BD8270E6E
:100D88009CEC0DF012D02C50B8E0010ABEE0030A2A
:100D9800C4E0010ACAE0070AD0E0010AD6E0030A63
:100DA800DCE0010AE2E00F0AE9E02C2A080E2C64D4
:100DB80005D02C6A010E6E6E93EC07F0ACD830ECBF
:100DC8000DF0BBEF00F06E50010A02E1C5EF00F034
:100DD800030A01E1D2D4010A02E1BBEF00F0070ADD
:100DE80001E179D5010A01E193D6030A01E19BD615
:100DF800010A01E1F0D40F0A01E129D5BBEF00F0A7
:100E08003EC045F03FC046F0486A0A0E476E0A0CDD
:100E1800710E496E020E4A6E4B6A4C6A020C406EA5
:100E28006BC03EF06CC03FF01200406E69C03EF0EF
:100E38006AC03FF0120051C05EF052C05FF053C06C
:100E480060F054C061F00A0E626E636A646A656A93
:100E58000A0C556E566A576A586A15C051F016C082
:100E680052F017C053F018C054F01200486A0A0E26
:100E7800476E0A0C1DC040F01EC041F01200030E60
:100E8800416EE80C6BC045F06CC046F0120069C0BA
:100E980045F06AC046F012003EC046F03FC047F039
:100EA800496A0A0E486E0A0C270E416E100C406EF5
:100EB8001DC03EF01EC03FF01200406E1BC03EF049
:100EC8001CC03FF01200020E426E010C21C03EF021
:100ED80022C03FF012001FC03EF020C03FF01200B9
:100EE8003F6A020E416E710E406E710C40C01DF0DB
:100EF80041C01EF01200416A640E406E640C6E6EB2
:100F0800010E426E010C020E416E710E406E710CA4
:100F1800020E426E0B0C3F6A0A0E3E6E0A0C8FECF4
:100F28000DF090D874EC0DF05AD0170EE3EC0CF0DD
:100F380077D8B5EC0BF066D87BEC0AF07ED0190EAA
:100F4800E3EC0CF06DD8B5EC0BF05CD87BEC0AF058
:100F580074D01B0EE3EC0CF063D8B5EC0BF052D850
:100F68007BEC0AF06AD01D0EE3EC0CF059D8B5EC16
:100F78000BF048D87BEC0AF060D01F0EE3EC0CF0C5
:100F88004FD8B5EC0BF03ED87BEC0AF056D0210ECA
:100F9800E3EC0CF045D8B5EC0BF034D87BEC0AF058
:100FA8004CD0230EE3EC0CF03BD8B5EC0BF02AD870
:100FB8007BEC0AF042D0250EE3EC0CF031D8B5EC0E
:100FC8000BF020D87BEC0AF038D0270EE3EC0CF0BD
:100FD80027D8B5EC0BF016D87BEC0AF02ED02C50A5
:100FE800A4E0010AACE0030AB4E0010ABCE0070A85
:100FF800C4E0010ACCE0030AD4E0010ADCE00F0AED
:10100800E4E0120045C051F046C052F047C053F02A
:1010180048C054F0640E556E566A576A586A640C94
:1010280040C045F041C046F0476A486A710E496EB3
:10103800020E4A6E4B6A4C6A020C51C01DF052C037
:101048001EF01200020E426E0A0C899489921A0E42
:10105800436EF80EE82EFED7432EFCD700D01A0EAA
:10106800436EF80EE82EFED7432EFCD700D01A0E9A
:10107800436EF80EE82EFED7432EFCD700D01A0E8A
:10108800436EF80EE82EFED7432EFCD700D0030E91
:1010980002EC0AF00D0E436EFC0EE82EFED7432E2E
:1010A800FCD7030E02EC0AF00D0E436EFC0EE82E80
:1010B800FED7432EFCD7030E02EC0AF00D0E436E4A
:1010C800FC0EE82EFED7432EFCD7020E02EC0AF0E7
:1010D8000D0E436EFC0EE82EFED7432EFCD7000EF5
:1010E800406E280E42EC0DF00D0E436EFC0EE82EFD
:1010F800FED7432EFCD7000E406E0C0E42EC0DF0CE
:10110800150E436EC60EE82EFED7432EFCD700D030
:101118008FEC0DF00D0E436EFC0EE82EFED7432E1D
:10112800FCD7000E406E060E42EC0DF00D0E436E1D
:10113800FC0EE82EFED7432EFCD78FEC0DF08984E9
:1011480012005DD0CBEC0CF00009D8A4000CCC0E3A
:101158007DEC0CF0440E7DEC0CF04650D96EDA6A4A
:10116800DF6A4550D96EDA6A020EDF6ECD80000C58
:101178004B6AF29ECBEC0CF0550E7DEC0CF04C6AF1
:101188004B50080DF350010F4C24D96EDA6ADF502A
:101198007DEC0CF04C2A070E4C64F2D7BE0E7DECA9
:1011A8000CF04C6A4C50300FD96EDA6A62EC0CF0D5
:1011B800DF6E4C2A080E4C64F5D7300E3E6E090ED1
:1011C8003F6EDBEC0BF000090CE13150476E3050FC
:1011D800496E47C04AF01CD849C0DEFF4AC0DDFF4F
:1011E80004D016D8DE687F0EDD6EF28E4B2A010E13
:1011F8004B64BFD74550D96EDA6ADF6A010C455097
:10120800D96EDA6ADF509EE0010AB2E0030A000CE8
:101218004B50020DF350110FD96EDA6A120046D006
:101228004FD842EC0DF0060E476E300EE82EFED772
:10123800472EFCD700D038D067EC07F074EC0DF0DF
:1012480033D0000E406E100E42EC0DF02DD045C08C
:10125800F6FF46C0F7FFC00E0800F56006D0010E85
:10126800406E27D842EC0DF01FD0010E406E400EA4
:10127800476E48681ED8496E4A6A47504926485002
:101288004A228D0E4924F66E1E0E4A20F76E08007B
:10129800F55042EC0DF008D00CD8080AD2E0020A4A
:1012A800CBE0060ABDE0D3D7454A462A02D8F4E186
:1012B800120045C0F6FF46C0F7FF0800F5501200BF
:1012C800000E406E010C806A896A926A816A8A6A95
:1012D800060E936E826A8B6A946AD390D382700EDC
:1012E800D3120F0EC112808CB6EC0AF0800ECD6EB0
:1012F8003C0ECF6EB00ECE6E9F80F80ED516D586FA
:10130800D59CD59AD58EB10ED76EE00ED66EF28AE0
:10131800F194F19E9D80D08EF28CF28E29EC08F02B
:1013280082EC0DF0E50E426E1E0E436E010E446E09
:10133800B2EC0CF0DD0E426E1E0E436E020E446ED1
:10134800B2EC0CF0D50E426E1E0E436E030E446EC8
:10135800B2EC0CF0CD0E426E1E0E436E040E446EBF
:10136800B2EC0CF08B981200626E6250020DF350D2
:101378000F0FD96EDA6ADECF60F0DDCF61F060C0A2
:1013880063F061C064F0656A666A5E50D96EDA6AB5
:101398002B0EDF6E63280AE17F0E64186510661055
:1013A80005E163C05EF064C05FF0120064AE0DD06A
:1013B800661E651E641E636C000E6422652266222A
:1013C8005E50D96EDA6A2D0EDF6E63C045F064C0D8
:1013D80046F065C047F066C048F00CEC07F0B5EC85
:1013E8000BF006EC08F07BEC0AF051C063F052C039
:1013F80064F053C065F054C066F0D3D73F6E3FA089
:1014080003D03E6A3E2A01D03E6A8B503E18FE0B3E
:101418003E188B6E3FA203D03E6A3E2A01D03E6A38
:101428003E468B503E18FD0B3E188B6E3FA403D0F2
:101438003E6A3E2A01D03E6A19D8FB0B3E188B6ED5
:101448003FA603D03E6A3E2A01D03E6A3E460ED8E9
:10145800F70B3E188B6E8982420EE82EFED700D01D
:101468008992420EE82EFED700D012003E463E4634
:101478008B503E181200436A41AE06D0406C411EA4
:10148800D8B0412A010E436E3FAE06D03E6C3F1ED7
:10149800D8B03F2A010E431A446A456A40504110A9
:1014A8001BE0010E426E04D0D89040364136422AE5
:1014B80041AEFAD7D8904436453640503E5C41504C
:1014C8003F5805E340503E5E41503F5A4480D89013
:1014D80041324032422EEED7435004E0446C451E60
:1014E800D8B0452A44C03EF045C03FF01200596AC2
:1014F8005A6A5B6A5C6A555056105710581029E0B2
:10150800010E5D6E06D0D890553656365736583689
:101518005D2A58AEF8D7D89059365A365B365C36BD
:101528005550515C5650525857505358585054586B
:1015380009E35550515E5650525A5750535A585015
:10154800545A5980D89058325732563255325D2EF7
:10155800E2D759C051F05AC052F05BC053F05CC09A
:1015680054F01200CBEC0CF000090FE1CC0E7DEC2E
:101578000CF04E0E7DEC0CF0000E7DEC0CF0000E25
:101588007DEC0CF07F0E7DEC0CF0466A476A465005
:10159800080DF350010F4724D96EDA6A4650446E9D
:1015A800456AD89044364536D89044364536D89062
:1015B80044364536475044243E6E000E45203F6E63
:1015C800B2EC0DF0DF6E472A070E4764E0D7462AD3
:1015D800010E4664DBD7010C4B6A47AE06D0466C59
:1015E800471ED8B0472A010E4B6E49AE04D0486C4E
:1015F800491ED8B0492A4850491017E0010E4A6ED2
:1016080004D0D890483649364A2A49AEFAD74850C5
:10161800465C4950475804E34850465E4950475A8B
:10162800D890493248324A2EF2D74B5004E0466CE3
:10163800471ED8B0472A46C046F047C047F01200B8
:101648004D6ECBEC0CF000090CE1330E7DEC0CF088
:101658004E6A24D862EC0CF0DF6E4E2A070E4E64F8
:10166800F8D7450E3E6E080E3F6EDBEC0BF0000916
:1016780014E14E6A13D8DF503E6E4D50080DF350FA
:101688004E24F80F1EEC0DF04E2A070E4E64F2D7CA
:101698008FEC07F030EC0DF0010C000C4E50450FAC
:1016A800D96EDA6A1200625063106410651023E084
:1016B800010E666E06D0D89062366336643665369B
:1016C800662A65AEF8D762505E5C63505F58645016
:1016D80060586550615808E362505E5E63505F5A17
:1016E8006450605A6550615AD890653264326332EA
:1016F8006232662EE8D75EC05EF05FC05FF060C001
:1017080060F061C061F0120081A281B402D0030EC2
:1017180007D081B202D0010E03D081B403D0020EEB
:101728003E6E01D03E6A3E5019E02D0E195C010E46
:101738001A5809E3010E1A6E180E196E3EC025F0EC
:10174800010E2F6E010C194A1A2A0F0E19181A10B9
:10175800D8A412003EC025F02F6A1200196A1A6A2E
:1017680012004D6A4E6A4F6A506A45A008D0495027
:101778004D264A504E224B504F224C505022D89062
:1017880049364A364B364C36D8904832473246327C
:1017980045324550461047104810E7E14DC045F026
:1017A8004EC046F04FC047F050C048F01200446A9F
:1017B800436A1DD03E504324D96EDA6ADF50416E29
:1017C800080E406E44504118010B426E420402E17B
:1017D800180E441AD89044307F0B446E420401E13D
:1017E800448ED890413240064050ECE1432A3F50A5
:1017F8004318E0E144501200426A436A40504110E5
:101808001BE0010E446E04D0D89040364136442A7D
:1018180041AEFAD7D8904236433640503E5C4150EC
:101828003F5805E340503E5E41503F5A4280D890B1
:1018380041324032442EEED742C03EF043C03FF022
:1018480012004750481017E0010E496E04D0D89096
:1018580047364836492A48AEFAD74750455C48507B
:10186800465804E34750455E4850465AD890483297
:101878004732492EF2D745C045F046C046F012001F
:101888008C0EF66E1B0EF76E000EF86E00EE69F009
:1018980010EE08F00900F5CFEEFFE550E150FAE14F
:1018A800716A00EE01F03A0EEE6AE806FDE1729008
:1018B8007292000EF86E000134EF00F0406A416A3F
:1018C800A7EC0DF000090CE041C03EF0010E3F6EA0
:1018D8003E2A02D0D8903F363E2EFCD73F504012C9
:1018E800500EE82EFED7412A070E4164E9D7405032
:1018F8001200416E436A43C03FF041C040F03F2AA6
:1019080002D0D89040323F2EFCD74050426E010E94
:101918004216425065EC0DF0432A070E4364EBD79C
:10192800460EE82EFED712003F6E416A3E5014E084
:10193800010E406E03D0D8903E36402A3EAEFBD70B
:10194800D89041363E503F5C03E33E503F5E4180B5
:10195800D8903E32402EF4D741501200406A44508D
:10196800080DF350400942EC0DF0456A010E406E37
:1019780042C0F6FF43C0F7FF0800F55042EC0DF0F7
:10198800424A432A452A070E4564F0D7070C809C33
:10199800929CC80E00D0E82EFDD7808C928C420E07
:1019A800E82EFED700D0000E80BC010E3E6EA90EB8
:1019B80000D0E82EFDD700D000F03E501200446E53
:1019C80044C03EF03F6AB2EC0DF0436E426A4428D0
:1019D8003E6E3F6A000E3F22B2EC0DF0421242C04A
:1019E80040F043C041F012003E504002F3CF42F0B5
:1019F800F4CF43F03E504102F35043263F5040029B
:101A0800F350432642C03EF043C03FF01200436EFD
:101A1800080E446E456AD89043344534456ED890D4
:101A280043364250455C02E34250455E442EF3D7AC
:101A3800455012003F6EA6B2FED73FC0A9FF3EC078
:101A4800A8FFA69EA69CA684F29E550EA76EAA0E77
:101A5800A76EA682F28EAA0C416A426A09D0030ECA
:101A6800406E980EE82EFED7402EFCD7414A422AF7
:101A780041503E5C42503F58F2E21200416E4050E5
:101A880002E1899401D08984420EE82EFED700D065
:101A980041380F0B02EC0AF041500F0B02EF0AF02D
:101AA8009EA00DD09E903C0ECF6EB00ECE6E3A2A00
:101AB8001D0E3A6404D03A6A010E396ECD907292C6
:101AC80011003E6E809C929C3E0404E100D000D040
:101AD800808C928C460EE82EFED7808C928C120059
:101AE800436E420403E0400E446E01D0446A43044E
:101AF8004426406A4450800942EF0DF0949C948E2D
:101B0800AC98AC8AAB88AB8EAC84330EAF6E100E3B
:101B1800246E236A120064EC09F042EC0DF0060E04
:101B2800426E300EE82EFED7422EFCD700D01200AF
:101B3800426E41C03EF042501EEC0DF040C03EF0F7
:101B480042281EEF0DF0809C929C00D0808C928CD5
:101B5800040EE82EFED780BC010C000CA6B2FED7FE
:101B68003EC0A9FFA69EA69CA680A8501200426E61
:101B7800010E406E425042EF0DF025C03EF0256A3E
:0C1B88003E501200FF7FFF7F01012B2B5D
:101E8C000041A042A1E045A3A4A5A64BA74D484FF5
:101E9C00A8504354A9AA58E1ABACE2ADAE62AFB0C6
:101EAC00B161B2B3B4E365B6B7B8B9BABBBCBD6F78
:101EBC00BE7063BF79E478E5C0C1E6C2C3C4C5C6D1
:101ECC00C70E0A0A0A1A0A0E00000E1F0A0A0E0E84
:101EDC00000609090600000F0006090906000000AB
:101EEC0000202020D2E0EA202020202020CD6920D4
:101EFC00200020D469EAF1E0F669FF207420EAEEB4
:101F0C00EB2E0020CAEEE420EFF0EEF7E8F2E0ED65
:101F1C00EE200020CAEEEB2831292020CAF3E1285C
:101F2C003229002D2D2DD2C5D0CCCECCC5D2D02D62
:101F3C002D2D00C4E0F2F7E8EA20312C20E0E1EE90
:101F4C00203200202031202020202032202020315F
:101F5C002D32002863294976616E5F6664207631E4
:101F6C002E3800CFEEF069E320D1E8E3ED2E204CC3
:101F7C0065640020CAEEEBEEEDE020202020CAF3D1
:101F8C00E100D2E5ECEF20CDE8E73A20202020203C
:101F9C000020202020C3F0E0EDE8F669202000208E
:101FAC00202020CAF3E1EEE2E020200020202020B7
:101FBC00CAEEEBEEEDE0202000C2E8E169F0203142
:101FCC00384232303A00D2E5ECEF20C2E5F0F53A77
:101FDC0000CFEEF069E300313A00323A00333A00B8
:101FEC00343A00353A00363A00373A00383A00397C
:031FFC003A0000A8
:020000040020DA
:08000000FFFFFFFFFFFFFFFF00
:020000040030CA
:0E000000FF080A1EFF8181FF0FC00FE00F40B6
:00000001FF
