:020000040000FA
:040000002BEF00F0F2
:1000080048829EA00DD09E903C0ECF6EB00ECE6E54
:100018002F2A1D0E2F6404D02F6A010E2E6ECD904C
:10002800F2A413D0F294B10ED76EE00ED66E4782CA
:1000380047A00BD01E2A150E1E6002D08B8801D057
:100048008B98460E1E6401D01E6A4892110092EFEA
:1000580006F0CEEC05F0010E346E89EC07F05F0E69
:10006800376E1F0E386E8AEC04F047DB89EC07F018
:100078006F0E376E1F0E386E8AEC04F0070E316E65
:10008800D00E306E56EC07F097EC07F081B215D021
:1000980097EC07F0020E42DB89EC07F07F0E376E13
:1000A8001F0E386E8AEC04F028DB89EC07F0D60EB8
:1000B800376E1F0E386E8AEC04F0316A100E306EFF
:1000C800AFEC07F0226E316A110E306EAFEC07F01C
:1000D800216E316A120E306EAFEC07F0206E316A75
:1000E800130E306EAFEC07F01F6E47A203D002EC80
:1000F80006F04792BEEC07F0246ECAD22E0E376E79
:100108002F0E386E1CEC04F0000912E0460E306E1B
:10011800010EDEEC04F030C01BF031C01CF0450EBF
:10012800306E020EDEEC04F030C019F031C01AF067
:1001380022501724416E000E1820426E41501B5C5D
:1001480042501C5802E3478001D04790010E346E9C
:1001580089EC07F0F60E376E1F0E386E8AEC04F045
:10016800010E346E080E89EC07F01B2803E17F0EA0
:100178001C1865E0336A640EACDA4EEC06F09BDAC4
:1001880073EC06F03750381027E14650B8EC07F00A
:10019800336A0A0E9EDA4EEC06F08DDA73EC06F03E
:1001A8003750300FB8EC07F02E0EB8EC07F09BDA9A
:1001B80096DA73EC06F03750300FB8EC07F0010E02
:1001C800B8EC07F0430EB8EC07F0200EB8EC07F0D7
:1001D800200EB8EC07F048D04650B8EC07F0336A68
:1001E800640E77DA4EEC06F066DA73EC06F03750F8
:1001F800300FB8EC07F0336A0A0E6BDA4EEC06F0F3
:100208005ADA73EC06F03750300FB8EC07F02E0EC0
:10021800B8EC07F068DA63DA73EC06F03750300FA1
:10022800B8EC07F0010EB8EC07F0430EB8EC07F095
:10023800200EB8EC07F0200EB8EC07F015D02D0E04
:10024800B8EC07F02D0EB8EC07F02D0EB8EC07F05F
:10025800200EB8EC07F0200EB8EC07F0200EB8EC32
:1002680007F0200EB8EC07F048DA89EC07F0EE0E3C
:10027800376E1F0E386E8AEC04F0020E346E080ECC
:1002880089EC07F0192803E17F0E1A1865E0336A34
:10029800640E19DA4EEC06F00EDA73EC06F03750FD
:1002A800381027E14550B8EC07F0336A0A0E0BDA2C
:1002B8004EEC06F000DA73EC06F03750300FB8EC6D
:1002C80007F02E0EB8EC07F013DA09DA73EC06F033
:1002D8003750300FB8EC07F0010EB8EC07F0430EBA
:1002E800B8EC07F0200EB8EC07F0200EB8EC07F0D9
:1002F80048D04550B8EC07F0336A640EE4D94EECA8
:1003080006F0D9D973EC06F03750300FB8EC07F087
:10031800336A0A0ED8D94EEC06F0CDD973EC06F044
:100328003750300FB8EC07F02E0EB8EC07F0E0D9D4
:10033800D6D973EC06F03750300FB8EC07F0010E41
:10034800B8EC07F0430EB8EC07F0200EB8EC07F055
:10035800200EB8EC07F015D02D0EB8EC07F02D0ED6
:10036800B8EC07F02D0EB8EC07F0200EB8EC07F04B
:10037800200EB8EC07F0200EB8EC07F0200EB8EC11
:1003880007F0240415E197EC07F0040EC7D989ECAF
:1003980007F08F0E376E1F0E386E8AEC04F0ADD959
:1003A80089EC07F0AD0E376E1F0E386E8AEC04F03C
:1003B800030E241801E099D61BC017F01CC018F0D2
:1003C80094D6020E346E0E0E89EC07F04350300FAF
:1003D800B8EC07F0240406E1432A030E431802E1AF
:1003E800010E436E020E241805E14306435002E154
:1003F800020E436E030E241801E077D643509AECA0
:1004080005F0000909E079D989EC07F04F0E376E3D
:100418001F0E386E8AEC04F0030E446E66D6020E88
:10042800346E100E89EC07F04350300FB8EC07F02B
:10043800240406E1432A030E431802E1010E436E29
:10044800020E241805E14306435002E1020E436EF2
:10045800030E241801E049D6430415E1050E68D9B6
:1004680097EC07F0010E346E89EC07F0C90E376E71
:100478001F0E386E8AEC04F040D989EC07F045D994
:100488008AEC04F032D6060E53D997EC07F0010E29
:10049800346E89EC07F0BC0E376E1F0E386E8AEC8E
:1004A80004F02BD989EC07F030D98AEC04F01DD67A
:1004B8003CD989EC07F02B0EB8EC07F00A0E346E25
:1004C800306E2250E6EC06F031EC07F0300FB8EC55
:1004D80007F02E0EB8EC07F00A0E346E225031ECFD
:1004E80007F0300FB8EC07F0240405E1222A0B0EC0
:1004F800221801E1226A020E241805E122062228A8
:1005080002E10A0E226E030E241801E0EED502D98C
:1005180089EC07F0F5D88AEC04F0E7D503D989EC23
:1005280007F02D0EB8EC07F00A0E346E306E21502D
:10053800E6EC06F031EC07F0300FB8EC07F02E0EC1
:10054800B8EC07F00A0E346E215031EC07F0300F8A
:10055800B8EC07F0240405E1212A0B0E211801E16B
:10056800216A020E241805E12106212802E10A0E5B
:10057800216E030E241801E0B8D5010E446E22C086
:1005880030F0100E44EC07F021C030F0110E44ECAE
:1005980007F0ABD52350010A8BE0030ABFE0A5D5CD
:1005A800C4D889EC07F02B0EB8EC07F00A0E346EAD
:1005B800306E2050E6EC06F031EC07F0300FB8EC66
:1005C80007F02E0EB8EC07F00A0E346E205031EC0E
:1005D80007F0300FB8EC07F0240405E1202A0B0ED1
:1005E800201801E1206A020E241805E120062028BF
:1005F80002E10A0E206E030E241801E076D58AD88F
:1006080089EC07F07DD88AEC04F06FD58BD889EC9B
:1006180007F02D0EB8EC07F00A0E346E306E1F503E
:10062800E6EC06F031EC07F0300FB8EC07F02E0ED0
:10063800B8EC07F00A0E346E1F5031EC07F0300F9B
:10064800B8EC07F0240405E11F2A0B0E1F1801E17E
:100658001F6A020E241805E11F061F2802E10A0E70
:100668001F6E030E241801E040D5010E446E20C011
:1006780030F0120E44EC07F01FC030F0130E44ECBB
:1006880007F033D52350010A8BE0030ABFE02DD5CC
:100698004450010A01E132D5030A01E192D6010A68
:1006A80001E123D5070A01E1BAD6010A01E172D7AF
:1006B800030AE8E01AD530C037F031C038F03A6A9A
:1006C8000A0E396E0A0C326E19C030F01AC031F0B9
:1006D8001200326E1BC030F01CC031F012003A6AB2
:1006E8000A0E396E0A0C1BC037F01CC038F0120015
:1006F80019C037F01AC038F01200020E346E010C1F
:100708009E0E376E1F0E386E1200E30E376E1F0EE8
:10071800386E1200020E236E346E010C446E010E08
:10072800346E010C020E346E0A0C020E346E0B0C81
:10073800446E010E236E010C809480921A0E356E61
:10074800F80EE82EFED7352EFCD700D01A0E356EDF
:10075800F80EE82EFED7352EFCD700D01A0E356ECF
:10076800F80EE82EFED7352EFCD700D01A0E356EBF
:10077800F80EE82EFED7352EFCD700D0030E23EC5A
:1007880005F00D0E356EFC0EE82EFED7352EFCD783
:10079800030E23EC05F00D0E356EFC0EE82EFED789
:1007A800352EFCD7030E23EC05F00D0E356EFC0E2E
:1007B800E82EFED7352EFCD7020E23EC05F00D0EE1
:1007C800356EFC0EE82EFED7352EFCD7000E326EA5
:1007D800280E68EC07F00D0E356EFC0EE82EFED7DD
:1007E800352EFCD7000E326E0C0E68EC07F0150E95
:1007F800356EC60EE82EFED7352EFCD700D097EC06
:1008080007F00D0E356EFC0EE82EFED7352EFCD700
:10081800000E326E060E68EC07F00D0E356EFC0EFB
:10082800E82EFED7352EFCD797EC07F0808412000F
:100838005BD019EC07F00009D8A41200CC0ECBEC61
:1008480006F0440ECBEC06F03850D96EDA6ADF6A4F
:100858003750D96EDA6A020EDF6ECD80000C3D6A21
:1008680019EC07F0550ECBEC06F03E6A3D50080D2A
:10087800F350010F3E24D96EDA6ADF50CBEC06F054
:100888003E2A070E3E64F2D7BE0ECBEC06F03E6A57
:100898003E50250FD96EDA6AB0EC06F0DF6E3E2ABC
:1008A800080E3E64F5D7250E306E090E316E29EC20
:1008B80006F000090CE12650396E25503B6E39C010
:1008C8003CF01DD83BC0DEFF3CC0DDFF04D017D88C
:1008D800DE687F0EDD6E3D2A010E3D64C1D73750BC
:1008E800D96EDA6ADF6A010C3750D96EDA6ADF50DE
:1008F800A0E0010AB4E0030AD8B4000C12003D508D
:10090800020DF350110FD96EDA6A120046D04FD893
:1009180068EC07F0060E396E300EE82EFED7392E39
:10092800FCD700D038D081EC03F089EC07F033D045
:10093800000E326E100E68EC07F02DD037C0F6FFAF
:1009480038C0F7FFC00E0800F56006D0010E326E01
:1009580027D868EC07F01FD0010E326E400E396EB2
:100968003A681ED83B6E3C6A39503B263A503C22C6
:10097800F70E3B24F66E1E0E3C20F76E0800F5506D
:1009880068EC07F008D00CD8080AD2E0020ACBE0DD
:10099800060ABDE0D3D7374A382A02D8F4E1120054
:1009A80037C0F6FF38C0F7FF0800F5501200000EF8
:1009B800326E010C326E3250020DF3500F0FD96EA9
:1009C800DA6ADECF34F0DDCF35F03050D96EDA6A2E
:1009D8002B0EDF6E342808E17F0E351805E134C090
:1009E80030F035C031F0120035AE09D0346C351E08
:1009F800D8B0352A3050D96EDA6A2D0EDF6E3450F1
:100A08000F0B336E370E3324F66EF76A1F0EF7227C
:100A18000800F5CF33F0343A353A0F0E3416355016
:100A2800F00B34120F0E351634500A0DF3CF34F094
:100A3800F4CF35F033503426000E3522D0D7316E3E
:100A480031A003D0306A302A01D0306A8250301881
:100A5800FE0B3018826E31A203D0306A302A01D0E2
:100A6800306A304682503018FD0B3018826E31A43F
:100A780003D0306A302A01D0306A19D8FB0B3018FD
:100A8800826E31A603D0306A302A01D0306A3046EF
:100A98000ED8F70B3018826E8082420EE82EFED7F1
:100AA80000D08092420EE82EFED700D012003046C9
:100AB800304682503018120019EC07F000090FE197
:100AC800CC0ECBEC06F04E0ECBEC06F0000ECBECC9
:100AD80006F0000ECBEC06F07F0ECBEC06F0386A81
:100AE800396A3850080DF350010F3924D96EDA6A83
:100AF8003850366E376AD89036363736D89036360C
:100B08003736D8903636373639503624306E000EA0
:100B18003720316EAFEC07F0DF6E392A070E3964E3
:100B2800E0D7382A010E3864DBD7010C3F6E19EC88
:100B380007F000090CE1330ECBEC06F0406A25D82B
:100B4800B0EC06F0DF6E402A070E4064F8D7370E87
:100B5800306E080E316E29EC06F0000915E1406A86
:100B680014D8DF50306E3F50080DF3504024F80F72
:100B780044EC07F0402A070E4064F2D7316A0A0EA7
:100B8800306E56EC07F0010C000C4050370FD96E50
:100B9800DA6A1200806A896A926A816A8A6A060E2B
:100BA800936E826A8B6A946AD390D382700ED31242
:100BB8000F0EC112808C60EC05F0800ECD6E3C0EDD
:100BC800CF6EB00ECE6EF80ED516D586D59CD59ABA
:100BD800D58EB10ED76EE00ED66EF28AF19E9D804C
:100BE800F28CF28EA0EC03F0470E346E1F0E356EB9
:100BF800010E366E00EC07F08B98120081A281B4CA
:100C080002D0030E07D081B202D0010E03D081B406
:100C180003D0020E306E01D0306A305013E02D0E32
:100C2800155C010E165807E3010E166E220E156E9E
:100C380030C01DF01200154A162A0F0E151816108E
:100C4800F7E01200156A166A1200366A356A1DD076
:100C580030503524D96EDA6ADF50336E080E326EA2
:100C680036503318010B346E340402E1180E361A6C
:100C7800D89036307F0B366E340401E1368ED8902A
:100C8800333232063250ECE1352A31503518E0E182
:100C980036501200346A356A325033101BE0010EA8
:100CA800366E04D0D89032363336362A33AEFAD779
:100CB800D890343635363250305C3350315805E3ED
:100CC8003250305E3350315A3480D8903332323219
:100CD800362EEED734C030F035C031F0120039501E
:100CE8003A1017E0010E3B6E04D0D89039363A36E8
:100CF8003B2A3AAEFAD73950375C3A50385804E3B1
:100D08003950375E3A50385AD8903A3239323B2EF9
:100D1800F2D737C037F038C038F01200860EF66EBA
:100D28000F0EF76E000EF86E00EE43F010EE04F0B2
:100D38000900F5CFEEFFE550E150FAE1476A00EE11
:100D480001F02F0EEE6AE806FDE148904892000E89
:100D5800F86E00012DEF00F0326A336AA4EC07F058
:100D680000090CE033C030F0010E316E302A02D099
:100D7800D8903136302EFCD731503212500EE82E32
:100D8800FED7332A070E3364E9D732501200336E88
:100D9800356A35C031F033C032F0312A02D0D890EC
:100DA8003232312EFCD73250346E010E34163450A4
:100DB8007AEC07F0352A070E3564EBD7460EE82E95
:100DC800FED71200316E336A305014E0010E326ED5
:100DD80003D0D8903036322A30AEFBD7D89033368D
:100DE8003050315C03E33050315E3380D89030327C
:100DF800322EF4D733501200326A3650080DF350B1
:100E0800400968EC07F0376A010E326E34C0F6FF0D
:100E180035C0F7FF0800F55068EC07F0344A352A6A
:100E2800372A070E3764F0D7070C809C929CC80EAF
:100E380000D0E82EFDD7808C928C420EE82EFED78B
:100E480000D0000E80BC010E306EA90E00D0E82E36
:100E5800FDD700D000F030501200356E080E366E07
:100E6800376AD89035343734376ED89035363450A1
:100E7800375C02E33450375E362EF3D73750120012
:100E8800316EA6B2FED731C0A9FF30C0A8FFA69E1A
:100E9800A69CA684F29E550EA76EAA0EA76EA682E1
:100EA800F28EAA0C336A346A09D0030E326E980E99
:100EB800E82EFED7322EFCD7334A342A3350305C22
:100EC80034503158F2E21200336E325002E180940D
:100ED80001D08084420EE82EFED700D033380F0BA5
:100EE80023EC05F033500F0B23EF05F0306E809C98
:100EF800929C300404E100D000D0808C928C460E85
:100F0800E82EFED7808C928C1200356E340403E0F4
:100F1800400E366E01D0366A35043626326A3650AF
:100F2800800968EF07F0DBEC04F068EC07F0060EC8
:100F3800346E300EE82EFED7342EFCD700D01200C7
:100F4800809C929C00D0808C928C040EE82EFED758
:100F580080BC010C000CA6B2FED730C0A9FFA69E2B
:100F6800A69CA680A8501200346E010E326E345032
:100F780068EF07F01DC030F01D6A30501200010103
:020F88002B2B11
:101EF6000041A042A1E045A3A4A5A64BA74D484F8B
:101F0600A8504354A9AA58E1ABACE2ADAE62AFB05B
:101F1600B161B2B3B4E365B6B7B8B9BABBBCBD6F0D
:101F2600BE7063BF79E478E5C0C1E6C2C3C4C5C666
:101F3600C700010102020304040506060707080993
:101F460009060909060000000020CAEEE420EFF0A9
:101F5600EEF7E8F2E0EDEE20002D2D2DD2C5D0CC27
:101F6600CECCC5D2D02D2D2D002863294976616EA1
:101F76005F66642076312E3000C4E0F2F7E8EA208E
:101F8600312C20E0E1EE2032002020C369F1F2E599
:101F9600F0E5E7E8F1202000D2E5ECEF20CDE8E718
:101FA6003A202020202000CAEEEB2831292FC3EE4C
:101FB600EB2832293A0020202020C3EEEBEEE2E0A7
:101FC60020200020202020CAEEEBEEEDE0202000AD
:101FD600C2E8E169F02031384232303A00D2E5EC0D
:101FE600EF20C2E5F0F53A00C3EEEBEEE2E03A0090
:091FF600CAEEEBEEEDE03A00004A
:020000040020DA
:08000000FFFFFFFFFFFFFFFF00
:020000040030CA
:0E000000FF080A1EFF8181FF0FC00FE00F40B6
:00000001FF
