:020000040000FA
:040000002DEF00F0F0
:100008004B829EA00DD09E903C0ECF6EB00ECE6E51
:10001800312A1D0E316404D0316A010E306ECD9044
:10002800F2A415D0F294B10ED76EE00ED66E4A84C3
:100038004AA20CD0202A150E206002D08B8801D04D
:100048008B98460E206403D0206A01D08B984B927F
:100058001100FCEF07F038EC07F0010E366EF3ECF8
:1000680008F0430E396E1F0E3A6EF4EC05F0B5EC4D
:1000780004F0F3EC08F0530E396E1F0E3A6EF4ECF0
:1000880005F0070E336ED00E326EC0EC08F001ECAE
:1000980009F081B217D001EC09F0020EE6EC04F089
:1000A800F3EC08F0630E396E1F0E3A6EF4EC05F0AF
:1000B800B5EC04F0F3EC08F0C90E396E1F0E3A6E79
:1000C800F4EC05F0336A100E326E19EC09F0246E68
:1000D800336A110E326E19EC09F0236E336A120E70
:1000E800326E19EC09F0226E336A130E326E19EC77
:1000F80009F0216E336A140E326E19EC09F0196E8C
:100108001A6A336A150E326E19EC09F0176E186AFE
:100118004AA403D06CEC07F04A9428EC09F0266E48
:10012800E7D3300E396E310E3A6E86EC05F00009D1
:1001380001E1E2D1490E326E010E48EC06F032C000
:100148001DF033C01EF0480E326E020E48EC06F069
:1001580032C01BF033C01CF0CFD1010E366EF3EC69
:1001680008F0F60E396E1F0E3A6EF4EC05F0EAEC64
:1001780004F0F3EC08F01D2803E17F0E1E1862E07E
:10018800356A640ED8DBB8EC07F0C9DBDDEC07F0A4
:1001980039503A1027E1495022EC09F0356A0A0E25
:1001A800CADBB8EC07F0BBDBDDEC07F03950300FE9
:1001B80022EC09F02E0E22EC09F0C9DBB8DBDDECED
:1001C80007F03950300F22EC09F0010E22EC09F04B
:1001D800430E22EC09F0200E22EC09F0200E22EC4E
:1001E80009F045D0495022EC09F0356A640EA3DBCA
:1001F800B8EC07F094DBDDEC07F03950300F22EC57
:1002080009F0356A0A0E97DBB8EC07F088DBDDECFD
:1002180007F03950300F22EC09F02E0E22EC09F0CD
:1002280096DB85DBDDEC07F03950300F22EC09F066
:10023800010E22EC09F0430E22EC09F0200E22EC0C
:1002480009F015D02D0E22EC09F02D0E22EC09F044
:100258002D0E22EC09F0200E22EC09F0200E22ECE3
:1002680009F0200E22EC09F0200E22EC09F079DBCF
:10027800F3EC08F0CE0E22EC09F0356A640E7ADB56
:10028800B8EC07F04CDBDDEC07F03950300F22EC0E
:1002980009F0356A0A0E6EDBB8EC07F040DBDDECDE
:1002A80007F03950300F22EC09F02E0E22EC09F03D
:1002B80019C039F01AC03AF03ADBDDEC07F03950D2
:1002C800300F22EC09F0010E22EC09F0200E22EC8E
:1002D80009F0D90E22EC09F057DB50EC08F09BEC42
:1002E80008F0300F22EC09F02E0E22EC09F082DB28
:1002F8009BEC08F0300F22EC09F0200E22EC09F0FC
:10030800DA0E22EC09F04ADB50EC08F09BEC08F01E
:10031800300F22EC09F02E0E22EC09F073DB9BEC77
:1003280008F0300F22EC09F0EED0010E366EF3EC37
:1003380008F0EE0E396E1F0E3A6EF4EC05F046DB4F
:10034800F3EC08F01B2803E17F0E1C1862E0356A05
:10035800640EF7DAB8EC07F0E2DADDEC07F03950B2
:100368003A1027E1485022EC09F0356A0A0EE9DA1A
:10037800B8EC07F0D4DADDEC07F03950300F22EC96
:1003880009F02E0E22EC09F0E7DAD1DADDEC07F0FD
:100398003950300F22EC09F0010E22EC09F0430E1F
:1003A80022EC09F0200E22EC09F0200E22EC09F0D4
:1003B80045D0485022EC09F0356A640EC2DAB8EC30
:1003C80007F0ADDADDEC07F03950300F22EC09F018
:1003D800356A0A0EB6DAB8EC07F0A1DADDEC07F0F8
:1003E8003950300F22EC09F02E0E22EC09F0B4DA65
:1003F8009EDADDEC07F03950300F22EC09F0010EDF
:1004080022EC09F0430E22EC09F0200E22EC09F050
:1004180015D02D0E22EC09F02D0E22EC09F02D0E30
:1004280022EC09F0200E22EC09F0200E22EC09F053
:10043800200E22EC09F0200E22EC09F092DAF3ECFF
:1004480008F0CE0E22EC09F0356A640E8DDAB8ECAD
:1004580007F065DADDEC07F03950300F22EC09F0CF
:10046800356A0A0E81DAB8EC07F059DADDEC07F0E4
:100478003950300F22EC09F02E0E22EC09F017C08B
:1004880039F018C03AF053DADDEC07F03950300F84
:1004980022EC09F0010E22EC09F0200E22EC09F002
:1004A800D90E22EC09F07FDA50EC08F09BEC08F04A
:1004B800300F22EC09F02E0E22EC09F08ADA9BECC0
:1004C80008F0300F22EC09F0200E22EC09F0DA0EC9
:1004D80022EC09F072DA50EC08F09BEC08F0300FCF
:1004E80022EC09F02E0E22EC09F07DDA9BEC08F0E4
:1004F800300F22EC09F007D04650010A01E12DD651
:10050800030A01E112D74AA040D067DAF3EC08F0F9
:10051800ED0E22EC09F024501924436E000E1A2027
:10052800446E43501D5C44501E580BE22350195C26
:10053800436E000E1A58446E1D50435C1E504458BA
:1005480005E31D281EE17F0E1E181BE1225017240B
:10055800436E000E1820446E43501B5C44501C58D8
:100568000BE22150175C436E000E1858446E1B5066
:10057800435C1C50445807E31B2803E17F0E1C18FA
:1005880002E04A820AD04A9208D027DAF3EC08F04F
:10059800D50E22EC09F08B98F6D7260415E101EC6C
:1005A80009F0070E0FDAF3EC08F0730E396E1F0E20
:1005B8003A6EF4EC05F0D5D9F3EC08F0D60E396EA6
:1005C8001F0E3A6EF4EC05F0020E261805E14604FB
:1005D800020ED8A4010E466E030E261801E098D527
:1005E8001DC019F01EC01AF01BC017F01CC018F06F
:1005F80019C032F0140EAEEC08F017C032F0150E28
:10060800AEEC08F085D5020E366E0E0EF3EC08F04F
:100618004550300F22EC09F0260406E1452A030E66
:10062800451802E1010E456E020E261805E1450641
:10063800455002E1020E456E030E261801E068D50A
:10064800455004EC07F0000909E08BD9F3EC08F0F9
:10065800330E396E1F0E3A6EF4EC05F0030E21D0FE
:10066800260415E101EC09F0040EACD9F3EC08F00E
:10067800820E396E1F0E3A6EF4EC05F072D9F3EC67
:1006880008F0A00E396E1F0E3A6EF4EC05F0020E5B
:10069800261801E03DD54AB002D04A8001D04A90E0
:1006A800010E476E35D5020E366E100EF3EC08F0CB
:1006B8004550300F22EC09F0260406E1452A030EC6
:1006C800451802E1010E456E020E261805E14506A1
:1006D800455002E1020E456E030E261801E018D5BA
:1006E800450415E1050E8AD901EC09F0010E366EB4
:1006F800F3EC08F0BC0E396E1F0E3A6EF4EC05F000
:1007080030D9F3EC08F045D9F4EC05F001D5060E24
:1007180075D901EC09F0010E366EF3EC08F0AF0E56
:10072800396E1F0E3A6EF4EC05F01BD9F3EC08F0A5
:1007380030D9F4EC05F0ECD45AD9F3EC08F02B0ED0
:1007480022EC09F021D950EC08F09BEC08F0300FAE
:1007580022EC09F02E0E22EC09F04CD99BEC08F0A3
:10076800300F22EC09F0260405E1242A0B0E241888
:1007780001E1246A020E261805E12406242802E174
:100788000A0E246E030E261801E0C2D4F9D8F3EC41
:1007980008F00ED9F4EC05F0BBD422D9F3EC08F03C
:1007A8002D0E22EC09F0FAD850EC08F09BEC08F07A
:1007B800300F22EC09F02E0E22EC09F023D99BEC25
:1007C80008F0300F22EC09F0260405E1232A0B0E6D
:1007D800231801E1236A020E261805E123062328BF
:1007E80002E10A0E236E030E261801E091D4010ED1
:1007F800476E24C032F0100EAEEC08F023C032F081
:10080800110EAEEC08F084D42550010A95E0030AD5
:10081800C4E07ED4ECD8F3EC08F02B0E22EC09F0FF
:10082800C2D850EC08F09BEC08F0300F22EC09F02D
:100838002E0E22EC09F0CDD89BEC08F0300F22ECFC
:1008480009F0260405E1222A0B0E221801E1226A8A
:10085800020E261805E12206222802E10A0E226E5F
:10086800030E261801E054D48BD8F3EC08F0A0D876
:10087800F4EC05F04DD4B4D8F3EC08F02D0E22ECCE
:1008880009F09BD850EC08F09BEC08F0300F22ECF4
:1008980009F02E0E22EC09F0A6D89BEC08F0300FD8
:1008A80022EC09F0260405E1212A0B0E211801E1AA
:1008B800216A020E261805E12106212802E10A0E06
:1008C800216E030E261801E023D4010E476E22C0C4
:1008D80032F0120EAEEC08F021C032F0130EAEEC7E
:1008E80008F016D42550010A95E0030AC4E010D494
:1008F8004750010A01E115D4030A01E184D6010A2F
:1009080001E106D4070A01E1CED6010A01E17CD74C
:10091800030AE8E0010A01E1A3D68CEF00F032C037
:1009280039F033C03AF03C6A0A0E3B6E0A0C3C6A56
:100938000A0E3B6E0A0C346E1DC032F01EC033F036
:100948001200346E1BC032F01CC033F012001DC000
:1009580039F01EC03AF012001BC039F01CC03AF042
:100968001200020E366E010C346E17C032F018C039
:1009780033F01200346E19C032F01AC033F012008E
:10098800020E256E366E010C0A0E366E326E24503B
:100998001200E30E396E1F0E3A6E12000A0E366E02
:1009A800326E235012000A0E366E326E225012003A
:1009B800910E396E1F0E3A6E12000A0E366E326EA6
:1009C80021501200476E010E366E010C010E366E74
:1009D800080C0A0E366E22501200010E366E100CEC
:1009E800020E366E0A0C0A0E366E21501200020EE6
:1009F800366E0B0C0A0E366E24501200476E010E2E
:100A0800256E010C0A0E366E2350120080948092D7
:100A18001A0E376EF80EE82EFED7372EFCD700D008
:100A28001A0E376EF80EE82EFED7372EFCD700D0F8
:100A38001A0E376EF80EE82EFED7372EFCD700D0E8
:100A48001A0E376EF80EE82EFED7372EFCD700D0D8
:100A5800030E8DEC06F00D0E376EFC0EE82EFED759
:100A6800372EFCD7030E8DEC06F00D0E376EFC0EFC
:100A7800E82EFED7372EFCD7030E8DEC06F00D0EB0
:100A8800376EFC0EE82EFED7372EFCD7020E8DEC03
:100A980006F00D0E376EFC0EE82EFED7372EFCD76B
:100AA800000E346E280ED2EC08F00D0E376EFC0ED8
:100AB800E82EFED7372EFCD7000E346E0C0ED2EC83
:100AC80008F0150E376EC60EE82EFED7372EFCD767
:100AD80000D001EC09F00D0E376EFC0EE82EFED7A3
:100AE800372EFCD7000E346E060ED2EC08F00D0E31
:100AF800376EFC0EE82EFED7372EFCD701EC09F036
:100B0800808412005BD083EC08F00009D8A412009E
:100B1800CC0E35EC08F0440E35EC08F03A50D96E9E
:100B2800DA6ADF6A3950D96EDA6A020EDF6ECD8072
:100B3800000C3F6A83EC08F0550E35EC08F0406A6B
:100B48003F50080DF350010F4024D96EDA6ADF5088
:100B580035EC08F0402A070E4064F2D7BE0E35EC9B
:100B680008F0406A4050270FD96EDA6A1AEC08F08C
:100B7800DF6E402A080E4064F5D7270E326E090E44
:100B8800336E93EC07F000090CE128503B6E2750B8
:100B98003D6E3BC03EF01DD83DC0DEFF3EC0DDFFD0
:100BA80004D017D8DE687F0EDD6E3F2A010E3F6441
:100BB800C1D73950D96EDA6ADF6A010C3950D96E5B
:100BC800DA6ADF50A0E0010AB4E0030AD8B4000CE6
:100BD80012003F50020DF350110FD96EDA6A12005D
:100BE80046D04FD8D2EC08F0060E3B6E300EE82EF9
:100BF800FED73B2EFCD700D038D0B5EC04F0F3EC90
:100C080008F033D0000E346E100ED2EC08F02DD060
:100C180039C0F6FF3AC0F7FFC00E0800F56006D0ED
:100C2800010E346E27D8D2EC08F01FD0010E346EB6
:100C3800400E3B6E3C681ED83D6E3E6A3B503D26DA
:100C48003C503E22DB0E3D24F66E1E0E3E20F76E13
:100C58000800F550D2EC08F008D00CD8080AD2E009
:100C6800020ACBE0060ABDE0D3D7394A3A2A02D8AD
:100C7800F4E1120039C0F6FF3AC0F7FF0800F5505A
:100C88001200000E346E010C346E3450020DF35015
:100C98000F0FD96EDA6ADECF36F0DDCF37F032507B
:100CA800D96EDA6A2B0EDF6E362808E17F0E371808
:100CB80005E136C032F037C033F0120037AE09D044
:100CC800366C371ED8B0372A3250D96EDA6A2D0EF4
:100CD800DF6E36500F0B356E1B0E3524F66EF76A35
:100CE8001F0EF7220800F5CF35F0363A373A0F0EC7
:100CF80036163750F00B36120F0E371636500A0DCF
:100D0800F3CF36F0F4CF37F035503626000E3722C1
:100D1800D0D7336E33A003D0326A322A01D0326A78
:100D280082503218FE0B3218826E33A203D0326A18
:100D3800322A01D0326A324682503218FD0B3218FC
:100D4800826E33A403D0326A322A01D0326A19D8AB
:100D5800FB0B3218826E33A603D0326A322A01D0D6
:100D6800326A32460ED8F70B3218826E8082420EF3
:100D7800E82EFED700D08092420EE82EFED700D093
:100D880012003246324682503218120083EC08F0C4
:100D980000090FE1CC0E35EC08F04E0E35EC08F0EA
:100DA800000E35EC08F0000E35EC08F07F0E35EC3F
:100DB80008F03A6A3B6A3A50080DF350010F3B2499
:100DC800D96EDA6A3A50386E396AD8903836393678
:100DD800D89038363936D890383639363B5038249A
:100DE800326E000E3920336E19EC09F0DF6E3B2AA3
:100DF800070E3B64E0D73A2A010E3A64DBD7010CB0
:100E0800416E83EC08F000090CE1330E35EC08F074
:100E1800426A25D81AEC08F0DF6E422A070E4264AF
:100E2800F8D7390E326E080E336E93EC07F00009CE
:100E380015E1426A14D8DF50326E4150080DF35064
:100E48004224F80FAEEC08F0422A070E4264F2D7AB
:100E5800336A0A0E326EC0EC08F0010C000C4250E6
:100E6800390FD96EDA6A1200806A896A926A816AD1
:100E78008A6A060E936E826A8B6A946AD390D382CA
:100E8800700ED3120F0EC112808CCAEC06F0800EC1
:100E9800CD6E3C0ECF6EB00ECE6EF80ED516D58642
:100EA800D59CD59AD58EB10ED76EE00ED66EF28A45
:100EB800F19E9D80F28CF28E0AEC05F02B0E366EB8
:100EC8001F0E376E010E386E6AEC08F08B98120010
:100ED80081A281B402D0030E07D081B202D0010EE4
:100EE80003D081B403D0020E326E01D0326A325080
:100EF80013E02D0E155C010E165807E3010E166E51
:100F0800220E156E32C01FF01200154A162A0F0E57
:100F180015181610F7E01200156A166A1200386ADA
:100F2800376A1DD032503724D96EDA6ADF50356EF1
:100F3800080E346E38503518010B366E360402E14F
:100F4800180E381AD89038307F0B386E360401E105
:100F5800388ED890353234063450ECE1372A335085
:100F68003718E0E138501200366A376A34503510C5
:100F78001BE0010E386E04D0D89034363536382A46
:100F880035AEFAD7D890363637363450325C3550CD
:100F9800335805E33450325E3550335A3680D89092
:100FA80035323432382EEED736C032F037C033F00F
:100FB80012003B503C1017E0010E3D6E04D0D89053
:100FC8003B363C363D2A3CAEFAD73B50395C3C5068
:100FD8003A5804E33B50395E3C503A5AD8903C3278
:100FE8003B323D2EF2D739C039F03AC03AF0120000
:100FF8005A0EF66E120EF76E000EF86E00EE45F001
:1010080010EE05F00900F5CFEEFFE550E150FAE1EA
:101018004A6A00EE01F0310EEE6AE806FDE14B90F7
:101028004B92000EF86E00012FEF00F0346A356A1B
:101038000EEC09F000090CE035C032F0010E336EF9
:10104800322A02D0D8903336322EFCD7335034129D
:10105800500EE82EFED7352A070E3564E9D73450EE
:101068001200356E376A37C033F035C034F0332A92
:1010780002D0D8903432332EFCD73450366E010E5D
:1010880036163650E4EC08F0372A070E3764EBD7EB
:10109800460EE82EFED71200336E356A325014E041
:1010A800010E346E03D0D8903236342A32AEFBD7D4
:1010B800D89035363250335C03E33250335E358096
:1010C800D8903232342EF4D735501200346A385062
:1010D800080DF3504009D2EC08F0396A010E346E5D
:1010E80036C0F6FF37C0F7FF0800F550D2EC08F01D
:1010F800364A372A392A070E3964F0D7070C809CFC
:10110800929CC80E00D0E82EFDD7808C928C420E9F
:10111800E82EFED700D0000E80BC010E326EA90E5C
:1011280000D0E82EFDD700D000F032501200376E04
:10113800080E386E396AD89037343934396ED890F9
:1011480037363650395C02E33650395E382EF3D7DD
:1011580039501200336EA6B2FED733C0A9FF32C091
:10116800A8FFA69EA69CA684F29E550EA76EAA0E60
:10117800A76EA682F28EAA0C356A366A09D0030ECB
:10118800346E980EE82EFED7342EFCD7354A362A10
:101198003550325C36503358F2E21200356E345016
:1011A80002E1809401D08084420EE82EFED700D060
:1011B80035380F0B8DEC06F035500F0B8DEF06F020
:1011C800326E809C929C320404E100D000D0808C66
:1011D800928C460EE82EFED7808C928C1200376EC9
:1011E800360403E0400E386E01D0386A37043826DA
:1011F800346A38508009D2EF08F045EC06F0D2EC9A
:1012080008F0060E366E300EE82EFED7362EFCD7C6
:1012180000D01200809C929C00D0808C928C040E8E
:10122800E82EFED780BC010C000CA6B2FED732C057
:10123800A9FFA69EA69CA680A8501200366E010E95
:10124800346E3650D2EF08F01FC032F01F6A3250A9
:0712580012000101012B2B24
:101EDA000041A042A1E045A3A4A5A64BA74D484FA7
:101EEA00A8504354A9AA58E1ABACE2ADAE62AFB078
:101EFA00B161B2B3B4E365B6B7B8B9BABBBCBD6F2A
:101F0A00BE7063BF79E478E5C0C1E6C2C3C4C5C682
:101F1A00C7000101020203040405060607070809AF
:101F2A0009060909060000000020CAEEE420EFF0C5
:101F3A00EEF7E8F2E0EDEE20002D2D2DD2C5D0CC43
:101F4A00CECCC5D2D02D2D2D002863294976616EBD
:101F5A005F66642076312E3000C4E0F2F7E8EA20AA
:101F6A00312C20E0E1EE20320020CFEEF069E320B0
:101F7A0020D1E8E3EDE0EB002020C369F1F2E5F0BF
:101F8A00E5E7E8F1202000D2E5ECEF20CDE8E73ADA
:101F9A00202020202000CAEEEB2831292FC3EEEBA7
:101FAA002832293A0020202020C3EEEBEEE2E0207E
:101FBA00200020202020CAEEEBEEEDE0202000C217
:101FCA00E8E169F02031384232303A0020204F4BA4
:101FDA00202020202020555000D2E5ECEF20C2E539
:101FEA00F0F53A00C3EEEBEEE2E03A00CAEEEBEEB1
:051FFA00EDE03A0000DB
:020000040020DA
:08000000FFFFFFFFFFFFFFFF00
:020000040030CA
:0E000000FF080A1EFF8181FF0FC00FE00F40B6
:00000001FF
