:020000040000FA
:040000004DEF00F0D0
:0600080068820EEF0CF00F
:100018006880D8CF42F0E8CF43F0E0CF44F0F2A4B4
:1000280030D0F294B10ED76EE00ED66E6782362AC3
:1000380067A026D02F2A66AC0AD00B0E2F6002D0FC
:100048008B8801D08B98500E2F6401D02F6A66AA36
:100058000AD0100E2F6002D08B8801D08B98320EF8
:100068002F6401D02F6A66A80CD00B0E2F6002D027
:100078008B8801D08B98190E2F6403D02F6A01D07A
:100088008B9844C0E0FF43C0E8FF42C0D8FF6890A7
:100098001000EEEF0AF0D4EC09F0010E496E3EECC8
:1000A8000CF00B0E4C6E1F0E4D6EFEEC08F0C3EC00
:1000B80007F03EEC0CF03B0E4C6E1F0E4D6EFEEC46
:1000C80008F0070E466ED00E456EEAEC0BF05AECBF
:1000D8000CF081B217D05AEC0CF0020ED2EC07F0FB
:1000E8003EEC0CF01B0E4C6E1F0E4D6EFEEC08F035
:1000F800C3EC07F03EEC0CF0B00E4C6E1F0E4D6ECC
:10010800FEEC08F0466A100E456E72EC0CF0336E89
:10011800466A110E456E72EC0CF0326E466A130E8A
:10012800456E72EC0CF0566E466A120E456E72EC15
:100138000CF0576E5650296E57C02AF0466A150EB5
:10014800456E72EC0CF0566E466A140E456E72ECF3
:100158000CF0576E5650276E57C028F067A203D090
:100168007DEC0AF0679288EC0CF0356E77EF07F0BB
:10017800400E4C6E410E4D6E90EC08F0000927E0E1
:100188005FC05BF060C05CF05DC059F05EC05AF0C3
:10019800650E456E010E52EC09F045C05FF046C091
:1001A80060F0640E456E020E52EC09F045C05DF039
:1001B80046C05EF05B505F1809E15C50601806E1CC
:1001C80059505D1803E15A505E1801E0678467A42E
:1001D80098D367945F2803E17F0E601839E0EEEC4E
:1001E80007F01FEC0CF0C0EC07F0A1EC07F0C9EC2D
:1001F8000AF093EC07F00DEC0BF04C50300FADEC1F
:100208000BF0486A640EA1EC07F0C9EC0AF093EC15
:1002180007F00DEC0BF04C50300FADEC0BF0486ACA
:100228000A0EA1EC07F0C9EC0AF093EC07F00DEC0C
:100238000BF04C50300FADEC0BF0B6EC07F0A7EC20
:1002480007F00DEC0BF04C50300FADEC0BF00AD072
:10025800EEEC07F01FEC0CF0F10E466E1F0E476E29
:100268001FEC0CF05D2803E17F0E5E183FE0D6EC32
:1002780007F01FEC0CF0C0EC07F09BEC07F0C9ECA2
:100288000AF093EC07F00DEC0BF04C50300FADEC8E
:100298000BF0486A640E9BEC07F0C9EC0AF093EC8B
:1002A80007F00DEC0BF04C50300FADEC0BF0486A3A
:1002B8000A0E9BEC07F0C9EC0AF093EC07F00DEC82
:1002C8000BF04C50300FADEC0BF0BBEC07F0A7EC8B
:1002D80007F00DEC0BF04C50300FADEC0BF0E70EC7
:1002E800466E1F0E476E1FEC0CF00BD3D6EC07F0D2
:1002F8001FEC0CF0E30E466E1F0E476E1FEC0CF061
:1003080000D3010E496E3EEC0CF0DB0E4C6E1F0E56
:100318004D6EFEEC08F05F2804E17F0E601801E1E5
:10032800BCD0C0EC07F0A1EC07F0C9EC0AF093ECE4
:1003380007F00DEC0BF04C504D106EE1486A640E5E
:10034800A1EC07F0C9EC0AF093EC07F00DEC0BF008
:100358004C504D102BE1655082EC0CF0486A0A0EA7
:10036800A1EC07F0C9EC0AF093EC07F00DEC0BF0E8
:100378004C50300F82EC0CF02E0E82EC0CF0B6ECE8
:1003880007F0A7EC07F00DEC0BF04C50300F82ECA7
:100398000CF0010E82EC0CF0200E82EC0CF0200E1A
:1003A80082EC0CF0200E82EC0CF08CD0655082ECC4
:1003B8000CF0486A640EA1EC07F0C9EC0AF093EC63
:1003C80007F00DEC0BF04C50300F82EC0CF0486A43
:1003D8000A0EA1EC07F0C9EC0AF093EC07F00DEC5B
:1003E8000BF04C50300F82EC0CF02E0E82EC0CF01F
:1003F800B6EC07F0A7EC07F00DEC0BF04C50300F03
:1004080082EC0CF0010E82EC0CF0200E82EC0CF069
:10041800200E82EC0CF056D0655082EC0CF0C0EC4B
:1004280007F0A1EC07F0C9EC0AF093EC07F00DEC2B
:100438000BF04C50300F82EC0CF0486A640EA1ECC3
:1004480007F0C9EC0AF093EC07F00DEC0BF04C50F8
:10045800300F82EC0CF0486A0A0EA1EC07F0C9ECE8
:100468000AF093EC07F00DEC0BF04C50300F82ECD7
:100478000CF02E0E82EC0CF0B6EC07F0A7EC07F0AF
:100488000DEC0BF04C50300F82EC0CF0010E82ECAE
:100498000CF0200E82EC0CF015D02D0E82EC0CF036
:1004A8002D0E82EC0CF02D0E82EC0CF0200E82EC5E
:1004B8000CF0200E82EC0CF0200E82EC0CF0200EDA
:1004C80082EC0CF007EC08F03EEC0CF066A204D0CD
:1004D800ED0E82EC0CF003D0D50E82EC0CF0C3ECE0
:1004E80007F03EEC0CF0CE0E82EC0CF0486A640E7D
:1004F800C6EC07F0C9EC0AF093EC07F00DEC0BF032
:100508004C50300F82EC0CF0486A0A0EC6EC07F02B
:10051800C9EC0AF093EC07F00DEC0BF04C50300FDF
:1005280082EC0CF02E0E82EC0CF027C04CF028C0A8
:100538004DF0A7EC07F00DEC0BF04C50300F82ECAF
:100548000CF0010E82EC0CF0200E82EC0CF0D90EAF
:1005580082EC0CF0DFEC07F062EC0BF0C5EC0BF072
:10056800300F82EC0CF02E0E82EC0CF0F3EC07F05E
:10057800C5EC0BF0300F82EC0CF0200E82EC0CF086
:10058800DA0E82EC0CF0E9EC07F062EC0BF0C5EC4B
:100598000BF0300F82EC0CF02E0E82EC0CF003EC1A
:1005A80008F0C5EC0BF0300F82EC0CF0B1D1010E65
:1005B800496E3EEC0CF0D30E4C6E1F0E4D6EFEECE9
:1005C80008F05D2804E17F0E5E1801E1BCD0C0ECA4
:1005D80007F09BEC07F0C9EC0AF093EC07F00DEC80
:1005E8000BF04C504D106EE1486A640E9BEC07F01E
:1005F800C9EC0AF093EC07F00DEC0BF04C504D10E1
:100608002BE1645082EC0CF0486A0A0E9BEC07F070
:10061800C9EC0AF093EC07F00DEC0BF04C50300FDE
:1006280082EC0CF02E0E82EC0CF0BBEC07F0A7EC81
:1006380007F00DEC0BF04C50300F82EC0CF0010E73
:1006480082EC0CF0200E82EC0CF0200E82EC0CF008
:10065800200E82EC0CF08CD0645082EC0CF0486ACE
:10066800640E9BEC07F0C9EC0AF093EC07F00DEC74
:100678000BF04C50300F82EC0CF0486A0A0E9BECE1
:1006880007F0C9EC0AF093EC07F00DEC0BF04C50B6
:10069800300F82EC0CF02E0E82EC0CF0BBEC07F065
:1006A800A7EC07F00DEC0BF04C50300F82EC0CF07F
:1006B800010E82EC0CF0200E82EC0CF0200E82EC85
:1006C8000CF056D0645082EC0CF0C0EC07F09BECB8
:1006D80007F0C9EC0AF093EC07F00DEC0BF04C5066
:1006E800300F82EC0CF0486A640E9BEC07F0C9EC02
:1006F8000AF093EC07F00DEC0BF04C50300F82EC45
:100708000CF0486A0A0E9BEC07F0C9EC0AF093EC6F
:1007180007F00DEC0BF04C50300F82EC0CF02E0E65
:1007280082EC0CF0BBEC07F0A7EC07F00DEC0BF03B
:100738004C50300F82EC0CF0010E82EC0CF0200EC5
:1007480082EC0CF015D02D0E82EC0CF02D0E82EC04
:100758000CF02D0E82EC0CF0200E82EC0CF0200E2A
:1007680082EC0CF0200E82EC0CF0200E82EC0CF0E7
:1007780007EC08F03EEC0CF066A004D0ED0E82EC1D
:100788000CF003D0D50E82EC0CF0F9DB3EEC0CF04B
:10079800EA0E4C6E1F0E4D6EFEEC08F02B0E82EC2E
:1007A8000CF0EADBD4DBC9EC0AF0B9DB0DEC0BF09A
:1007B8004C504D103BE0E0DBCADBC9EC0AF0AFDB84
:1007C8000DEC0BF04C50300F82EC0CF0486A640EC4
:1007D800BEDBC9EC0AF0A3DB0DEC0BF04C50300F7C
:1007E80082EC0CF0486A0A0EB2DBC9EC0AF097DB1F
:1007F8000DEC0BF04C50300F82EC0CF02E0E82EC0E
:100808000CF0ABDBA0DB0DEC0BF04C50300F82ECA6
:100818000CF0010E82EC0CF0200E82EC0CF0200E95
:1008280082EC0CF0200E82EC0CF072D0486A640E58
:100838008EDBC9EC0AF073DB0DEC0BF04C504D105D
:1008480033E0486A640E83DBC9EC0AF068DB0DEC20
:100858000BF04C50300F82EC0CF0486A0A0E77DB34
:10086800C9EC0AF05CDB0DEC0BF04C50300F82EC5D
:100878000CF02E0E82EC0CF070DB65DB0DEC0BF04F
:100888004C50300F82EC0CF0010E82EC0CF0200E74
:1008980082EC0CF0200E82EC0CF0200E82EC0CF0B6
:1008A800200E82EC0CF034D0486A0A0E50DBC9ECFA
:1008B8000AF035DB0DEC0BF04C50300F82EC0CF0ED
:1008C8002E0E82EC0CF049DB3EDB0DEC0BF04C50AD
:1008D800300F82EC0CF0010E82EC0CF0200E82EC52
:1008E8000CF0200E82EC0CF0200E82EC0CF0200EA6
:1008F80082EC0CF0200E82EC0CF0200E82EC0CF056
:1009080007D06250010A01E1FCD4030A01E14FD685
:1009180066AE90D066A21DD033502724566E000EC6
:100928002820576E56505F5C575060580BE2325083
:10093800275C566E000E2858576E5F50565C605004
:10094800575807E35F2803E17F0E601802E06686C8
:1009580001D0669666A00CD029505D5C2A505E587E
:1009680007E35D2803E17F0E5E1802E0668401D08C
:10097800669466B666A41ED06780669C669A66888A
:10098800630E366459D0366A410EADEC0BF06C0E2E
:10099800ADEC0BF0720EADEC0BF05F0EADEC0BF0A6
:1009A800410EADEC0BF00D0EADEC0BF00A0EADECFC
:1009B8000BF042D066A41ED06780669C6698668A53
:1009C800630E366439D0366A410EADEC0BF06C0E0E
:1009D800ADEC0BF0720EADEC0BF05F0EADEC0BF066
:1009E800420EADEC0BF00D0EADEC0BF00A0EADECBB
:1009F8000BF022D066A61FD06780668C6698669A30
:100A0800630E366419D0366A410EADEC0BF06C0EED
:100A1800ADEC0BF0720EADEC0BF05F0EADEC0BF025
:100A28004B0EADEC0BF00D0EADEC0BF00A0EADEC71
:100A38000BF002D08B986790350415E15AEC0CF056
:100A4800070EACDA3EEC0CF04B0E4C6E1F0E4D6EE2
:100A5800FEEC08F094DA3EEC0CF02B0E4C6E1F0EF8
:100A68004D6EFEEC08F0020E351805E16204020E28
:100A7800D8A4010E626E030E351811E0B2EF00F033
:100A88005FC027F060C028F028C045F0140ED8ECED
:100A98000BF027C045F0150ED8EC0BF004D06250CF
:100AA800010AEEE0030AA7DAEAEC0BF0B2EF00F075
:100AB800020E496E0E0E3EEC0CF06150300F82ECC7
:100AC8000CF0350406E1612A030E611802E1010EFB
:100AD800616E020E351805E16106615002E1020EF1
:100AE800616E030E351802E0B2EF00F061504AEC77
:100AF8000AF0000909E043DA3EEC0CF0EB0E4C6E0C
:100B08001E0E4D6EFEEC08F0030E39D0350415E1CB
:100B18005AEC0CF0040E42DA3EEC0CF0880E4C6EE7
:100B28001F0E4D6EFEEC08F02ADA3EEC0CF0790E42
:100B38004C6E1F0E4D6EFEEC08F0020E35180CE1DF
:100B48005AEC0CF0080E2ADA3EEC0CF05B0E4C6EF8
:100B58001F0E4D6EFEEC08F0030E351802E0B2EFE2
:100B680000F08BBA03D0566A562A01D0566A563A14
:100B780056468B505618DF0B56188B6E010E636E57
:100B8800B2EF00F0020E496E040E3EEC0CF066A2C5
:100B980004D0ED0E82EC0CF003D0D50E82EC0CF0F4
:100BA800020E496E0D0E3EEC0CF066A004D0ED0E60
:100BB80082EC0CF003D0D50E82EC0CF0350405E184
:100BC80066B202D0668201D06692020E351805E13F
:100BD80066B002D0668001D06690030E351802E038
:100BE800B2EF00F066A266B002D0669EC7D7668EE6
:100BF800C5D7020E496E100E3EEC0CF06150300F56
:100C080082EC0CF0350406E1612A030E611802E15A
:100C1800010E616E020E351805E16106615002E1B0
:100C2800020E616E030E351802E0B2EF00F06104A7
:100C380019E1050ED8D95AEC0CF0010E496E3EECBC
:100C48000CF0A30E4C6E1F0E4D6EFEEC08F097D9FB
:100C58003EEC0CF0BD0E4C6E1F0E4D6EFEEC08F017
:100C6800B2EF00F0060EBFD95AEC0CF0010E496E37
:100C78003EEC0CF0960E4C6E1F0E4D6EFEEC08F01E
:100C88007ED93EEC0CF0C80E4C6E1F0E4D6EFEEC7D
:100C980008F029C045F02AC046F0486A0A0E476E97
:100CA800C9EC0AF04550316E58D94DD90DEC0BF00E
:100CB8004C50306EB2EF00F0ACD93EEC0CF02B0E7D
:100CC80082EC0CF078D962EC0BF0C5EC0BF0300F2D
:100CD80082EC0CF02E0E82EC0CF081D9C5EC0BF0F6
:100CE800300F82EC0CF0350405E1332A0B0E331873
:100CF80001E1336A020E351805E13306332802E1B3
:100D08000A0E336E030E351802E0B2EF00F04FD929
:100D18003EEC0CF06A0E4C6E1F0E4D6EFEEC08F0A9
:100D2800B2EF00F073D93EEC0CF02D0E82EC0CF013
:100D38004CD962EC0BF0C5EC0BF0300F82EC0CF0E8
:100D48002E0E82EC0CF05BD9C5EC0BF0300F82EC68
:100D58000CF0350405E1322A0B0E321801E1326A33
:100D6800020E351805E13206322802E10A0E326E0B
:100D7800030E351802E0B2EF00F0010E636E33C0C7
:100D880045F0100ED8EC0BF032C045F0110ED8EC3F
:100D98000BF0B2EF00F03450010A8EE0030AC2E013
:100DA800B2EF00F036D93EEC0CF02B0E82EC0CF0D2
:100DB800EFD862EC0BF0C5EC0BF0300F82EC0CF0C6
:100DC800FFD862EC0BF0C5EC0BF0300F82EC0CF0A6
:100DD8000ED9C5EC0BF0300F82EC0CF02E0E82EC25
:100DE8000CF01AD9C5EC0BF0300F82EC0CF035047E
:100DF80005E1312A680E316401D0316A020E3518D6
:100E080005E13106312802E1690E316E030E35180D
:100E180002E0B2EF00F0CBD83EEC0CF0FB0E4C6ECB
:100E28001E0E4D6EFEEC08F0B2EF00F0EFD83EEC6F
:100E38000CF02B0E82EC0CF0ABD862EC0BF0C5EC8E
:100E48000BF0300F82EC0CF0BBD862EC0BF0C5EC69
:100E58000BF0300F82EC0CF0CAD8C5EC0BF0300F59
:100E680082EC0CF02E0E82EC0CF0D6D8C5EC0BF010
:100E7800300F82EC0CF0200E82EC0CF0350405E10A
:100E8800302A0A0E301801E1306A020E351805E1E1
:100E98003006302802E1090E306E030E351802E0E4
:100EA800B2EF00F0010E636E31500A0DF3CF56F029
:100EB800F4CF57F030505624296E000E57202A6E72
:100EC8002AC045F0120ED8EC0BF029C045F0130EDD
:100ED800D8EC0BF0E8D53450010A01E163D7030AD6
:100EE800A5E0B2EF00F06350010A02E1BCEF00F0A8
:100EF800030A01E1DDD5010A02E1B2EF00F0070AB9
:100F080001E177D6010A01E146D7030AE4E0010AC4
:100F180001E1FCD50F0A01E135D6B2EF00F045C07A
:100F28004CF046C04DF04F6A0A0E4E6E0A0C476EE2
:100F38005DC045F05EC046F01200476E5FC045F0E8
:100F480060C046F012004F6A0A0E4E6E0A0C476ED9
:100F580029C045F02AC046F0120029C04CF02AC02A
:100F68004DF012005FC04CF060C04DF012005DC043
:100F78004CF05EC04DF01200030E486EE80C020EF5
:100F8800496E010C476E27C045F028C046F0120094
:100F98000A0E496E640E456E31501200636E010EE2
:100FA800496E010CF60E466E1F0E476E1200020EB9
:100FB800346E496E010C0A0E496E456E33501200AC
:100FC8000A0E496E456E315012000A0E496E456E82
:100FD80032501200FA0E466E1F0E476E12000A0EAD
:100FE800496E33501200636E010E346E010C0A0E06
:100FF800496E31501200466A0A0E456E0A0C0A0EF6
:10100800496E32501200010E496E100C020E496EE4
:101018000A0C020E496E0B0C0A0E496E3050120073
:10102800899489921A0E4A6EF80EE82EFED74A2E37
:10103800FCD700D01A0E4A6EF80EE82EFED74A2EBC
:10104800FCD700D01A0E4A6EF80EE82EFED74A2EAC
:10105800FCD700D01A0E4A6EF80EE82EFED74A2E9C
:10106800FCD700D0030E97EC09F00D0E4A6EFC0E6B
:10107800E82EFED74A2EFCD7030E97EC09F00D0E8A
:101088004A6EFC0EE82EFED74A2EFCD7030E97ECCC
:1010980009F00D0E4A6EFC0EE82EFED74A2EFCD73C
:1010A800020E97EC09F00D0E4A6EFC0EE82EFED7E4
:1010B8004A2EFCD7000E476E280EFCEC0BF00D0EE6
:1010C8004A6EFC0EE82EFED74A2EFCD7000E476E5D
:1010D8000C0EFCEC0BF0150E4A6EC60EE82EFED771
:1010E8004A2EFCD700D05AEC0CF00D0E4A6EFC0EBE
:1010F800E82EFED74A2EFCD7000E476E060EFCECF3
:101108000BF00D0E4A6EFC0EE82EFED74A2EFCD7C9
:101118005AEC0CF0898412005DD095EC0BF00009B4
:10112800D8A4000CCC0E47EC0BF0440E47EC0BF0A7
:101138004D50D96EDA6ADF6A4C50D96EDA6A020EFF
:10114800DF6ECD80000C526AF29E95EC0BF0550EC6
:1011580047EC0BF0536A5250080DF350110F53240B
:10116800D96EDA6ADF5047EC0BF0532A070E536446
:10117800F2D7BE0E47EC0BF0536A5350370FD96EB7
:10118800DA6A2CEC0BF0DF6E532A080E5364F5D79D
:10119800370E456E090E466EA4EC0AF000090CE104
:1011A80038504E6E3750506E4EC051F01CD850C05B
:1011B800DEFF51C0DDFF04D016D8DE687F0EDD6E7D
:1011C800F28E522A010E5264BFD74C50D96EDA6A99
:1011D800DF6A010C4C50D96EDA6ADF509EE0010AD2
:1011E800B2E0030A000C5250020DF350210FD96EE1
:1011F800DA6A120046D04FD8FCEC0BF0060E4E6EA1
:10120800300EE82EFED74E2EFCD700D038D0C3ECD7
:1012180007F03EEC0CF033D0000E476E100EFCECDD
:101228000BF02DD04CC0F6FF4DC0F7FFC00E0800E4
:10123800F56006D0010E476E27D8FCEC0BF01FD0E6
:10124800010E476E400E4E6E4F681ED8506E516AA2
:101258004E5050264F505122930E5024F66E1E0EBB
:101268005120F76E0800F550FCEC0BF008D00CD8B4
:10127800080AD2E0020ACBE0060ABDE0D3D74C4AFE
:101288004D2A02D8F4E112004CC0F6FF4DC0F7FF1A
:101298000800F5501200000E476E010C476E4750CB
:1012A800020DF3501F0FD96EDA6ADECF49F0DDCF99
:1012B8004AF04550D96EDA6A2B0EDF6E492808E1EC
:1012C8007F0E4A1805E149C045F04AC046F01200B1
:1012D8004AAE09D0496C4A1ED8B04A2A4550D96E40
:1012E800DA6A2D0EDF6E49500F0B486ED30E482474
:1012F800F66EF76A1E0EF7220800F5CF48F0493A55
:101308004A3A0F0E49164A50F00B49120F0E4A1668
:1013180049500A0DF3CF49F0F4CF4AF04850492616
:10132800000E4A22D0D7466E46A003D0456A452A09
:1013380001D0456A8B504518FE0B45188B6E46A2A6
:1013480003D0456A452A01D0456A45468B50451861
:10135800FD0B45188B6E46A403D0456A452A01D07B
:10136800456A19D8FB0B45188B6E46A603D0456A0B
:10137800452A01D0456A45460ED8F70B45188B6EAD
:101388008982420EE82EFED700D08992420EE82EBE
:10139800FED700D01200454645468B50451812002E
:1013A800806A896A926A816A8A6A060E936E826A7C
:1013B8008B6A946AD390D382700ED3120F0EC11227
:1013C800808C10EC0AF0800ECD6E3C0ECF6EB00E05
:1013D800CE6E9F80F80ED516D586D59CD59AD58E1B
:1013E800B10ED76EE00ED66EF28AF194F19E9D8012
:1013F800D08EF28CF28E14EC08F04CEC0CF0E30E6C
:10140800496E1E0E4A6E010E4B6E7CEC0BF08B98EB
:10141800669C669A6698120095EC0BF000090FE13D
:10142800CC0E47EC0BF04E0E47EC0BF0000E47ECE1
:101438000BF0000E47EC0BF07F0E47EC0BF04D6AFB
:101448004E6A4D50080DF350110F4E24D96EDA6ACA
:101458004D504B6E4C6AD8904B364C36D8904B3624
:101468004C36D8904B364C364E504B24456E000EB9
:101478004C20466E72EC0CF0DF6E4E2A070E4E645E
:10148800E0D74D2A010E4D64DBD7010C546E95EC64
:101498000BF000090CE1330E47EC0BF0556A24D829
:1014A8002CEC0BF0DF6E552A070E5564F8D74C0E5E
:1014B800456E080E466EA4EC0AF0000914E1556A60
:1014C80013D8DF50456E5450080DF3505524F80FCB
:1014D800D8EC0BF0552A070E5564F2D7FFEC07F04D
:1014E800EAEC0BF0010C000C55504C0FD96EDA6A7F
:1014F800120081A281B402D0030E07D081B202D0BB
:10150800010E03D081B403D0020E456E01D0456AA6
:10151800455013E02D0E255C010E265807E3010EF9
:10152800266E220E256E45C02EF01200254A262A68
:101538000F0E25182610F7E01200256A266A1200F9
:101548004B6A4A6A1DD045504A24D96EDA6ADF5080
:10155800486E080E476E4B504818010B496E4904F7
:1015680002E1180E4B1AD8904B307F0B4B6E490492
:1015780001E14B8ED890483247064750ECE14A2AA1
:1015880046504A18E0E14B501200496A4A6A4750EF
:1015980048101BE0010E4B6E04D0D89047364836F1
:1015A8004B2A48AEFAD7D89049364A364750455C58
:1015B8004850465805E34750455E4850465A4980CA
:1015C800D890483247324B2EEED749C045F04AC032
:1015D80046F01200F60EF66E180EF76E000EF86E54
:1015E80000EE59F010EE0DF00900F5CFEEFFE550D2
:1015F800E150FAE1676A666A00EE01F0410EEE6AB0
:10160800E806FDE168906892000EF86E00014FEF61
:1016180000F04E504F1017E0010E506E04D0D890D5
:101628004E364F36502A4FAEFAD74E504C5C4F507C
:101638004D5804E34E504C5E4F504D5AD8904F329F
:101648004E32502EF2D74CC04CF04DC04DF0120027
:10165800476A486A67EC0CF000090CE048C045F09E
:10166800010E466E452A02D0D8904636452EFCD744
:1016780046504712500EE82EFED7482A070E4864F7
:10168800E9D747501200486E4A6A4AC046F048C037
:1016980047F0462A02D0D8904732462EFCD747500A
:1016A800496E010E491649502FEC0CF04A2A070ED4
:1016B8004A64EBD7460EE82EFED71200466E486AFB
:1016C800455014E0010E476E03D0D8904536472A9E
:1016D80045AEFBD7D89048364550465C03E34550A5
:1016E800465E4880D8904532472EF4D748501200BD
:1016F800476A4B50080DF3504009FCEC0BF04C6A5C
:10170800010E476E49C0F6FF4AC0F7FF0800F550C2
:10171800FCEC0BF0494A4A2A4C2A070E4C64F0D7D5
:10172800070C809C929CC80E00D0E82EFDD7808CB8
:10173800928C420EE82EFED700D0000E80BC010E1F
:10174800456EA90E00D0E82EFDD700D000F0455018
:101758001200456E2C50FEE09DB805D09EA8FED71D
:1017680045C0ADFF12009D982D50010FD96EDA6A61
:1017780045C0DFFF2D2A0F0E2D6401D02D6A2C06DF
:1017880012004A6E080E4B6E4C6AD8904A344C349C
:101798004C6ED8904A3649504C5C02E349504C5E36
:1017A8004B2EF3D74C501200466EA6B2FED746C059
:1017B800A9FF45C0A8FFA69EA69CA684F29E550E2A
:1017C800A76EAA0EA76EA682F28EAA0C486A496A6C
:1017D80009D0030E476E980EE82EFED7472EFCD789
:1017E800484A492A4850455C49504658F2E2120096
:1017F800486E475002E1899401D08984420EE82E50
:10180800FED700D048380F0B97EC09F048500F0B63
:1018180097EF09F09EA00DD09E903C0ECF6EB00EB3
:10182800CE6E412A1D0E416404D0416A010E406EFD
:10183800CD906892110005D007D8ADEC0BF0464A60
:10184800472A02D8F9E1120046C0F6FF47C0F7FF61
:101858000800F5501200456E809C929C450404E1F6
:1018680000D000D0808C928C460EE82EFED7808C5B
:10187800928C12004A6E490403E0400E4B6E01D070
:101888004B6A4A044B26476A4B508009FCEF0BF021
:10189800949C948EAC98AC8AAB88AB8EAC84330E97
:1018A800AF6E2D6A100E2C6E2B6A12004FEC09F0E9
:1018B800FCEC0BF0060E496E300EE82EFED7492ED2
:1018C800FCD700D01200809C929C00D0808C928C17
:1018D800040EE82EFED780BC010C000CA6B2FED781
:1018E80045C0A9FFA69EA69CA680A8501200FF7F0F
:0B18F800FF7FFF7FFF7F0101012B2B12
:10190400496E010E476E4950FCEF0BF02EC045F0B6
:061914002E6A455012008E
:101E92000041A042A1E045A3A4A5A64BA74D484FEF
:101EA200A8504354A9AA58E1ABACE2ADAE62AFB0C0
:101EB200B161B2B3B4E365B6B7B8B9BABBBCBD6F72
:101EC200BE7063BF79E478E5C0C1E6C2C3C4C5C6CB
:101ED200C7000101020203040405060607070809F8
:101EE20009060909060000000020CAEEE420EFF00E
:101EF200EEF7E8F2E0EDEE2000D2E5ECEF20E4F0C0
:101F0200E13A202020202020002D2D2DD2C5D0CC3A
:101F1200CECCC5D2D02D2D2D00C4E0F2F7E8EA20B8
:101F2200312C20E0E1EE2032002020312020202040
:101F32002032202020312D32002863294976616E1B
:101F42005F66642076312E3400CFEEF069E320D153
:101F5200E8E3ED2E204C65640020CAEEEBEEEDE0E6
:101F620020202020CAF3E100D2E5ECEF20CDE8E703
:101F72003A202020202000CAEEEB2831292FCAF374
:101F8200E12832293A00202020C3F0E0EDE8F6698A
:101F92002020200020202020CAF3E1EEE2E02020D1
:101FA2000020202020CAEEEBEEEDE0202000C2E867
:101FB200E169F02031384232303A00D2E5ECEF20CC
:101FC200C2E5F0F53A00D2E5ECEF20F669EB693AAA
:101FD20000CAF3E1EEE2E03A00CAEEEBEEEDE03ADF
:101FE20000303030300D0A00CFEEF069E33A0030B5
:0D1FF2003030300074623A00746B3A000029
:020000040020DA
:08000000FFFFFFFFFFFFFFFF00
:020000040030CA
:0E000000FF080A1EFF8181FF0FC00FE00F40B6
:00000001FF
