:040000004DEF00F0D0
:0600080067825CEF0DF0C1
:100018006780D8CF42F0E8CF43F0E0CF44F0F2A4B5
:1000280030D0F294B10ED76EE00ED66E6682352AC5
:1000380066A026D02F2A65AC0AD00B0E2F6002D0FE
:100048008B8801D08B98500E2F6401D02F6A65AA37
:100058000AD0100E2F6002D08B8801D08B98320EF8
:100068002F6401D02F6A65A80CD00B0E2F6002D028
:100078008B8801D08B98190E2F6403D02F6A01D07A
:100088008B9844C0E0FF43C0E8FF42C0D8FF6790A8
:1000980010003CEF0CF067EC0AF0010E496E8CEC96
:1000A8000DF00F0E4C6E1F0E4D6ECEEC09F0F6ECF7
:1000B80007F08CEC0DF03F0E4C6E1F0E4D6ECEEC23
:1000C80009F0070E466ED00E456E38EC0DF0A8EC20
:1000D8000DF081B217D0A8EC0DF0020E02EC08F07A
:1000E8008CEC0DF01F0E4C6E1F0E4D6ECEEC09F011
:1000F800F6EC07F08CEC0DF0A50E4C6E1F0E4D6E55
:10010800CEEC09F0466A100E456EC0EC0DF0316E6B
:10011800466A110E456EC0EC0DF0306E15EC08F015
:10012800C0EC0DF006EC08F0C0EC0DF0E8EC07F0C0
:10013800466A150E456EC0EC0DF0566E466A140EF2
:10014800456EC0EC0DF0576E5650276E57C028F01C
:10015800466A2B0E456EC0EC0DF0566E563002E323
:10016800658201D06592466A2C0E456EC0EC0DF092
:10017800566E563002E3658001D0659065A265B081
:1001880002D0659E01D0658EFFEC07F08CEC0DF077
:10019800FD0E4C6E1F0E4D6ECEEC09F066A203D01C
:1001A800C5EC0BF06692D5EC0DF0346E98EF07F0C5
:1001B800400E4C6E410E4D6E60EC09F0000927E0D0
:1001C8005FC05BF060C05CF05DC059F05EC05AF083
:1001D800640E456E010E22EC0AF045C05FF046C081
:1001E80060F0630E456E020E22EC0AF045C05DF029
:1001F80046C05EF05B505F1809E15C50601806E18C
:1002080059505D1803E15A505E1801E0668466A4EF
:1002180097D066945F2803E17F0E601839E00BECF5
:1002280008F06DEC0DF0DFEC07F0BDEC07F017EC13
:100238000CF0B5EC07F05BEC0CF04C50300FFBEC1D
:100248000CF0486A640EBDEC07F017EC0CF0B5EC46
:1002580007F05BEC0CF04C50300FFBEC0CF0486AEC
:100268000A0EBDEC07F017EC0CF0B5EC07F05BECF0
:100278000CF04C50300FFBEC0CF0CDEC07F0C9EC57
:1002880007F05BEC0CF04C50300FFBEC0CF00AD094
:100298000BEC08F06DEC0DF0CD0E466E1F0E476EA0
:1002A8006DEC0DF05D2803E17F0E5E183FE010EC69
:1002B80008F06DEC0DF0DFEC07F0C3EC07F017EC7D
:1002C8000CF0B5EC07F05BEC0CF04C50300FFBEC8D
:1002D8000CF0486A640EC3EC07F017EC0CF0B5ECB0
:1002E80007F05BEC0CF04C50300FFBEC0CF0486A5C
:1002F8000A0EC3EC07F017EC0CF0B5EC07F05BEC5A
:100308000CF04C50300FFBEC0CF0D2EC07F0C9ECC1
:1003180007F05BEC0CF04C50300FFBEC0CF0CA0E05
:10032800466E1F0E476E6DEC0DF00AD010EC08F00B
:100338006DEC0DF0C60E466E1F0E476E6DEC0DF09F
:10034800010E496E8CEC0DF0D60E4C6E1F0E4D6EE4
:10035800CEEC09F05F2804E17F0E601801E1B3D00C
:10036800DFEC07F0BDEC07F017EC0CF0B5EC07F08C
:100378005BEC0CF04C504D1068E1486A640EBDEC23
:1003880007F017EC0CF0B5EC07F05BEC0CF04C50F8
:100398004D1028E1486A0A0EBDEC07F017EC0CF086
:1003A800B5EC07F05BEC0CF04C50300FCFEC0DF0D7
:1003B8002E0ECFEC0DF0CDEC07F0C9EC07F05BEC9E
:1003C8000CF04C50300FCFEC0DF0010ECFEC0DF0CF
:1003D800200ECFEC0DF0200ECFEC0DF0200ECFEC60
:1003E8000DF086D0486A640EBDEC07F017EC0CF0EF
:1003F800B5EC07F05BEC0CF04C50300FCFEC0DF087
:10040800486A0A0EBDEC07F017EC0CF0B5EC07F0E3
:100418005BEC0CF04C50300FCFEC0DF02E0ECFEC07
:100428000DF0CDEC07F0C9EC07F05BEC0CF04C508C
:10043800300FCFEC0DF0010ECFEC0DF0200ECFEC0D
:100448000DF0200ECFEC0DF053D0DFEC07F0BDEC33
:1004580007F017EC0CF0B5EC07F05BEC0CF04C5027
:10046800300FCFEC0DF0486A640EBDEC07F017ECC6
:100478000CF0B5EC07F05BEC0CF04C50300FCFEC07
:100488000DF0486A0A0EBDEC07F017EC0CF0B5EC5D
:1004980007F05BEC0CF04C50300FCFEC0DF02E0E4B
:1004A800CFEC0DF0CDEC07F0C9EC07F05BEC0CF0ED
:1004B8004C50300FCFEC0DF0010ECFEC0DF0200EAC
:1004C800CFEC0DF015D02D0ECFEC0DF02D0ECFEC9E
:1004D8000DF02D0ECFEC0DF0200ECFEC0DF0200E10
:1004E800CFEC0DF0200ECFEC0DF0200ECFEC0DF080
:1004F800010E496E0B0E8CEC0DF0AA0ECFEC0DF030
:10050800486A640EF9EC07F017EC0CF0B5EC07F04C
:100518005BEC0CF04C50300FCFEC0DF0486A0A0E33
:10052800F9EC07F017EC0CF0B5EC07F05BEC0CF00D
:100538004C50300FCFEC0DF02E0ECFEC0DF027C045
:100548004CF028C04DF0C9EC07F05BEC0CF04C50B7
:10055800300FCFEC0DF065A204D0020ECFEC0DF0F9
:1005680003D0010ECFEC0DF0F6EC07F08CEC0DF09B
:10057800D20E4C6E1F0E4D6ECEEC09F05D2804E1D4
:100588007F0E5E1801E1AAD0DFEC07F0C3EC07F09C
:1005980017EC0CF0B5EC07F05BEC0CF04C504D1080
:1005A80062E1486A640EC3EC07F017EC0CF0B5EC96
:1005B80007F05BEC0CF04C504D1025E1486A0A0E30
:1005C800C3EC07F017EC0CF0B5EC07F05BEC0CF0A3
:1005D8004C50300FCFEC0DF02E0ECFEC0DF0D2ECCE
:1005E80007F0C9EC07F05BEC0CF04C50300FCFEC87
:1005F8000DF0010ECFEC0DF0200ECFEC0DF0200E1B
:10060800CFEC0DF07DD0486A640EC3EC07F017EC10
:100618000CF0B5EC07F05BEC0CF04C50300FCFEC65
:100628000DF0486A0A0EC3EC07F017EC0CF0B5ECB5
:1006380007F05BEC0CF04C50300FCFEC0DF02E0EA9
:10064800CFEC0DF0D2EC07F0C9EC07F05BEC0CF046
:100658004C50300FCFEC0DF0010ECFEC0DF0200E0A
:10066800CFEC0DF04DD0DFEC07F0C3EC07F017EC42
:100678000CF0B5EC07F05BEC0CF04C50300FCFEC05
:100688000DF0486A640EC3EC07F017EC0CF0B5ECFB
:1006980007F05BEC0CF04C50300FCFEC0DF0486AD3
:1006A8000A0EC3EC07F017EC0CF0B5EC07F05BECA6
:1006B8000CF04C50300FCFEC0DF02E0ECFEC0DF0AF
:1006C800D2EC07F0C9EC07F05BEC0CF04C50300FA3
:1006D800CFEC0DF0010ECFEC0DF012D02D0ECFECBB
:1006E8000DF02D0ECFEC0DF02D0ECFEC0DF0200EF1
:1006F800CFEC0DF0200ECFEC0DF0200ECFEC0DF06E
:1007080019EC08F08CEC0DF0BE0ECFEC0DF0486A39
:10071800640EE2EC07F0E8EC0AF0D7EC07F05EECC8
:100728000BF04D50300FCFEC0DF0486A0A0EE2EC9A
:1007380007F0E8EC0AF0D7EC07F05EEC0BF04D5050
:10074800300FCFEC0DF02E0ECFEC0DF0EEEC07F0E5
:100758005EEC0BF04D50300FCFEC0DF065A004D0DF
:10076800020ECFEC0DF003D0010ECFEC0DF065AE0C
:1007780090D065A21DD031502724566E000E282037
:10078800576E56505F5C575060580BE23050275CEC
:10079800566E000E2858576E5F50565C605057587A
:1007A80007E35F2803E17F0E601802E0658601D049
:1007B800659665A00CD029505D5C2A505E5807E309
:1007C8005D2803E17F0E5E1802E0658401D0659420
:1007D80065B665A41ED06680659C659A6588630EBB
:1007E800356459D0356A410EFBEC0CF06C0EFBEC0D
:1007F8000CF0720EFBEC0CF05F0EFBEC0CF0410EF3
:10080800FBEC0CF00D0EFBEC0CF00A0EFBEC0CF004
:1008180042D065A41ED06680659C6598658A630E83
:10082800356439D0356A410EFBEC0CF06C0EFBECEC
:100838000CF0720EFBEC0CF05F0EFBEC0CF0420EB1
:10084800FBEC0CF00D0EFBEC0CF00A0EFBEC0CF0C4
:1008580022D065A61FD06680658C6598659A630E60
:10086800356419D0356A410EFBEC0CF06C0EFBECCC
:100878000CF0720EFBEC0CF05F0EFBEC0CF04B0E68
:10088800FBEC0CF00D0EFBEC0CF00A0EFBEC0CF084
:1008980002D08B986690340407E13306332802E1CE
:1008A800080E336E20EC08F0020E341807E1332AE4
:1008B800080E336401D0336A20EC08F0030E3418B4
:1008C80001E06CD4A8EC0DF0070E98DB8CEC0DF071
:1008D8004F0E4C6E1F0E4D6ECEEC09F083DB8CEC88
:1008E8000DF02F0E4C6E1F0E4D6ECEEC09F056D447
:1008F800020E496E0E0E8CEC0DF06150300FCFECED
:100908000DF0340406E1612A030E611802E1010EBC
:10091800616E020E341805E16106615002E1020EB3
:10092800616E030E341801E039D4615092EC0BF07B
:10093800000909E057DB8CEC0DF0EF0E4C6E1E0E33
:100948004D6ECEEC09F0030E626E28D4340415E126
:10095800A8EC0DF0040E52DB8CEC0DF07D0E4C6E05
:100968001F0E4D6ECEEC09F03DDB8CEC0DF0FF0E4A
:100978004C6E1E0E4D6ECEEC09F0020E34180CE1D2
:10098800A8EC0DF0080E3ADB8CEC0DF05F0E4C6E07
:100998001F0E4D6ECEEC09F0030E341802E0D2EFB4
:1009A80000F08BBA03D0566A562A01D0566A563AD6
:1009B80056468B505618DF0B56188B6E010E626E1A
:1009C80020EC08F0D2EF00F0020E496E040E8CEC19
:1009D8000DF065A204D0ED0ECFEC0DF003D0D50ECE
:1009E800CFEC0DF0020E496E0D0E8CEC0DF065A0EB
:1009F80004D0ED0ECFEC0DF003D0D50ECFEC0DF0FA
:100A0800340405E165B202D0658201D06592020E18
:100A1800341805E165B002D0658001D06590030EF9
:100A2800341802E0D2EF00F065A265B002D0659EEE
:100A380001D0658E000E65B2010E456E2B0E26ECB8
:100A48000DF0000E65B0010E456E2C0E26EC0DF073
:100A5800B5D7340419E1050E626E010E326EA8ECAA
:100A68000DF0010E496E8CEC0DF0980E4C6E1F0EB9
:100A78004D6ECEEC09F0B6DA8CEC0DF0B20E4C6E81
:100A88001F0E4D6ECEEC09F0020E341802E0D2EFC4
:100A980000F0060E626EA8EC0DF0010E496E8CECAB
:100AA8000DF08B0E4C6E1F0E4D6ECEEC09F09ADADF
:100AB8008CEC0DF0BD0E4C6E1F0E4D6ECEEC09F099
:100AC800B0DAC0EC0DF09EDAC0EC0DF07DDA336AD6
:100AD800D2EF00F0AADA8CEC0DF02B0ECFEC0DF073
:100AE8000A0E496E456E3150B0EC0CF013EC0DF067
:100AF800300FCFEC0DF02E0ECFEC0DF00A0E496E34
:100B0800315013EC0DF0300FCFEC0DF0340405E14B
:100B1800312A0B0E311801E1316A020E341805E151
:100B28003106312802E10A0E316E030E341802E054
:100B3800D2EF00F0020E326E496E010E8CEC0DF011
:100B48006E0E4C6E1F0E4D6ECEEC09F0D2EF00F01B
:100B580052DA8CEC0DF02D0ECFEC0DF00A0E496E2A
:100B6800456E3050B0EC0CF013EC0DF0300FCFECBC
:100B78000DF02E0ECFEC0DF00A0E496E305013EC2E
:100B88000DF0300FCFEC0DF0340405E1302A0B0ED8
:100B9800301801E1306A020E341805E130063028B9
:100BA80002E10A0E306E030E341802E0D2EF00F0B4
:100BB800030E326E31C045F0100E26EC0DF030C039
:100BC80045F0110E26EC0DF0010E496E8CEC0DF07F
:100BD800DE0E4C6E1E0E4D6ECEEC09F003DA8CEC78
:100BE8000DF0CD0E4C6E1E0E4D6ECEEC09F0D2EF10
:100BF80000F0030E341802E0D2EF00F0010E626E2E
:100C08005FC027F060C028F028C045F0140E26EC1D
:100C18000DF027C045F0150E26EC0DF0D1D6325058
:100C2800010A01E157D7030A93E0010AE2E0D2EF93
:100C380000F0E1D98CEC0DF03FD0E20E4C6E1F0EA7
:100C48004D6ECEEC09F04AD0E50E4C6E1F0E4D6E7F
:100C5800CEEC09F043D0E80E4C6E1F0E4D6ECEEC74
:100C680009F03CD0EB0E4C6E1F0E4D6ECEEC09F029
:100C780035D0EE0E4C6E1F0E4D6ECEEC09F02ED018
:100C8800F10E4C6E1F0E4D6ECEEC09F027D0F40E0F
:100C98004C6E1F0E4D6ECEEC09F020D0F70E4C6E48
:100CA8001F0E4D6ECEEC09F019D0FA0E4C6E1F0EC9
:100CB8004D6ECEEC09F012D03350BFE0010AC4E00B
:100CC800030AC9E0010ACEE0070AD3E0010AD8E026
:100CD800030ADDE0010AE2E00F0AE7E0486A640E71
:100CE8006DD9E8EC0AF05FD95EEC0BF04D50300F8F
:100CF800CFEC0DF0486A0A0E61D9E8EC0AF053D936
:100D08005EEC0BF04D50300FCFEC0DF02E0ECFEC0B
:100D18000DF060D95EEC0BF04D50300FCFEC0DF0BC
:100D2800010ECFEC0DF0340414E1365005E00A0E44
:100D38002926000E2A2202D0294A2A2A2ABE09D0A8
:100D4800E80E295C030E2A5804E3030E2A6EE70E08
:100D5800296E020E341813E1365005E0F60E2926E6
:100D6800FF0E2A2203D02906D8A02A062ABE04D0BC
:100D78002A5005E1290403E22A6A010E296E030EAE
:100D8800341801E1AED0D2EF00F02A50456E170EAC
:100D980026EC0DF029C045F0180E26EC0DF0CCEC31
:100DA80008F0C0EC0DF0566EB8EC08F0C0EC0DF091
:100DB8008BD02A50456E190E26EC0DF029C045F04F
:100DC8001A0E26EC0DF0A8EC08F0C0EC0DF0566EEB
:100DD800C0EC08F0C0EC0DF077D02A50456E1B0E21
:100DE80026EC0DF029C045F01C0E26EC0DF0DCECCD
:100DF80008F0C0EC0DF0566EACEC08F0C0EC0DF04D
:100E080063D02A50456E1D0E26EC0DF029C045F022
:100E18001E0E26EC0DF0D4EC08F0C0EC0DF0566E6A
:100E2800E0EC08F0C0EC0DF04FD02A50456E1F0ED4
:100E380026EC0DF029C045F0200E26EC0DF0B4ECA0
:100E480008F0C0EC0DF0566ED0EC08F0C0EC0DF0D8
:100E58003BD02A50456E210E26EC0DF029C045F0F6
:100E6800220E26EC0DF0C8EC08F0C0EC0DF0566E22
:100E7800BCEC08F0C0EC0DF027D02A50456E230ECC
:100E880026EC0DF029C045F0240E26EC0DF0A4EC5C
:100E980008F0C0EC0DF0566EC4EC08F0C0EC0DF094
:100EA80013D02A50456E250E26EC0DF029C045F0CA
:100EB800260E26EC0DF0D8EC08F0C0EC0DF0566EBE
:100EC800B0EC08F0C0EC0DF07FD820D02A50456E69
:100ED800270E26EC0DF029C045F0280E26EC0DF063
:100EE80015D0335001E151D7010A01E162D7030A55
:100EF80001E173D7010A85E0070A97E0010AA9E032
:100F0800030ABBE0010ACDE00F0AE0E0332A080E2D
:100F1800336405D0336A010E626E20EC08F088D87D
:100F280038EC0DF0D2EF00F06250010A02E1DCEF7C
:100F380000F0030A01E1DCD4010A02E1D2EF00F07B
:100F4800070A01E186D5010A01E169D6030A01E130
:100F580070D6010A01E1FAD40F0A01E135D5D2EFC2
:100F680000F045C04CF046C04DF04F6A0A0E4E6E78
:100F78000A0C476E5FC045F060C046F01200476E2D
:100F88005DC045F05EC046F012004F6A0A0E4E6E14
:100F98000A0C5FC04CF060C04DF012005DC04CF010
:100FA8005EC04DF0120045C04DF046C04EF0506A8C
:100FB8000A0E4F6E0A0C030E486EE80C476E29C0E5
:100FC80045F02AC046F01200576E5650296E57C099
:100FD8002AF0120029C04DF02AC04EF0506A0A0EBD
:100FE8004F6E0A0C020E496E010C476E27C045F081
:100FF80028C046F01200020E496E0A0C626E010EFD
:10100800496E010C566E466A170E456E170CDE0EB9
:10101800466E1F0E476E1200DA0E466E1F0E476EA2
:101028001200466A180E456E180C020E496E0B0C1B
:10103800466A0A0E456E0A0CFFEC07F08CEC0DF0C0
:1010480066D015EC08F0C0EC0DF04C6E466A170E31
:10105800456EC0EC0DF06ED8310ECFEF0DF098D87C
:10106800C0EC0DF04C6E80D8C0EC0DF063D8320E99
:10107800CFEF0DF069D8C0EC0DF04C6E7DD8C0EC08
:101088000DF058D8330ECFEF0DF092D8C0EC0DF01C
:101098004C6E5ED8C0EC0DF04DD8340ECFEF0DF08D
:1010A8007FD8C0EC0DF04C6E87D8C0EC0DF042D85C
:1010B800350ECFEF0DF054D8C0EC0DF04C6E6CD857
:1010C800C0EC0DF037D8360ECFEF0DF05DD8C0EC80
:1010D8000DF04C6E4DD8C0EC0DF02CD8370ECFEF7C
:1010E8000DF02ED8C0EC0DF04C6E4AD8C0EC0DF0C7
:1010F80021D8380ECFEF0DF057D8C0EC0DF04C6E5C
:101108002BD8C0EC0DF016D8390ECFEF0DF03350B8
:1011180098E0010AA4E0030AADE0010AB6E0070A74
:10112800BFE0010AC8E0030AD1E0010ADAE00F0AC9
:10113800E3E012004D6E4C50296E4DC02AF01200AB
:10114800466A260E456E260C466A1C0E456E1C0C19
:10115800466A1D0E456E1D0C466A270E456E270C05
:10116800466A220E456E220C466A190E456E190C07
:10117800466A230E456E230C466A1B0E456E1B0CF1
:10118800466A250E456E250C466A240E456E240CCB
:10119800466A1A0E456E1A0C466A210E456E210CD7
:1011A800466A200E456E200C466A280E456E280CAD
:1011B800466A1E0E456E1E0C466A1F0E456E1F0CB3
:1011C800899489921A0E4A6EF80EE82EFED74A2E96
:1011D800FCD700D01A0E4A6EF80EE82EFED74A2E1B
:1011E800FCD700D01A0E4A6EF80EE82EFED74A2E0B
:1011F800FCD700D01A0E4A6EF80EE82EFED74A2EFB
:10120800FCD700D0030EABEC0AF00D0E4A6EFC0EB4
:10121800E82EFED74A2EFCD7030EABEC0AF00D0ED3
:101228004A6EFC0EE82EFED74A2EFCD7030EABEC16
:101238000AF00D0E4A6EFC0EE82EFED74A2EFCD799
:10124800020EABEC0AF00D0E4A6EFC0EE82EFED72D
:101258004A2EFCD7000E476E280E4AEC0DF00D0EF4
:101268004A6EFC0EE82EFED74A2EFCD7000E476EBB
:101278000C0E4AEC0DF0150E4A6EC60EE82EFED77F
:101288004A2EFCD700D0A8EC0DF00D0E4A6EFC0ECD
:10129800E82EFED74A2EFCD7000E476E060E4AEC03
:1012A8000DF00D0E4A6EFC0EE82EFED74A2EFCD726
:1012B800A8EC0DF0898412005DD0E3EC0CF0000975
:1012C800D8A4000CCC0E95EC0CF0440E95EC0CF068
:1012D8004D50D96EDA6ADF6A4C50D96EDA6A020E5E
:1012E800DF6ECD80000C526AF29EE3EC0CF0550ED6
:1012F80095EC0CF0536A5250080DF350110F53241B
:10130800D96EDA6ADF5095EC0CF0532A070E536455
:10131800F2D7BE0E95EC0CF0536A5350370FD96EC6
:10132800DA6A7AEC0CF0DF6E532A080E5364F5D7AC
:10133800370E456E090E466EF2EC0BF000090CE113
:1013480038504E6E3750506E4EC051F01CD850C0B9
:10135800DEFF51C0DDFF04D016D8DE687F0EDD6EDB
:10136800F28E522A010E5264BFD74C50D96EDA6AF7
:10137800DF6A010C4C50D96EDA6ADF509EE0010A30
:10138800B2E0030A000C5250020DF350210FD96E3F
:10139800DA6A120046D04FD84AEC0DF0060E4E6EAF
:1013A800300EE82EFED74E2EFCD700D038D0F6EC03
:1013B80007F08CEC0DF033D0000E476E100E4AEC9F
:1013C8000DF02DD04CC0F6FF4DC0F7FFC00E080041
:1013D800F56006D0010E476E27D84AEC0DF01FD0F5
:1013E800010E476E400E4E6E4F681ED8506E516A01
:1013F8004E5050264F5051226D0E5024F66E1E0E40
:101408005120F76E0800F5504AEC0DF008D00CD8C2
:10141800080AD2E0020ACBE0060ABDE0D3D74C4A5C
:101428004D2A02D8F4E112004CC0F6FF4DC0F7FF78
:101438000800F5501200000E476E010C476E475029
:10144800020DF3501F0FD96EDA6ADECF49F0DDCFF7
:101458004AF04550D96EDA6A2B0EDF6E492808E14A
:101468007F0E4A1805E149C045F04AC046F012000F
:101478004AAE09D0496C4A1ED8B04A2A4550D96E9E
:10148800DA6A2D0EDF6E49500F0B486EAD0E4824F8
:10149800F66EF76A1E0EF7220800F5CF48F0493AB3
:1014A8004A3A0F0E49164A50F00B49120F0E4A16C7
:1014B80049500A0DF3CF49F0F4CF4AF04850492675
:1014C800000E4A22D0D7806A896A926A816A8A6A3B
:1014D800060E936E826A8B6A946AD390D382700EDA
:1014E800D3120F0EC112808C24EC0BF0800ECD6E3F
:1014F8003C0ECF6EB00ECE6E9F80F80ED516D586F8
:10150800D59CD59AD58EB10ED76EE00ED66EF28ADE
:10151800F194F19E9D80D08EF28CF28EE4EC08F06E
:101528009AEC0DF0C50E496E1E0E4A6E010E4B6EFA
:10153800CAEC0CF0BD0E496E1E0E4A6E020E4B6EC2
:10154800CAEC0CF08B98659C659A65981200466EFB
:1015580046A003D0456A452A01D0456A8B504518F4
:10156800FE0B45188B6E46A203D0456A452A01D06A
:10157800456A45468B504518FD0B45188B6E46A4A9
:1015880003D0456A452A01D0456A19D8FB0B45188E
:101598008B6E46A603D0456A452A01D0456A454662
:1015A8000ED8F70B45188B6E8982420EE82EFED7AF
:1015B80000D08992420EE82EFED700D01200454690
:1015C80045468B50451812004A6A48AE06D0476C0B
:1015D800481ED8B0482A010E4A6E46AE06D0456C61
:1015E800461ED8B0462A010E4A1A4B6A4C6A475022
:1015F80048101BE0010E496E04D0D8904736483693
:10160800492A48AEFAD7D8904B364C364750455CF5
:101618004850465805E34750455E4850465A4B8067
:10162800D89048324732492EEED74A5004E04B6CE6
:101638004C1ED8B04C2A4BC045F04CC046F01200A6
:10164800E3EC0CF000090FE1CC0E95EC0CF04E0E1B
:1016580095EC0CF0000E95EC0CF0000E95EC0CF0EF
:101668007F0E95EC0CF04D6A4E6A4D50080DF35004
:10167800110F4E24D96EDA6A4D504B6E4C6AD890D1
:101688004B364C36D8904B364C36D8904B364C3679
:101698004E504B24456E000E4C20466EC0EC0DF0AB
:1016A800DF6E4E2A070E4E64E0D74D2A010E4D64B8
:1016B800DBD7010C526A4EAE06D04D6C4E1ED8B028
:1016C8004E2A010E526E50AE04D04F6C501ED8B048
:1016D800502A4F50501017E0010E516E04D0D89088
:1016E8004F365036512A50AEFAD74F504D5C5050B5
:1016F8004E5804E34F504D5E50504E5AD8905032D9
:101708004F32512EF2D7525004E04D6C4E1ED8B0D5
:101718004E2A4DC04DF04EC04EF01200546EE3EC10
:101728000CF000090CE1330E95EC0CF0556A24D846
:101738007AEC0CF0DF6E552A070E5564F8D74C0E7C
:10174800456E080E466EF2EC0BF0000914E1556A7E
:1017580013D8DF50456E5450080DF3505524F80F38
:1017680026EC0DF0552A070E5564F2D71CEC08F04C
:1017780038EC0DF0010C000C55504C0FD96EDA6A9C
:10178800120081A281B402D0030E07D081B202D028
:10179800010E03D081B403D0020E456E01D0456A14
:1017A800455019E02D0E255C010E265809E3010E5F
:1017B800266E220E256E45C02EF0010E366E010CE7
:1017C800254A262A0F0E25182610D8A4120045C02F
:1017D8002EF0366A1200256A266A12004B6A4A6A97
:1017E8001DD045504A24D96EDA6ADF50486E080E7B
:1017F800476E4B504818010B496E490402E1180E18
:101808004B1AD8904B307F0B4B6E490401E14B8E3D
:10181800D890483247064750ECE14A2A46504A18C1
:10182800E0E14B501200496A4A6A475048101BE0F1
:10183800010E4B6E04D0D890473648364B2A48AE36
:10184800FAD7D89049364A364750455C48504658EA
:1018580005E34750455E4850465A4980D89048327B
:1018680047324B2EEED749C045F04AC046F0120029
:10187800920EF66E1B0EF76E000EF86E00EE59F023
:1018880010EE0CF00900F5CFEEFFE550E150FAE15B
:10189800666A656A00EE01F0410EEE6AE806FDE14F
:1018A80067906792000EF86E00014FEF00F04E50FF
:1018B8004F1017E0010E506E04D0D8904E364F36B8
:1018C800502A4FAEFAD74E504C5C4F504D5804E357
:1018D8004E504C5E4F504D5AD8904F324E32502E8B
:1018E800F2D74CC04CF04DC04DF01200476A486A20
:1018F800B5EC0DF000090CE048C045F0010E466E4D
:10190800452A02D0D8904636452EFCD74650471275
:10191800500EE82EFED7482A070E4864E9D74750EC
:101928001200486E4A6A4AC046F048C047F0462A44
:1019380002D0D8904732462EFCD74750496E010E48
:10194800491649507DEC0DF04A2A070E4A64EBD738
:10195800460EE82EFED71200466E486A455014E03F
:10196800010E476E03D0D8904536472A45AEFBD7BF
:10197800D89048364550465C03E34550465E48805B
:10198800D8904532472EF4D748501200476A4B503A
:10199800080DF35040094AEC0DF04C6A010E476EF1
:1019A80049C0F6FF4AC0F7FF0800F5504AEC0DF0B1
:1019B800494A4A2A4C2A070E4C64F0D7070C809CE7
:1019C800929CC80E00D0E82EFDD7808C928C420ED7
:1019D800E82EFED700D0000E80BC010E456EA90E81
:1019E80000D0E82EFDD700D000F045501200456E1B
:1019F8002C50FEE09DB805D09EA8FED745C0ADFF8F
:101A080012009D982D50010FD96EDA6A45C0DFFF8C
:101A18002D2A0F0E2D6401D02D6A2C0612004A6E55
:101A2800080E4B6E4C6AD8904A344C344C6ED890A1
:101A38004A3649504C5C02E349504C5E4B2EF3D772
:101A48004C501200466EA6B2FED746C0A9FF45C04C
:101A5800A8FFA69EA69CA684F29E550EA76EAA0E67
:101A6800A76EA682F28EAA0C486A496A09D0030EAC
:101A7800476E980EE82EFED7472EFCD7484A492ACB
:101A88004850455C49504658F2E21200486E4750AB
:101A980002E1899401D08984420EE82EFED700D055
:101AA80048380F0BABEC0AF048500F0BABEF0AF0BD
:101AB8009EA00DD09E903C0ECF6EB00ECE6E412AE9
:101AC8001D0E416404D0416A010E406ECD906792AC
:101AD800110005D007D8FBEC0CF0464A472A02D87B
:101AE800F9E1120046C0F6FF47C0F7FF0800F550BD
:101AF8001200456E809C929C450404E100D000D001
:101B0800808C928C460EE82EFED7808C928C120028
:101B18004A6E490403E0400E4B6E01D04B6A4A04FA
:101B28004B26476A4B5080094AEF0DF0949C948EDF
:101B3800AC98AC8AAB88AB8EAC84330EAF6E2D6A92
:101B4800100E2C6E2B6A12001FEC0AF04AEC0DF0F6
:101B5800060E496E300EE82EFED7492EFCD700D06F
:101B68001200809C929C00D0808C928C040EE82EEF
:101B7800FED780BC010C000CA6B2FED745C0A9FF59
:101B8800A69EA69CA680A8501200FF7FFF7FFF7F1D
:101B9800FF7F01012B2B496E010E476E49504AEF1A
:0C1BA8000DF02EC045F02E6A45501200D2
:101E6C000041A042A1E045A3A4A5A64BA74D484F15
:101E7C00A8504354A9AA58E1ABACE2ADAE62AFB0E6
:101E8C00B161B2B3B4E365B6B7B8B9BABBBCBD6F98
:101E9C00BE7063BF79E478E5C0C1E6C2C3C4C5C6F1
:101EAC00C70001010202030404050606070708091E
:101EBC00090609090600000F0006090906000000C2
:101ECC0000CDE0F2E8F1ED69F2FC20E4E2B320EAA7
:101EDC00ED0020D469EAF1E0F669FF207420EAEE07
:101EEC00EB2E0020CAEEE420EFF0EEF7E8F2E0ED86
:101EFC00EE200020CAEEEB2831292020CAF3E1287D
:101F0C003229002D2D2DD2C5D0CCCECCC5D2D02D82
:101F1C002D2D00C4E0F2F7E8EA20312C20E0E1EEB0
:101F2C00203200202031202020202032202020317F
:101F3C002D32002863294976616E5F666420763104
:101F4C002E3500CFEEF069E320D1E8E3ED2E204CE6
:101F5C0065640020CAEEEBEEEDE020202020CAF3F1
:101F6C00E100D2E5ECEF20CDE8E73A20202020205C
:101F7C0000202020C3F0E0EDE8F6692020200020AE
:101F8C00202020CAF3E1EEE2E020200020202020D7
:101F9C00CAEEEBEEEDE0202000C2E8E169F0203162
:101FAC00384232303A00D2E5ECEF20C2E5F0F53A97
:101FBC0000C7E0E2E4E0EDEDFF00303030300D0A18
:101FCC00003030303000CAE13A00CAEB3A0074629B
:101FDC003A00746B3A00313A00323A00333A00342A
:101FEC003A00353A00363A00373A00383A00393A76
:041FFC0000310000B0
:020000040020DA
:08000000FFFFFFFFFFFFFFFF00
:020000040030CA
:0E000000FF080A1EFF8181FF0FC00FE00F40B6
:00000001FF
