:040000004DEF00F0D0
:06000800688228EF0DF0F4
:100018006880D8CF42F0E8CF43F0E0CF44F0F2A4B4
:1000280030D0F294B10ED76EE00ED66E6782352AC4
:1000380067A026D02F2A66AC0AD00B0E2F6002D0FC
:100048008B8801D08B98500E2F6401D02F6A66AA36
:100058000AD0100E2F6002D08B8801D08B98320EF8
:100068002F6401D02F6A66A80CD00B0E2F6002D027
:100078008B8801D08B98190E2F6403D02F6A01D07A
:100088008B9844C0E0FF43C0E8FF42C0D8FF6890A7
:10009800100008EF0CF033EC0AF0010E496E58EC32
:1000A8000DF0FF0E4C6E1E0E4D6E9AEC09F0C2EC70
:1000B80007F058EC0DF02F0E4C6E1F0E4D6E9AEC9B
:1000C80009F0070E466ED00E456E04EC0DF074EC88
:1000D8000DF081B217D074EC0DF0020ECBEC07F0E6
:1000E80058EC0DF00F0E4C6E1F0E4D6E9AEC09F089
:1000F800C2EC07F058EC0DF0A40E4C6E1F0E4D6EBE
:100108009AEC09F0466A100E456E8CEC0DF0316ED3
:10011800466A110E456E8CEC0DF0306EE1EC07F07E
:100128008CEC0DF0D2EC07F08CEC0DF0B4EC07F091
:10013800466A150E456E8CEC0DF0566E466A140E26
:10014800456E8CEC0DF0576E5650276E57C028F050
:10015800CFEC07F058EC0DF0FC0E4C6E1F0E4D6EF8
:100168009AEC09F067A203D091EC0BF06792A2EC2D
:100178000DF0346E64EF07F0400E4C6E410E4D6E7C
:100188002CEC09F0000927E05FC05BF060C05CF070
:100198005DC059F05EC05AF0650E456E010EEEEC7A
:1001A80009F045C05FF046C060F0640E456E020E6F
:1001B800EEEC09F045C05DF046C05EF05B505F189C
:1001C80009E15C50601806E159505D1803E15A5086
:1001D8005E1801E0678467A497D067945F2803E1FD
:1001E8007F0E601839E0D7EC07F039EC0DF0ABEC76
:1001F80007F08FEC07F0E3EC0BF081EC07F027EC4D
:100208000CF04C50300FC7EC0CF0486A640E8FECC1
:1002180007F0E3EC0BF081EC07F027EC0CF04C5006
:10022800300FC7EC0CF0486A0A0E8FEC07F0E3ECCD
:100238000BF081EC07F027EC0CF04C50300FC7ECBA
:100248000CF099EC07F095EC07F027EC0CF04C500B
:10025800300FC7EC0CF00AD0D7EC07F039EC0DF0F2
:10026800CC0E466E1F0E476E39EC0DF05D2803E18B
:100278007F0E5E183FE0DCEC07F039EC0DF0ABECDC
:1002880007F089EC07F0E3EC0BF081EC07F027ECC2
:100298000CF04C50300FC7EC0CF0486A640E89EC37
:1002A80007F0E3EC0BF081EC07F027EC0CF04C5076
:1002B800300FC7EC0CF0486A0A0E89EC07F0E3EC43
:1002C8000BF081EC07F027EC0CF04C50300FC7EC2A
:1002D8000CF09EEC07F095EC07F027EC0CF04C5076
:1002E800300FC7EC0CF0C90E466E1F0E476E39EC86
:1002F8000DF00AD0DCEC07F039EC0DF0C50E466EB7
:100308001F0E476E39EC0DF0010E496E58EC0DF0DA
:10031800D50E4C6E1F0E4D6E9AEC09F05F2804E165
:100328007F0E601801E1B3D0ABEC07F08FEC07F05B
:10033800E3EC0BF081EC07F027EC0CF04C504D107F
:1003480068E1486A640E8FEC07F0E3EC0BF081EC8F
:1003580007F027EC0CF04C504D1028E1486A0A0EC3
:100368008FEC07F0E3EC0BF081EC07F027EC0CF0D6
:100378004C50300F9CEC0DF02E0E9CEC0DF099ECCF
:1003880007F095EC07F027EC0CF04C50300F9CEC84
:100398000DF0010E9CEC0DF0200E9CEC0DF0200EE3
:1003A8009CEC0DF0200E9CEC0DF083D0486A640E96
:1003B8008FEC07F0E3EC0BF081EC07F027EC0CF086
:1003C8004C50300F9CEC0DF0486A0A0E8FEC07F089
:1003D800E3EC0BF081EC07F027EC0CF04C50300FFD
:1003E8009CEC0DF02E0E9CEC0DF099EC07F095ECC2
:1003F80007F027EC0CF04C50300F9CEC0DF0010E80
:100408009CEC0DF0200E9CEC0DF0200E9CEC0DF0F9
:1004180050D0ABEC07F08FEC07F0E3EC0BF081EC7D
:1004280007F027EC0CF04C50300F9CEC0DF0486AAC
:10043800640E8FEC07F0E3EC0BF081EC07F027EC8F
:100448000CF04C50300F9CEC0DF0486A0A0E8FEC03
:1004580007F0E3EC0BF081EC07F027EC0CF04C50C4
:10046800300F9CEC0DF02E0E9CEC0DF099EC07F083
:1004780095EC07F027EC0CF04C50300F9CEC0DF08D
:10048800010E9CEC0DF0200E9CEC0DF012D02D0E00
:100498009CEC0DF02D0E9CEC0DF02D0E9CEC0DF04F
:1004A800200E9CEC0DF0200E9CEC0DF0200E9CEC28
:1004B8000DF0010E496E0B0E58EC0DF0AA0E9CECD7
:1004C8000DF0486A640EC5EC07F0E3EC0BF081EC24
:1004D80007F027EC0CF04C50300F9CEC0DF0486AFC
:1004E8000A0EC5EC07F0E3EC0BF081EC07F027EC03
:1004F8000CF04C50300F9CEC0DF02E0E9CEC0DF0D7
:1005080027C04CF028C04DF095EC07F027EC0CF014
:100518004C50300F9CEC0DF066A204D0020E9CECFF
:100528000DF003D0010E9CEC0DF0C2EC07F058EC76
:100538000DF0D10E4C6E1F0E4D6E9AEC09F05D2831
:1005480004E17F0E5E1801E1AAD0ABEC07F089EC5C
:1005580007F0E3EC0BF081EC07F027EC0CF04C50C3
:100568004D1062E1486A640E89EC07F0E3EC0BF089
:1005780081EC07F027EC0CF04C504D1025E1486A4F
:100588000A0E89EC07F0E3EC0BF081EC07F027EC9E
:100598000CF04C50300F9CEC0DF02E0E9CEC0DF036
:1005A8009EEC07F095EC07F027EC0CF04C50300F60
:1005B8009CEC0DF0010E9CEC0DF0200E9CEC0DF067
:1005C800200E9CEC0DF07DD0486A640E89EC07F093
:1005D800E3EC0BF081EC07F027EC0CF04C50300FFB
:1005E8009CEC0DF0486A0A0E89EC07F0E3EC0BF07E
:1005F80081EC07F027EC0CF04C50300F9CEC0DF020
:100608002E0E9CEC0DF09EEC07F095EC07F027EC15
:100618000CF04C50300F9CEC0DF0010E9CEC0DF0E2
:10062800200E9CEC0DF04DD0ABEC07F089EC07F0F8
:10063800E3EC0BF081EC07F027EC0CF04C50300F9A
:100648009CEC0DF0486A640E89EC07F0E3EC0BF0C3
:1006580081EC07F027EC0CF04C50300F9CEC0DF0BF
:10066800486A0A0E89EC07F0E3EC0BF081EC07F01E
:1006780027EC0CF04C50300F9CEC0DF02E0E9CEC3F
:100688000DF09EEC07F095EC07F027EC0CF04C50C1
:10069800300F9CEC0DF0010E9CEC0DF012D02D0EDD
:1006A8009CEC0DF02D0E9CEC0DF02D0E9CEC0DF03D
:1006B800200E9CEC0DF0200E9CEC0DF0200E9CEC16
:1006C8000DF0E9EC07F058EC0DF0BE0E9CEC0DF0C7
:1006D800486A640EAEEC07F0B4EC0AF0A3EC07F03D
:1006E8002AEC0BF04D50300F9CEC0DF0486A0A0EC6
:1006F800AEEC07F0B4EC0AF0A3EC07F02AEC0BF030
:100708004D50300F9CEC0DF02E0E9CEC0DF0BAEC19
:1007180007F02AEC0BF04D50300F9CEC0DF066A062
:1007280004D0020E9CEC0DF003D0010E9CEC0DF0F1
:1007380066AE90D066A21DD031502724566E000EAA
:100748002820576E56505F5C575060580BE2305067
:10075800275C566E000E2858576E5F50565C6050E6
:10076800575807E35F2803E17F0E601802E06686AA
:1007780001D0669666A00CD029505D5C2A505E5860
:1007880007E35D2803E17F0E5E1802E0668401D06E
:10079800669466B666A41ED06780669C669A66886C
:1007A800630E356459D0356A410EC7EC0CF06C0EF7
:1007B800C7EC0CF0720EC7EC0CF05F0EC7EC0CF037
:1007C800410EC7EC0CF00D0EC7EC0CF00A0EC7EC8E
:1007D8000CF042D066A41ED06780669C6698668A34
:1007E800630E356439D0356A410EC7EC0CF06C0ED7
:1007F800C7EC0CF0720EC7EC0CF05F0EC7EC0CF0F7
:10080800420EC7EC0CF00D0EC7EC0CF00A0EC7EC4C
:100818000CF022D066A61FD06780668C6698669A10
:10082800630E356419D0356A410EC7EC0CF06C0EB6
:10083800C7EC0CF0720EC7EC0CF05F0EC7EC0CF0B6
:100848004B0EC7EC0CF00D0EC7EC0CF00A0EC7EC03
:100858000CF002D08B986790340415E174EC0DF01D
:10086800070E95DB58EC0DF03F0E4C6E1F0E4D6ECB
:100878009AEC09F083DB58EC0DF01F0E4C6E1F0E3E
:100888004D6E9AEC09F0020E341807E1332A080E6F
:10089800336401D0336AECEC07F0030E341810E02F
:1008A80061D45FC027F060C028F028C045F0140E5E
:1008B800F2EC0CF027C045F0150EF2EC0CF004D069
:1008C8006250010AEEE0030A7CDB04EC0DF04AD426
:1008D800020E496E0E0E58EC0DF06150300F9CEC74
:1008E8000DF0340406E1612A030E611802E1010EDD
:1008F800616E020E341805E16106615002E1020ED4
:10090800616E030E341801E02DD461505EEC0BF0DB
:10091800000909E033DB58EC0DF0EF0E4C6E1E0EAB
:100928004D6E9AEC09F0030E636E1CD4340415E185
:1009380074EC0DF0040E2BDB58EC0DF07C0E4C6EB5
:100948001F0E4D6E9AEC09F019DB58EC0DF06D0E88
:100958004C6E1F0E4D6E9AEC09F0020E34180CE125
:1009680074EC0DF0080E13DB58EC0DF04F0E4C6EC6
:100978001F0E4D6E9AEC09F0030E341802E0B6EF24
:1009880000F08BBA03D0566A562A01D0566A563AF6
:1009980056468B505618DF0B56188B6E010E636E39
:1009A800ECEC07F0B6EF00F0020E496E040E58ECBE
:1009B8000DF066A204D0ED0E9CEC0DF003D0D50E20
:1009C8009CEC0DF0020E496E0D0E58EC0DF066A071
:1009D80004D0ED0E9CEC0DF003D0D50E9CEC0DF080
:1009E800340405E166B202D0668201D06692020E36
:1009F800341805E166B002D0668001D06690030E17
:100A0800341802E0B6EF00F066A266B002D0669E27
:100A1800C5D7668EC3D7020E496E100E58EC0DF07E
:100A28006150300F9CEC0DF0340406E1612A030E8E
:100A3800611802E1010E616E020E341805E16106CB
:100A4800615002E1020E616E030E341802E0B6EF47
:100A580000F061041BE1050E636E010E326E74EC4A
:100A68000DF0010E496E58EC0DF0970E4C6E1F0EEE
:100A78004D6E9AEC09F082DA58EC0DF0B10E4C6E1E
:100A88001F0E4D6E9AEC09F0B6EF00F0060E636E7D
:100A980074EC0DF0010E496E58EC0DF08A0E4C6E98
:100AA8001F0E4D6E9AEC09F069DA58EC0DF0BC0E89
:100AB8004C6E1F0E4D6E9AEC09F07FDA8CEC0DF03F
:100AC8006DDA8CEC0DF04CDA336AB6EF00F07DDAB3
:100AD80058EC0DF02B0E9CEC0DF00A0E496E456E8D
:100AE80031507CEC0CF0DFEC0CF0300F9CEC0DF08E
:100AF8002E0E9CEC0DF00A0E496E3150DFEC0CF016
:100B0800300F9CEC0DF0340405E1312A0B0E31183E
:100B180001E1316A020E341805E13106312802E19B
:100B28000A0E316E030E341802E0B6EF00F0020E22
:100B3800326E496E010E58EC0DF05E0E4C6E1F0EB3
:100B48004D6E9AEC09F0B6EF00F025DA58EC0DF08E
:100B58002D0E9CEC0DF00A0E496E456E30507CEC63
:100B68000CF0DFEC0CF0300F9CEC0DF02E0E9CEC32
:100B78000DF00A0E496E3050DFEC0CF0300F9CEC93
:100B88000DF0340405E1302A0B0E301801E1306A0B
:100B9800020E341805E13006302802E10A0E306EE4
:100BA800030E341802E0B6EF00F0010E636E31C098
:100BB80045F0100EF2EC0CF030C045F0110EF2ECDE
:100BC8000CF0EED63250010A82E0030ABEE0B6EF1E
:100BD80000F0E1D958EC0DF03FD0E10E4C6E1F0E3D
:100BE8004D6E9AEC09F04AD0E40E4C6E1F0E4D6E15
:100BF8009AEC09F043D0E70E4C6E1F0E4D6E9AEC3E
:100C080009F03CD0EA0E4C6E1F0E4D6E9AEC09F0BE
:100C180035D0ED0E4C6E1F0E4D6E9AEC09F02ED0AD
:100C2800F00E4C6E1F0E4D6E9AEC09F027D0F30EA5
:100C38004C6E1F0E4D6E9AEC09F020D0F60E4C6EDD
:100C48001F0E4D6E9AEC09F019D0F90E4C6E1F0E5E
:100C58004D6E9AEC09F012D03350BFE0010AC4E09F
:100C6800030AC9E0010ACEE0070AD3E0010AD8E086
:100C7800030ADDE0010AE2E00F0AE7E0486A640ED1
:100C880069D9B4EC0AF05BD92AEC0BF04D50300F5F
:100C98009CEC0DF0486A0A0E5DD9B4EC0AF04FD905
:100CA8002AEC0BF04D50300F9CEC0DF02E0E9CEC06
:100CB8000DF05CD92AEC0BF04D50300F9CEC0DF088
:100CC800010E9CEC0DF0340414E1365005E00A0ED8
:100CD8002926000E2A2202D0294A2A2A2ABE09D009
:100CE800E80E295C030E2A5804E3030E2A6EE70E69
:100CF800296E020E341813E1365005E0F60E292647
:100D0800FF0E2A2203D02906D8A02A062ABE04D01C
:100D18002A5005E1290403E22A6A010E296E030E0E
:100D2800341801E1AED0B6EF00F02A50456E170E28
:100D3800F2EC0CF029C045F0180EF2EC0CF084EC43
:100D480008F08CEC0DF0566E70EC08F08CEC0DF0A1
:100D58008BD02A50456E190EF2EC0CF029C045F0E4
:100D68001A0EF2EC0CF0A0EC08F08CEC0DF0566EBC
:100D780078EC08F08CEC0DF077D02A50456E1B0EFD
:100D8800F2EC0CF029C045F01C0EF2EC0CF094ECDF
:100D980008F08CEC0DF0566EA4EC08F08CEC0DF01D
:100DA80063D02A50456E1D0EF2EC0CF029C045F0B8
:100DB8001E0EF2EC0CF08CEC08F08CEC0DF0566E7C
:100DC80098EC08F08CEC0DF04FD02A50456E1F0EB1
:100DD800F2EC0CF029C045F0200EF2EC0CF0ACEC73
:100DE80008F08CEC0DF0566E88EC08F08CEC0DF0E9
:100DF8003BD02A50456E210EF2EC0CF029C045F08C
:100E0800220EF2EC0CF080EC08F08CEC0DF0566E33
:100E180074EC08F08CEC0DF027D02A50456E230EA8
:100E2800F2EC0CF029C045F0240EF2EC0CF09CEC2E
:100E380008F08CEC0DF0566E7CEC08F08CEC0DF0A4
:100E480013D02A50456E250EF2EC0CF029C045F05F
:100E5800260EF2EC0CF090EC08F08CEC0DF0566ECF
:100E6800A8EC08F08CEC0DF07BD820D02A50456E09
:100E7800270EF2EC0CF029C045F0280EF2EC0CF02D
:100E880015D0335001E151D7010A01E162D7030AB5
:100E980001E173D7010A85E0070A97E0010AA9E092
:100EA800030ABBE0010ACDE00F0AE0E0332A080E8E
:100EB80033640AD5336A010E636EECEC07F004D58F
:100EC8006350010A02E1C0EF00F0030A01E100D516
:100ED800010A02E1B6EF00F0070A01E19CD5010A18
:100EE80001E170D6030A01E174D6010A01E11ED5B9
:100EF8000F0A01E159D5B6EF00F045C04CF046C0E5
:100F08004DF04F6A0A0E4E6E0A0C476E5DC045F0F2
:100F18005EC046F01200476E5FC045F060C046F004
:100F280012004F6A0A0E4E6E0A0C5FC04CF060C089
:100F38004DF012005DC04CF05EC04DF0120045C08F
:100F48004DF046C04EF0506A0A0E4F6E0A0C030E62
:100F5800486EE80C476E29C045F02AC046F01200DA
:100F6800576E5650296E57C02AF0120029C04DF00E
:100F78002AC04EF0506A0A0E4F6E0A0C020E496ED5
:100F8800010C476E27C045F028C046F01200636E7A
:100F9800010E496E010C020E496E0A0C566E466A25
:100FA800170E456E170CDD0E466E1F0E476E1200AB
:100FB800D90E466E1F0E476E1200466A180E456E11
:100FC800180C466A0A0E456E0A0C020E496E0B0C86
:100FD800CFEC07F058EC0DF066D0E1EC07F08CECA4
:100FE8000DF04C6E466A170E456E8CEC0DF06ED8FF
:100FF800310E9CEF0DF084D88CEC0DF04C6E6CD853
:101008008CEC0DF063D8320E9CEF0DF095D88CEC7B
:101018000DF04C6E69D88CEC0DF058D8330E9CEF5F
:101028000DF07ED88CEC0DF04C6E8AD88CEC0DF05F
:101038004DD8340E9CEF0DF06BD88CEC0DF04C6E47
:1010480073D88CEC0DF042D8350E9CEF0DF080D89B
:101058008CEC0DF04C6E58D88CEC0DF037D8360E61
:101068009CEF0DF049D88CEC0DF04C6E39D88CEC17
:101078000DF02CD8370E9CEF0DF05AD88CEC0DF0F3
:101088004C6E36D88CEC0DF021D8380E9CEF0DF054
:1010980043D88CEC0DF04C6E57D88CEC0DF016D86C
:1010A800390E9CEF0DF0335098E0010AA4E0030AD2
:1010B800ADE0010AB6E0070ABFE0010AC8E0030A8A
:1010C800D1E0010ADAE00F0AE3E012004D6E4C505D
:1010D800296E4DC02AF01200466A190E456E190C89
:1010E800466A230E456E230C466A1B0E456E1B0C82
:1010F800466A250E456E250C466A240E456E240C5C
:10110800466A1A0E456E1A0C466A210E456E210C67
:10111800466A200E456E200C466A280E456E280C3D
:10112800466A1E0E456E1E0C466A1F0E456E1F0C43
:10113800466A260E456E260C466A1C0E456E1C0C29
:10114800466A1D0E456E1D0C466A270E456E270C15
:10115800466A220E456E220C899489921A0E4A6EAE
:10116800F80EE82EFED74A2EFCD700D01A0E4A6E8B
:10117800F80EE82EFED74A2EFCD700D01A0E4A6E7B
:10118800F80EE82EFED74A2EFCD700D01A0E4A6E6B
:10119800F80EE82EFED74A2EFCD700D0030E77ECC7
:1011A8000AF00D0E4A6EFC0EE82EFED74A2EFCD72A
:1011B800030E77EC0AF00D0E4A6EFC0EE82EFED7F1
:1011C8004A2EFCD7030E77EC0AF00D0E4A6EFC0E81
:1011D800E82EFED74A2EFCD7020E77EC0AF00D0E49
:1011E8004A6EFC0EE82EFED74A2EFCD7000E476E3C
:1011F800280E16EC0DF00D0E4A6EFC0EE82EFED7EA
:101208004A2EFCD7000E476E0C0E16EC0DF0150E8C
:101218004A6EC60EE82EFED74A2EFCD700D074ECD4
:101228000DF00D0E4A6EFC0EE82EFED74A2EFCD7A6
:10123800000E476E060E16EC0DF00D0E4A6EFC0EF3
:10124800E82EFED74A2EFCD774EC0DF089841200E4
:101258005DD0AFEC0CF00009D8A4000CCC0E61EC0A
:101268000CF0440E61EC0CF04D50D96EDA6ADF6A6E
:101278004C50D96EDA6A020EDF6ECD80000C526ACD
:10128800F29EAFEC0CF0550E61EC0CF0536A525024
:10129800080DF350110F5324D96EDA6ADF5061EC50
:1012A8000CF0532A070E5364F2D7BE0E61EC0CF013
:1012B800536A5350370FD96EDA6A46EC0CF0DF6E7A
:1012C800532A080E5364F5D7370E456E090E466E3D
:1012D800BEEC0BF000090CE138504E6E3750506EE2
:1012E8004EC051F01CD850C0DEFF51C0DDFF04D005
:1012F80016D8DE687F0EDD6EF28E522A010E526419
:10130800BFD74C50D96EDA6ADF6A010C4C50D96EDF
:10131800DA6ADF509EE0010AB2E0030A000C52507C
:10132800020DF350210FD96EDA6A120046D04FD859
:1013380016EC0DF0060E4E6E300EE82EFED74E2E31
:10134800FCD700D038D0C2EC07F058EC0DF033D001
:10135800000E476E100E16EC0DF02DD04CC0F6FFA7
:101368004DC0F7FFC00E0800F56006D0010E476EAD
:1013780027D816EC0DF01FD0010E476E400E4E6EAA
:101388004F681ED8506E516A4E5050264F50512209
:101398008F0E5024F66E1E0E5120F76E0800F55081
:1013A80016EC0DF008D00CD8080AD2E0020ACBE0FF
:1013B800060ABDE0D3D74C4A4D2A02D8F4E1120000
:1013C8004CC0F6FF4DC0F7FF0800F5501200000EA4
:1013D800476E010C476E4750020DF3501F0FD96E30
:1013E800DA6ADECF49F0DDCF4AF04550D96EDA6AC5
:1013F8002B0EDF6E492808E17F0E4A1805E149C027
:1014080045F04AC046F012004AAE09D0496C4A1E5F
:10141800D8B04A2A4550D96EDA6A2D0EDF6E495087
:101428000F0B486ECF0E4824F66EF76A1E0EF72291
:101438000800F5CF48F0493A4A3A0F0E49164A5083
:10144800F00B49120F0E4A1649500A0DF3CF49F016
:10145800F4CF4AF048504926000E4A22D0D7806A75
:10146800896A926A816A8A6A060E936E826A8B6AB0
:10147800946AD390D382700ED3120F0EC112808C4F
:10148800F0EC0AF0800ECD6E3C0ECF6EB00ECE6E34
:101498009F80F80ED516D586D59CD59AD58EB10ED7
:1014A800D76EE00ED66EF28AF194F19E9D80D08EB2
:1014B800F28CF28EB0EC08F066EC0DF0E70E496E97
:1014C8001E0E4A6E010E4B6E96EC0CF0DF0E496E46
:1014D8001E0E4A6E020E4B6E96EC0CF08B98669CB4
:1014E800669A66981200466E46A003D0456A452A59
:1014F80001D0456A8B504518FE0B45188B6E46A2E5
:1015080003D0456A452A01D0456A45468B5045189F
:10151800FD0B45188B6E46A403D0456A452A01D0B9
:10152800456A19D8FB0B45188B6E46A603D0456A49
:10153800452A01D0456A45460ED8F70B45188B6EEB
:101548008982420EE82EFED700D08992420EE82EFC
:10155800FED700D01200454645468B50451812006C
:101568004A6A48AE06D0476C481ED8B0482A010ED1
:101578004A6E46AE06D0456C461ED8B0462A010EC5
:101588004A1A4B6A4C6A475048101BE0010E496ED4
:1015980004D0D89047364836492A48AEFAD7D8906A
:1015A8004B364C364750455C4850465805E3475043
:1015B800455E4850465A4B80D89048324732492EAB
:1015C800EED74A5004E04B6C4C1ED8B04C2A4BC0A6
:1015D80045F04CC046F01200AFEC0CF000090FE1EA
:1015E800CC0E61EC0CF04E0E61EC0CF0000E61ECD0
:1015F8000CF0000E61EC0CF07F0E61EC0CF04D6A03
:101608004E6A4D50080DF350110F4E24D96EDA6A08
:101618004D504B6E4C6AD8904B364C36D8904B3662
:101628004C36D8904B364C364E504B24456E000EF7
:101638004C20466E8CEC0DF0DF6E4E2A070E4E6481
:10164800E0D74D2A010E4D64DBD7010C526A4EAE2D
:1016580006D04D6C4E1ED8B04E2A010E526E50AEBA
:1016680004D04F6C501ED8B0502A4F50501017E07D
:10167800010E516E04D0D8904F365036512A50AED4
:10168800FAD74F504D5C50504E5804E34F504D5EC2
:1016980050504E5AD89050324F32512EF2D75250A5
:1016A80004E04D6C4E1ED8B04E2A4DC04DF04EC0D1
:1016B8004EF01200546EAFEC0CF000090CE1330E42
:1016C80061EC0CF0556A24D846EC0CF0DF6E552A14
:1016D800070E5564F8D74C0E456E080E466EBEECE4
:1016E8000BF0000914E1556A13D8DF50456E5450C9
:1016F800080DF3505524F80FF2EC0CF0552A070E9C
:101708005564F2D7E5EC07F004EC0DF0010C000C81
:1017180055504C0FD96EDA6A120081A281B402D0FA
:10172800030E07D081B202D0010E03D081B403D0DA
:10173800020E456E01D0456A455019E02D0E255C14
:10174800010E265809E3010E266E220E256E45C0AD
:101758002EF0010E366E010C254A262A0F0E25188A
:101768002610D8A4120045C02EF0366A1200256A49
:10177800266A12004B6A4A6A1DD045504A24D96E1F
:10178800DA6ADF50486E080E476E4B504818010B56
:10179800496E490402E1180E4B1AD8904B307F0B62
:1017A8004B6E490401E14B8ED890483247064750AA
:1017B800ECE14A2A46504A18E0E14B501200496AC7
:1017C8004A6A475048101BE0010E4B6E04D0D8906F
:1017D800473648364B2A48AEFAD7D89049364A3663
:1017E8004750455C4850465805E34750455E4850C9
:1017F800465A4980D890483247324B2EEED749C0D6
:1018080045F04AC046F012002A0EF66E1B0EF76E1F
:10181800000EF86E00EE59F010EE0DF00900F5CF4D
:10182800EEFFE550E150FAE1676A666A00EE01F002
:10183800410EEE6AE806FDE168906892000EF86EC7
:1018480000014FEF00F04E504F1017E0010E506EA0
:1018580004D0D8904E364F36502A4FAEFAD74E5055
:101868004C5C4F504D5804E34E504C5E4F504D5A0F
:10187800D8904F324E32502EF2D74CC04CF04DC05B
:101888004DF01200476A486A81EC0DF000090CE03F
:1018980048C045F0010E466E452A02D0D89046361B
:1018A800452EFCD746504712500EE82EFED7482A40
:1018B800070E4864E9D747501200486E4A6A4AC082
:1018C80046F048C047F0462A02D0D8904732462E04
:1018D800FCD74750496E010E4916495049EC0DF0A6
:1018E8004A2A070E4A64EBD7460EE82EFED71200A6
:1018F800466E486A455014E0010E476E03D0D890F2
:101908004536472A45AEFBD7D89048364550465C01
:1019180003E34550465E4880D8904532472EF4D7B9
:1019280048501200476A4B50080DF350400916EC16
:101938000DF04C6A010E476E49C0F6FF4AC0F7FF2A
:101948000800F55016EC0DF0494A4A2A4C2A070EB1
:101958004C64F0D7070C809C929CC80E00D0E82EEF
:10196800FDD7808C928C420EE82EFED700D0000E58
:1019780080BC010E456EA90E00D0E82EFDD700D020
:1019880000F045501200456E2C50FEE09DB805D081
:101998009EA8FED745C0ADFF12009D982D50010F9F
:1019A800D96EDA6A45C0DFFF2D2A0F0E2D6401D0EB
:1019B8002D6A2C0612004A6E080E4B6E4C6AD8909F
:1019C8004A344C344C6ED8904A3649504C5C02E349
:1019D80049504C5E4B2EF3D74C501200466EA6B2BF
:1019E800FED746C0A9FF45C0A8FFA69EA69CA68410
:1019F800F29E550EA76EAA0EA76EA682F28EAA0CAC
:101A0800486A496A09D0030E476E980EE82EFED739
:101A1800472EFCD7484A492A4850455C4950465801
:101A2800F2E21200486E475002E1899401D089849D
:101A3800420EE82EFED700D048380F0B77EC0AF09C
:101A480048500F0B77EF0AF09EA00DD09E903C0EE9
:101A5800CF6EB00ECE6E412A1D0E416404D0416A8D
:101A6800010E406ECD906892110005D007D8C7ECE2
:101A78000CF0464A472A02D8F9E1120046C0F6FFA0
:101A880047C0F7FF0800F5501200456E809C929CF5
:101A9800450404E100D000D0808C928C460EE82EDC
:101AA800FED7808C928C12004A6E490403E0400EE7
:101AB8004B6E01D04B6A4A044B26476A4B5080094B
:101AC80016EF0DF0949C948EAC98AC8AAB88AB8ED4
:101AD800AC84330EAF6E2D6A100E2C6E2B6A12007A
:101AE800EBEC09F016EC0DF0060E496E300EE82E00
:101AF800FED7492EFCD700D01200809C929C00D0C3
:101B0800808C928C040EE82EFED780BC010C000C51
:101B1800A6B2FED745C0A9FFA69EA69CA680A8503F
:0F1B28001200FF7FFF7FFF7FFF7F0101012B2B4B
:101B3800496E010E476E495016EF0DF02EC045F064
:061B48002E6A4550120058
:101E8E000041A042A1E045A3A4A5A64BA74D484FF3
:101E9E00A8504354A9AA58E1ABACE2ADAE62AFB0C4
:101EAE00B161B2B3B4E365B6B7B8B9BABBBCBD6F76
:101EBE00BE7063BF79E478E5C0C1E6C2C3C4C5C6CF
:101ECE00C7000101020203040405060607070809FC
:101EDE00090609090600000F0006090906000000A0
:101EEE000020CAEEE420EFF0EEF7E8F2E0EDEE208F
:101EFE00002D2D2DD2C5D0CCCECCC5D2D02D2D2D92
:101F0E0000C4E0F2F7E8EA20312C20E0E1EE2032C6
:101F1E0000202031202020202032202020312D3280
:101F2E00002863294976616E5F66642076312E350E
:101F3E0000CFEEF069E320D1E8E3ED2E204C65648E
:101F4E000020CAEEEBEEEDE020202020CAF3E100E7
:101F5E00D2E5ECEF20CDE8E73A202020202000CA81
:101F6E00EEEB2831292FCAF3E12832293A0020203E
:101F7E0020C3F0E0EDE8F66920202000202020208C
:101F8E00CAF3E1EEE2E020200020202020CAEEEB92
:101F9E00EEEDE0202000C2E8E169F0203138423257
:101FAE00303A00D2E5ECEF20C2E5F0F53A00C7E09A
:101FBE00E2E4E0EDEDFF00303030300D0A0030305D
:101FCE00303000CAE13A00CAEB3A0074623A00744B
:101FDE006B3A00313A00323A00333A00343A003567
:101FEE003A00363A00373A00383A00393A003100B2
:011FFE0000E2
:020000040020DA
:08000000FFFFFFFFFFFFFFFF00
:020000040030CA
:0E000000FF080A1EFF8181FF0FC00FE00F40B6
:00000001FF
