:020000040000FA
:040000004CEF00F0D1
:060008005082E0EF0AF057
:100018005080D8CF2EF0E8CF2FF0E0CF30F0F2A408
:100028002FD0F294B10ED76EE00ED66E468246A05F
:1000380026D01C2A45AC0AD00B0E1C6002D08B8837
:1000480001D08B98500E1C6401D01C6A45AA0AD0B6
:10005800100E1C6002D08B8801D08B98320E1C6465
:1000680001D01C6A45A80CD00B0E1C6002D08B88EE
:1000780001D08B98190E1C6403D01C6A01D08B9890
:1000880030C0E0FF2FC0E8FF2EC0D8FF509010000E
:10009800D8EF09F0C0EC08F0010E356E00EC0BF05B
:1000A8001F0E386E1F0E396EEAEC07F0B9EC06F039
:1000B80000EC0BF02F0E386E1F0E396EEAEC07F0CD
:1000C800070E326ED00E316EBCEC0AF00EEC0BF05F
:1000D80081B217D00EEC0BF0020EC8EC06F000EC63
:1000E8000BF03F0E386E1F0E396EEAEC07F0B9ECD4
:1000F80006F000EC0BF0C40E386E1F0E396EEAECF9
:1001080007F0326A100E316E26EC0BF0206E326A60
:10011800110E316E26EC0BF01F6E326A130E316E23
:1001280026EC0BF0426E326A120E316E26EC0BF0A2
:10013800436E4250196E43C01AF0326A150E316E82
:1001480026EC0BF0426E326A140E316E26EC0BF080
:10015800436E4250176E43C018F046A203D067ECB6
:1001680009F0469235EC0BF0226E6DEF06F02C0E7E
:10017800386E2D0E396E7CEC07F0000901E106D3CC
:100188004F0E316E010E3EEC08F031C049F032C01E
:100198004AF04E0E316E020E3EEC08F031C047F0C8
:1001A80032C048F0F3D2010E356E00EC0BF0EF0EC2
:1001B800386E1F0E396EEAEC07F0492804E17F0E0D
:1001C8004A1801E1BCD0B6EC06F09BEC06F0B3ECA3
:1001D80009F089EC06F0F7EC09F0385039106EE1B7
:1001E800346A640E9BEC06F0B3EC09F089EC06F077
:1001F800F7EC09F0385039102BE14F502FEC0BF089
:10020800346A0A0E9BEC06F0B3EC09F089EC06F0B0
:10021800F7EC09F03850300F2FEC0BF02E0E2FECC6
:100228000BF0ACEC06F091EC06F0F7EC09F0385066
:10023800300F2FEC0BF0010E2FEC0BF0200E2FECF3
:100248000BF0200E2FEC0BF0200E2FEC0BF08CD0C7
:100258004F502FEC0BF0346A640E9BEC06F0B3ECB5
:1002680009F089EC06F0F7EC09F03850300F2FEC64
:100278000BF0346A0A0E9BEC06F0B3EC09F089EC3B
:1002880006F0F7EC09F03850300F2FEC0BF02E0E7B
:100298002FEC0BF0ACEC06F091EC06F0F7EC09F063
:1002A8003850300F2FEC0BF0010E2FEC0BF0200E16
:1002B8002FEC0BF0200E2FEC0BF056D04F502FECFC
:1002C8000BF0B6EC06F09BEC06F0B3EC09F089EC09
:1002D80006F0F7EC09F03850300F2FEC0BF0346AC9
:1002E800640E9BEC06F0B3EC09F089EC06F0F7EC31
:1002F80009F03850300F2FEC0BF0346A0A0E9BECE3
:1003080006F0B3EC09F089EC06F0F7EC09F0385088
:10031800300F2FEC0BF02E0E2FEC0BF0ACEC06F0A0
:1003280091EC06F0F7EC09F03850300F2FEC0BF099
:10033800010E2FEC0BF0200E2FEC0BF015D02D0E2C
:100348002FEC0BF02D0E2FEC0BF02D0E2FEC0BF0ED
:10035800200E2FEC0BF0200E2FEC0BF0200E2FECC4
:100368000BF0200E2FEC0BF0DFEC06F000EC0BF09E
:1003780045A204D0ED0E2FEC0BF003D0D50E2FECD8
:100388000BF0B9EC06F000EC0BF0CE0E2FEC0BF0F6
:10039800346A640EBCEC06F0B3EC09F089EC06F0A4
:1003A800F7EC09F03850300F2FEC0BF0346A0A0ED6
:1003B800BCEC06F0B3EC09F089EC06F0F7EC09F0B8
:1003C8003850300F2FEC0BF02E0E2FEC0BF017C01F
:1003D80038F018C039F091EC06F0F7EC09F0385015
:1003E800300F2FEC0BF0010E2FEC0BF0200E2FEC42
:1003F8000BF0D90E2FEC0BF0D5EC06F04CEC0AF014
:1004080097EC0AF0300F2FEC0BF02E0E2FEC0BF0C0
:10041800ECEC06F097EC0AF0300F2FEC0BF0200E06
:100428002FEC0BF0DA0E2FEC0BF0CCEC06F04CECCA
:100438000AF097EC0AF0300F2FEC0BF02E0E2FEC91
:100448000BF0FCEC06F097EC0AF0300F2FEC0BF0F9
:10045800A4D1010E356E00EC0BF0E70E386E1F0EBE
:10046800396EEAEC07F0472804E17F0E481801E1ED
:10047800B0D0B6EC06F0A1EC06F0B3EC09F089ECCC
:1004880006F0F7EC09F0385039106BE1346A640E65
:10049800A1EC06F0B3EC09F089EC06F0F7EC09F0F2
:1004A800385039102BE14E502FEC0BF0346A0A0EFD
:1004B800A1EC06F0B3EC09F089EC06F0F7EC09F0D2
:1004C8003850300F2FEC0BF02E0E2FEC0BF0B1EC58
:1004D80006F091EC06F0F7EC09F03850300F2FECED
:1004E8000BF0010E2FEC0BF0200E2FEC0BF0200E72
:1004F8002FEC0BF0200E2FEC0BF080D04E502FEC91
:100508000BF0346A640EA1EC06F0B3EC09F0FDDBE5
:10051800F7EC09F03850300F2FEC0BF0346A0A0E64
:10052800A1EC06F0B3EC09F0F0DBF7EC09F0385079
:10053800300F2FEC0BF02E0E2FEC0BF0B1EC06F079
:10054800ECDBF7EC09F03850300F2FEC0BF0010E14
:100558002FEC0BF0200E2FEC0BF0200E2FEC0BF0F5
:100568004DD04E502FEC0BF0FDDBE7DBB3EC09F080
:10057800CCDBF7EC09F03850300F2FEC0BF0346A75
:10058800640EDBDBB3EC09F0C0DBF7EC09F03850A4
:10059800300F2FEC0BF0346A0A0ECFDBB3EC09F006
:1005A800B4DBF7EC09F03850300F2FEC0BF02E0EBF
:1005B8002FEC0BF0D2DBB1DBF7EC09F03850300F41
:1005C8002FEC0BF0010E2FEC0BF0200E2FEC0BF0A4
:1005D80015D02D0E2FEC0BF02D0E2FEC0BF02D0E51
:1005E8002FEC0BF0200E2FEC0BF0200E2FEC0BF065
:1005F800200E2FEC0BF0200E2FEC0BF0DCDB00ECC8
:100608000BF045A004D0ED0E2FEC0BF003D0D50E67
:100618002FEC0BF0AADB00EC0BF0F70E386E1F0E78
:10062800396EEAEC07F02B0E2FEC0BF09BDB79DB35
:10063800B3EC09F06ADBF7EC09F0385039103BE00D
:1006480091DB6FDBB3EC09F060DBF7EC09F03850B5
:10065800300F2FEC0BF0346A640E63DBB3EC09F057
:1006680054DBF7EC09F03850300F2FEC0BF0346AFC
:100678000A0E57DBB3EC09F048DBF7EC09F0385009
:10068800300F2FEC0BF02E0E2FEC0BF05CDB45DB64
:10069800F7EC09F03850300F2FEC0BF0010E2FEC6F
:1006A8000BF0200E2FEC0BF0200E2FEC0BF0200E91
:1006B8002FEC0BF072D0346A640E33DBB3EC09F024
:1006C80024DBF7EC09F03850391033E0346A640E53
:1006D80028DBB3EC09F019DBF7EC09F03850300FE0
:1006E8002FEC0BF0346A0A0E1CDBB3EC09F00DDBBF
:1006F800F7EC09F03850300F2FEC0BF02E0E2FECE2
:100708000BF021DB0ADBF7EC09F03850300F2FEC47
:100718000BF0010E2FEC0BF0200E2FEC0BF0200E3F
:100728002FEC0BF0200E2FEC0BF0200E2FEC0BF023
:1007380034D0346A0A0EF5DAB3EC09F0E6DAF7ECED
:1007480009F03850300F2FEC0BF02E0E2FEC0BF079
:10075800FADAE3DAF7EC09F03850300F2FEC0BF047
:10076800010E2FEC0BF0200E2FEC0BF0200E2FECCF
:100778000BF0200E2FEC0BF0200E2FEC0BF0200EC0
:100788002FEC0BF0200E2FEC0BF007D04C50010A89
:1007980001E109D5030A01E15CD645AE45D045A281
:1007A8001DD020501724426E000E1820436E425070
:1007B800495C43504A580BE21F50175C426E000ECA
:1007C8001858436E4950425C4A50435807E3492839
:1007D80003E17F0E4A1802E0458601D0459645A000
:1007E8000CD01950475C1A50485807E3472803E1D2
:1007F8007F0E481802E0458401D0459445B645A4CB
:1008080005D04680459C459A458810D045A405D01A
:100818004680459C4598458A09D045A606D046801D
:10082800458C4598459A02D08B984690220415E14C
:100838000EEC0BF0070EA8DA00EC0BF05F0E386E2A
:100848001F0E396EEAEC07F090DA00EC0BF04F0E51
:10085800386E1F0E396EEAEC07F0020E221805E119
:100868004C04020ED8A4010E4C6E030E221810E0A0
:1008780074D449C017F04AC018F018C031F0140EEB
:10088800AAEC0AF017C031F0150EAAEC0AF004D051
:100898004C50010AEEE0030AA7DABCEC0AF05DD47A
:1008A800020E356E0E0E00EC0BF04B50300F2FEC95
:1008B8000BF0220406E14B2A030E4B1802E1010E4D
:1008C8004B6E020E221805E14B064B5002E1020E58
:1008D8004B6E030E221801E040D44B5034EC09F063
:1008E800000909E042DA00EC0BF0FF0E386E1E0E2C
:1008F800396EEAEC07F0030E38D0220415E10EEC4D
:100908000BF0040E41DA00EC0BF09C0E386E1F0E53
:10091800396EEAEC07F029DA00EC0BF08D0E386E30
:100928001F0E396EEAEC07F0020E22180CE10EECED
:100938000BF0080E29DA00EC0BF06F0E386E1F0E64
:10094800396EEAEC07F0030E221801E006D48BBAE0
:1009580003D0426A422A01D0426A423A42468B5048
:100968004218DF0B42188B6E010E4D6EB1EF00F08E
:10097800020E356E040E00EC0BF045A204D0ED0E0D
:100988002FEC0BF003D0D50E2FEC0BF0020E356ECA
:100998000D0E00EC0BF045A004D0ED0E2FEC0BF083
:1009A80003D0D50E2FEC0BF0220405E145B202D09E
:1009B800458201D04592020E221805E145B002D0C9
:1009C800458001D04590030E221802E0B1EF00F0F7
:1009D80045A245B002D0459EC7D7458EC5D7020E61
:1009E800356E100E00EC0BF04B50300F2FEC0BF067
:1009F800220406E14B2A030E4B1802E1010E4B6E4E
:100A0800020E221805E14B064B5002E1020E4B6E16
:100A1800030E221802E0B1EF00F04B0419E1050EB5
:100A2800DBD90EEC0BF0010E356E00EC0BF0B70EB7
:100A3800386E1F0E396EEAEC07F097D900EC0BF010
:100A4800D10E386E1F0E396EEAEC07F0B1EF00F0E8
:100A5800060EC2D90EEC0BF0010E356E00EC0BF051
:100A6800AA0E386E1F0E396EEAEC07F07ED900EC3C
:100A78000BF0DC0E386E1F0E396EEAEC07F019C069
:100A880031F01AC032F0346A0A0E336EB3EC09F052
:100A980031501E6E58D941D9F7EC09F038501D6E07
:100AA800B1EF00F08ED900EC0BF02B0E2FEC0BF011
:100AB80078D94CEC0AF097EC0AF0300F2FEC0BF0D9
:100AC8002E0E2FEC0BF084D997EC0AF0300F2FEC98
:100AD8000BF0220405E1202A0B0E201801E1206A00
:100AE800020E221805E12006202802E10A0E206ED7
:100AF800030E221802E0B1EF00F04FD900EC0BF022
:100B08007E0E386E1F0E396EEAEC07F0B1EF00F07A
:100B180055D900EC0BF02D0E2FEC0BF039D94CEC1D
:100B28000AF097EC0AF0300F2FEC0BF02E0E2FEC9A
:100B38000BF05ED997EC0AF0300F2FEC0BF0220483
:100B480005E11F2A0B0E1F1801E11F6A020E221869
:100B580005E11F061F2802E10A0E1F6E030E221868
:100B680002E0B1EF00F0010E4D6E20C031F0100E22
:100B7800AAEC0AF01FC031F0110EAAEC0AF0B1EF8E
:100B880000F02150010A8EE0030AC2E0B1EF00F044
:100B980018D900EC0BF02B0E2FEC0BF0EFD84CEC27
:100BA8000AF097EC0AF0300F2FEC0BF0FFD84CEC62
:100BB8000AF097EC0AF0300F2FEC0BF011D997ECF4
:100BC8000AF0300F2FEC0BF02E0E2FEC0BF0FCD8A8
:100BD80097EC0AF0300F2FEC0BF0220405E11E2AE7
:100BE800680E1E6401D01E6A020E221805E11E0658
:100BF8001E2802E1690E1E6E030E221802E0B1EFF4
:100C080000F0CBD800EC0BF00F0E386E1F0E396ECB
:100C1800EAEC07F0B1EF00F0D1D800EC0BF02B0EA6
:100C28002FEC0BF0ABD84CEC0AF097EC0AF0300F35
:100C38002FEC0BF0BBD84CEC0AF097EC0AF0300F15
:100C48002FEC0BF0CDD897EC0AF0300F2FEC0BF00F
:100C58002E0E2FEC0BF0B8D897EC0AF0300F2FECD3
:100C68000BF0200E2FEC0BF0220405E11D2A0A0ED2
:100C78001D1801E11D6A020E221805E11D061D2836
:100C880002E1090E1D6E030E221802E0B1EF00F01A
:100C9800010E4D6E1E500A0DF3CF42F0F4CF43F013
:100CA8001D504224196E000E43201A6E1AC031F0EE
:100CB800120EAAEC0AF019C031F0130EAAEC0AF0D1
:100CC800EBD52150010A01E163D7030AA5E0B1EF92
:100CD80000F04D50010A02E1BBEF00F0030A01E108
:100CE800DFD5010A02E1B1EF00F0070A01E177D68A
:100CF800010A01E146D7030AE4E0010A01E1FDD552
:100D08000F0A01E135D6B1EF00F031C038F032C03A
:100D180039F03B6A0A0E3A6E0A0C3B6A0A0E3A6EC2
:100D28000A0C336E19C031F01AC032F01200336E5B
:100D380049C031F04AC032F01200336E47C031F07A
:100D480048C032F0120019C038F01AC039F0120049
:100D580049C038F04AC039F0120047C038F048C0DE
:100D680039F01200030E346EE80C020E356E010CD9
:100D7800336E17C031F018C032F012000A0E356E0B
:100D8800640E316E1E5012004D6E010E356E010C50
:100D98000A0E356E316E1F501200020E216E356E2E
:100DA800010C0A0E356E316E205012000A0E356E97
:100DB800316E1E501200010E356E100C020E356E8B
:100DC8000A0C020E356E0B0C0A0E356E1D50120001
:100DD8000A0E356E205012004D6E010E216E010C68
:100DE8000A0E356E1E501200326A0A0E316E0A0C57
:100DF8000A0E356E1F501200899489921A0E366EAB
:100E0800F80EE82EFED7362EFCD700D01A0E366E16
:100E1800F80EE82EFED7362EFCD700D01A0E366E06
:100E2800F80EE82EFED7362EFCD700D01A0E366EF6
:100E3800F80EE82EFED7362EFCD700D0030E83EC32
:100E480008F00D0E366EFC0EE82EFED7362EFCD7B7
:100E5800030E83EC08F00D0E366EFC0EE82EFED75E
:100E6800362EFCD7030E83EC08F00D0E366EFC0E02
:100E7800E82EFED7362EFCD7020E83EC08F00D0EB6
:100E8800366EFC0EE82EFED7362EFCD7000E336EDB
:100E9800280ECEEC0AF00D0E366EFC0EE82EFED7AC
:100EA800362EFCD7000E336E0C0ECEEC0AF0150E63
:100EB800366EC60EE82EFED7362EFCD700D00EECC6
:100EC8000BF00D0E366EFC0EE82EFED7362EFCD734
:100ED800000E336E060ECEEC0AF00D0E366EFC0ECA
:100EE800E82EFED7362EFCD70EEC0BF089841200C4
:100EF8005DD07FEC0AF00009D8A4000CCC0E31ECD0
:100F08000AF0440E31EC0AF03950D96EDA6ADF6A19
:100F18003850D96EDA6A020EDF6ECD80000C3E6A58
:100F28007FEC0AF0550E31EC0AF03F6A3E50080D8E
:100F3800F350010F3F24D96EDA6ADF5031EC0AF022
:100F48003F2A070E3F64F2D7BE0E31EC0AF0F29E3C
:100F58003F6A3F50230FD96EDA6A16EC0AF0DF6E4B
:100F68003F2A080E3F64F5D7230E316E090E326E04
:100F78008EEC09F000090CE124503A6E23503C6EC7
:100F88003AC03DF01CD83CC0DEFF3DC0DDFF04D0B8
:100F980016D8DE687F0EDD6EF28E3E2A010E3E64A4
:100FA800BFD73850D96EDA6ADF6A010C3850D96E6B
:100FB800DA6ADF509EE0010AB2E0030A000C3E50F4
:100FC800020DF350110FD96EDA6A120046D04FD8CD
:100FD800CEEC0AF0060E3A6E300EE82EFED73A2E08
:100FE800FCD700D038D0B9EC06F000EC0BF033D0C9
:100FF800000E336E100ECEEC0AF02DD038C0F6FF7E
:1010080039C0F7FFC00E0800F56006D0010E336E38
:1010180027D8CEEC0AF01FD0010E336E400E3A6E80
:101028003B681ED83C6E3D6A3A503C263B503D22F8
:10103800A70E3C24F66E1E0E3D20F76E0800F550F4
:10104800CEEC0AF008D00CD8080AD2E0020ACBE0AD
:10105800060ABDE0D3D7384A392A02D8F4E112008B
:1010680038C0F6FF39C0F7FF0800F5501200000E2F
:10107800336E010C336E3350020DF3500F0FD96EDF
:10108800DA6ADECF35F0DDCF36F03150D96EDA6A64
:101098002B0EDF6E352808E17F0E361805E135C0C6
:1010A80031F036C032F0120036AE09D0356C361E3B
:1010B800D8B0362A3150D96EDA6A2D0EDF6E355027
:1010C8000F0B346EE70E3424F66EF76A1E0EF72205
:1010D8000800F5CF34F0353A363A0F0E351636504B
:1010E800F00B35120F0E361635500A0DF3CF35F0CA
:1010F800F4CF36F034503526000E3622D0D7326E73
:1011080032A003D0316A312A01D0316A8B503118AC
:10111800FE0B31188B6E32A203D0316A312A01D00E
:10112800316A31468B503118FD0B31188B6E32A461
:1011380003D0316A312A01D0316A19D8FB0B311832
:101148008B6E32A603D0316A312A01D0316A31461A
:101158000ED8F70B31188B6E8982420EE82EFED717
:1011680000D08992420EE82EFED700D012003146F8
:1011780031468B5031181200806A896A926A816AF6
:101188008A6A060E936E826A8B6A946AD390D382B7
:10119800700ED3120F0EC112808CFAEC08F0800E7C
:1011A800CD6E3C0ECF6EB00ECE6E9F80F80ED5166B
:1011B800D586D59CD59AD58EB10ED76EE00ED66E53
:1011C800F28AF194F19E9D80D08EF28CF28E00EC22
:1011D80007F0F70E356E1E0E366E010E376E66EC92
:1011E8000AF08B98459C459A459812007FEC0AF0C6
:1011F80000090FE1CC0E31EC0AF04E0E31EC0AF08A
:10120800000E31EC0AF0000E31EC0AF07F0E31ECE2
:101218000AF0396A3A6A3950080DF350010F3A2436
:10122800D96EDA6A3950376E386AD8903736383618
:10123800D89037363836D890373638363A5037243B
:10124800316E000E3820326E26EC0BF0DF6E3A2A33
:10125800070E3A64E0D7392A010E3964DBD7010C4E
:10126800406E7FEC0AF000090CE1330E31EC0AF015
:10127800416A24D816EC0AF0DF6E412A070E416451
:10128800F8D7380E316E080E326E8EEC09F0000970
:1012980014E1416A13D8DF50316E4050080DF35005
:1012A8004124F80FAAEC0AF0412A070E4164F2D74C
:1012B800F8EC06F0BCEC0AF0010C000C4150380FB9
:1012C800D96EDA6A120081A281B402D0030E07D067
:1012D80081B202D0010E03D081B403D0020E316E68
:1012E80001D0316A315013E02D0E155C010E1658ED
:1012F80007E3010E166E220E156E31C01BF01200A8
:10130800154A162A0F0E15181610F7E01200156A5E
:10131800166A1200376A366A1DD031503624D96EE3
:10132800DA6ADF50346E080E336E37503418010B0A
:10133800356E350402E1180E371AD89037307F0B16
:10134800376E350401E1378ED89034323306335086
:10135800ECE1362A32503618E0E137501200356A8F
:10136800366A335034101BE0010E376E04D0D89023
:1013780033363436372A34AEFAD7D890353636363F
:101388003350315C3450325805E33350315E3450B9
:10139800325A3580D89034323332372EEED735C0B2
:1013A80031F036C032F01200740EF66E160EF76E7B
:1013B800000EF86E00EE47F010EE09F00900F5CFC8
:1013C800EEFFE550E150FAE1466A456A00EE01F0A9
:1013D8002D0EEE6AE806FDE150905092000EF86E70
:1013E80000014EEF00F03A503B1017E0010E3C6E42
:1013F80004D0D8903A363B363C2A3BAEFAD73A501E
:10140800385C3B50395804E33A50385E3B50395AFF
:10141800D8903B323A323C2EF2D738C038F039C037
:1014280039F01200336A346A1BEC0BF000090CE047
:1014380034C031F0010E326E312A02D0D8903236E3
:10144800312EFCD732503312500EE82EFED7342AF4
:10145800070E3464E9D733501200346E366A36C04A
:1014680032F034C033F0322A02D0D8903332322EE0
:10147800FCD73350356E010E35163550F1EC0AF0B5
:10148800362A070E3664EBD7460EE82EFED7120032
:10149800326E346A315014E0010E336E03D0D890A6
:1014A8003136332A31AEFBD7D89034363150325CDE
:1014B80003E33150325E3480D8903132332EF4D782
:1014C80034501200336A3750080DF3504009CEECFF
:1014D8000AF0386A010E336E35C0F6FF36C0F7FFE2
:1014E8000800F550CEEC0AF0354A362A382A070E9D
:1014F8003864F0D7070C809C929CC80E00D0E82E68
:10150800FDD7808C928C420EE82EFED700D0000EBC
:1015180080BC010E316EA90E00D0E82EFDD700D098
:1015280000F031501200366E080E376E386AD890C7
:1015380036343834386ED89036363550385C02E355
:101548003550385E372EF3D738501200326EA6B2B7
:10155800FED732C0A9FF31C0A8FFA69EA69CA684CC
:10156800F29E550EA76EAA0EA76EA682F28EAA0C40
:10157800346A356A09D0030E336E980EE82EFED70A
:10158800332EFCD7344A352A3450315C3550325822
:10159800F2E21200346E335002E1899401D089845A
:1015A800420EE82EFED700D034380F0B83EC08F03B
:1015B80034500F0B83EF08F09EA00DD09E903C0E88
:1015C800CF6EB00ECE6E2D2A1D0E2D6404D02D6A5E
:1015D800010E2C6ECD9050921100316E809C929C21
:1015E800310404E100D000D0808C928C460EE82EA5
:1015F800FED7808C928C1200366E350403E0400EC4
:10160800376E01D0376A36043726336A3750800977
:10161800CEEF0AF03BEC08F0CEEC0AF0060E356E81
:10162800300EE82EFED7352EFCD700D01200809C55
:10163800929C00D0808C928C040EE82EFED780BC41
:10164800010C000CA6B2FED731C0A9FFA69EA69C2D
:10165800A680A8501200356E010E336E3550CEEFBD
:101668000AF01BC031F01B6A31501200FF7FFF7F68
:051678000101012B2B14
:101EA6000041A042A1E045A3A4A5A64BA74D484FDB
:101EB600A8504354A9AA58E1ABACE2ADAE62AFB0AC
:101EC600B161B2B3B4E365B6B7B8B9BABBBCBD6F5E
:101ED600BE7063BF79E478E5C0C1E6C2C3C4C5C6B7
:101EE600C7000101020203040405060607070809E4
:101EF60009060909060000000020CAEEE420EFF0FA
:101F0600EEF7E8F2E0EDEE2000D2E5ECEF20E4F0AB
:101F1600E13A202020202020002D2D2DD2C5D0CC26
:101F2600CECCC5D2D02D2D2D002863294976616EE1
:101F36005F66642076312E3000C4E0F2F7E8EA20CE
:101F4600312C20E0E1EE203200202031202020201C
:101F56002032202020312D3200CFEEF069E320D14F
:101F6600E8E3ED2E204C65640020CAEEEBEEEDE0D2
:101F760020202020CAF3E100D2E5ECEF20CDE8E7EF
:101F86003A202020202000CAEEEB2831292FCAF360
:101F9600E12832293A00202020C3F0E0EDE8F66976
:101FA6002020200020202020CAF3E1EEE2E02020BD
:101FB6000020202020CAEEEBEEEDE0202000C2E853
:101FC600E169F02031384232303A00D2E5ECEF20B8
:101FD600C2E5F0F53A00D2E5ECEF20F669EB693A96
:101FE60000CAF3E1EEE2E03A00CAEEEBEEEDE03ACB
:091FF60000CFEEF069E33A0000AF
:020000040020DA
:08000000FFFFFFFFFFFFFFFF00
:020000040030CA
:0E000000FF080A1EFF8181FF0FC00FE00F40B6
:00000001FF
