:020000040000FA
:0400000047EF00F0D6
:100008004C829EA00DD09E903C0ECF6EB00ECE6E50
:100018002D2A1D0E2D6404D02D6A010E2C6ECD9054
:10002800F2A42FD0F294B10ED76EE00ED66E4B8E9E
:100038004BAC26D01C2A4BA80AD0090E1C6002D053
:100048008B8801D08B985A0E1C6401D01C6A4BA671
:100058000AD0100E1C6002D08B8801D08B98320E0B
:100068001C6401D01C6A4BA40CD00B0E1C6002D07F
:100078008B8801D08B98190E1C6403D01C6A01D0A0
:100088008B984C9211009EEF09F0A4EC08F0010E39
:10009800326E95EC0AF02F0E356E1F0E366E94EC0C
:1000A80007F065EC06F095EC0AF03F0E356E1F0E72
:1000B800366E94EC07F0070E2F6ED00E2E6E62ECA3
:1000C8000AF0A3EC0AF081B217D0A3EC0AF0020EF2
:1000D80087EC06F095EC0AF04F0E356E1F0E366E63
:1000E80094EC07F065EC06F095EC0AF0C50E356E59
:1000F8001F0E366E94EC07F02F6A100E2E6EBBECB6
:100108000AF0206E2F6A110E2E6EBBEC0AF01F6EDD
:100118002F6A130E2E6EBBEC0AF03F6E2F6A120E7A
:100128002E6EBBEC0AF0406E3F50196E40C01AF0BC
:100138002F6A150E2E6EBBEC0AF03F6E2F6A140E56
:100148002E6EBBEC0AF0406E3F50176E40C018F0A0
:100158004BAE03D00EEC09F04B9ECAEC0AF0226EAF
:100168001CEF06F02C0E356E2D0E366E28EC07F0BF
:10017800000901E1E7D24A0E2E6E010EE8EC07F005
:100188002EC044F02FC045F0490E2E6E020EE8EC4A
:1001980007F02EC042F02FC043F0D4D2010E326EC9
:1001A80095EC0AF0F00E356E1F0E366E94EC07F0E3
:1001B800442804E17F0E451801E1BCD062EC06F04A
:1001C80047EC06F05AEC09F035EC06F07FEC09F044
:1001D800355036106EE1316A640E47EC06F05AEC81
:1001E80009F035EC06F07FEC09F0355036102BE1BC
:1001F8004A50C4EC0AF0316A0A0E47EC06F05AEC91
:1002080009F035EC06F07FEC09F03550300FC4ECFE
:100218000AF02E0EC4EC0AF058EC06F03DEC06F09D
:100228007FEC09F03550300FC4EC0AF0010EC4EC35
:100238000AF0200EC4EC0AF0200EC4EC0AF0200EDE
:10024800C4EC0AF08CD04A50C4EC0AF0316A640E4F
:1002580047EC06F05AEC09F035EC06F07FEC09F0B3
:100268003550300FC4EC0AF0316A0A0E47EC06F03C
:100278005AEC09F035EC06F07FEC09F03550300FF8
:10028800C4EC0AF02E0EC4EC0AF058EC06F03DEC73
:1002980006F07FEC09F03550300FC4EC0AF0010E7F
:1002A800C4EC0AF0200EC4EC0AF0200EC4EC0AF0EC
:1002B80056D04A50C4EC0AF062EC06F047EC06F05F
:1002C8005AEC09F035EC06F07FEC09F03550300FA8
:1002D800C4EC0AF0316A640E47EC06F05AEC09F0F7
:1002E80035EC06F07FEC09F03550300FC4EC0AF01D
:1002F800316A0A0E47EC06F05AEC09F035EC06F0C4
:100308007FEC09F03550300FC4EC0AF02E0EC4EC27
:100318000AF058EC06F03DEC06F07FEC09F0355099
:10032800300FC4EC0AF0010EC4EC0AF0200EC4EC45
:100338000AF015D02D0EC4EC0AF02D0EC4EC0AF00C
:100348002D0EC4EC0AF0200EC4EC0AF0200EC4EC0A
:100358000AF0200EC4EC0AF0200EC4EC0AF065EC9A
:1003680006F095EC0AF0CE0EC4EC0AF0316A640E81
:1003780068EC06F05AEC09F035EC06F07FEC09F071
:100388003550300FC4EC0AF0316A0A0E68EC06F0FA
:100398005AEC09F035EC06F07FEC09F03550300FD7
:1003A800C4EC0AF02E0EC4EC0AF017C035F018C0E1
:1003B80036F03DEC06F07FEC09F03550300FC4EC18
:1003C8000AF0010EC4EC0AF0200EC4EC0AF0D90EB3
:1003D800C4EC0AF082EC06F0F2EC09F03DEC0AF00D
:1003E800300FC4EC0AF02E0EC4EC0AF098EC06F0BC
:1003F8003DEC0AF0300FC4EC0AF0200EC4EC0AF011
:10040800DA0EC4EC0AF079EC06F0F2EC09F03DECF7
:100418000AF0300FC4EC0AF02E0EC4EC0AF0A8EC77
:1004280006F03DEC0AF0300FC4EC0AF092D1010E50
:10043800326E95EC0AF0E80E356E1F0E366E94ECAF
:1004480007F0422804E17F0E431801E1AAD062ECCC
:1004580006F04DEC06F05AEC09F035EC06F07FECAE
:1004680009F03550361065E1316A640E4DEC06F03E
:100478005AEC09F0F6DB7FEC09F03550361029E12B
:100488004950C4EC0AF0316A0A0E4DEC06F05AECF9
:1004980009F0E7DB7FEC09F03550300FC4EC0AF0C7
:1004A8002E0EC4EC0AF05DEC06F0E3DB7FEC09F0FD
:1004B8003550300FC4EC0AF0010EC4EC0AF0200EDF
:1004C800C4EC0AF0200EC4EC0AF0200EC4EC0AF0CA
:1004D8007DD04950C4EC0AF0316A640EDADB5AEC7C
:1004E80009F0BFDB7FEC09F03550300FC4EC0AF09F
:1004F800316A0A0ECEDB5AEC09F0B3DB7FEC09F067
:100508003550300FC4EC0AF02E0EC4EC0AF0D1DBE3
:10051800B0DB7FEC09F03550300FC4EC0AF0010E67
:10052800C4EC0AF0200EC4EC0AF0200EC4EC0AF069
:100538004DD04950C4EC0AF0C1DBABDB5AEC09F0F2
:1005480090DB7FEC09F03550300FC4EC0AF0316ACB
:10055800640E9FDB5AEC09F084DB7FEC09F0355020
:10056800300FC4EC0AF0316A0A0E93DB5AEC09F03A
:1005780078DB7FEC09F03550300FC4EC0AF02E0E12
:10058800C4EC0AF096DB75DB7FEC09F03550300FD0
:10059800C4EC0AF0010EC4EC0AF0200EC4EC0AF018
:1005A80015D02D0EC4EC0AF02D0EC4EC0AF02D0E59
:1005B800C4EC0AF0200EC4EC0AF0200EC4EC0AF0D9
:1005C800200EC4EC0AF0200EC4EC0AF07ADB95EC9D
:1005D8000AF0F80E356E1F0E366E94EC07F02B0EEF
:1005E800C4EC0AF06BDB49DB5AEC09F03ADB7FEC30
:1005F80009F0355036103BE061DB3FDB5AEC09F07F
:1006080030DB7FEC09F03550300FC4EC0AF0316A6A
:10061800640E33DB5AEC09F024DB7FEC09F035502B
:10062800300FC4EC0AF0316A0A0E27DB5AEC09F0E5
:1006380018DB7FEC09F03550300FC4EC0AF02E0EB1
:10064800C4EC0AF02CDB15DB7FEC09F03550300FD9
:10065800C4EC0AF0010EC4EC0AF0200EC4EC0AF057
:10066800200EC4EC0AF0200EC4EC0AF072D0316AF5
:10067800640E03DB5AEC09F0F4DA7FEC09F035502C
:10068800361033E0316A640EF8DA5AEC09F0E9DA28
:100698007FEC09F03550300FC4EC0AF0316A0A0ECD
:1006A800ECDA5AEC09F0DDDA7FEC09F03550300F5E
:1006B800C4EC0AF02E0EC4EC0AF0F1DADADA7FECB8
:1006C80009F03550300FC4EC0AF0010EC4EC0AF002
:1006D800200EC4EC0AF0200EC4EC0AF0200EC4EC84
:1006E8000AF0200EC4EC0AF034D0316A0A0EC5DADA
:1006F8005AEC09F0B6DA7FEC09F03550300FC4EC4B
:100708000AF02E0EC4EC0AF0CADAB3DA7FEC09F06C
:100718003550300FC4EC0AF0010EC4EC0AF0200E7C
:10072800C4EC0AF0200EC4EC0AF0200EC4EC0AF067
:10073800200EC4EC0AF0200EC4EC0AF0200EC4EC23
:100748000AF007D04750010A01E128D5030A01E160
:100758006ED64BAA4CD0DBDA95EC0AF0200EC4EC2E
:100768000AF0ED0EC4EC0AF0205017243F6E000E7C
:100778001820406E3F50445C405045580BE21F50D3
:10078800175C3F6E000E1858406E44503F5C455051
:10079800405807E3442803E17F0E451802E04B82E6
:1007A80001D04B921950425C1A50435807E3422833
:1007B80003E17F0E431802E04B8001D04B904BB20F
:1007C8004BA005D04B8C4B984B964B841BD04BA021
:1007D80005D04B8C4B984B944B8614D04BA205D02C
:1007E8004B8C4B884B944B960DD04B9C0BD08FDA8F
:1007F80095EC0AF0200EC4EC0AF0D50EC4EC0AF011
:100808008B98F3D7220415E1A3EC0AF0070E7BDAE4
:1008180095EC0AF06F0E356E1F0E366E94EC07F0ED
:1008280050DA95EC0AF05F0E356E1F0E366E94ECBA
:1008380007F0020E221805E14704020ED8A4010EA3
:10084800476E030E221810E083D444C017F045C049
:1008580018F018C02EF0140E50EC0AF017C02EF045
:10086800150E50EC0AF004D04750010AEEE0030AD6
:1008780067DA62EC0AF06CD4020E326E0E0E95EC5A
:100888000AF04650300FC4EC0AF0220406E1462A6A
:10089800030E461802E1010E466E020E221805E10B
:1008A8004606465002E1020E466E030E221801E08B
:1008B8004FD44650DBEC08F0000909E002DA95EC69
:1008C8000AF00F0E356E1F0E366E94EC07F0030E0D
:1008D80033D0220415E1A3EC0AF0040E14DA95ECE7
:1008E8000AF09D0E356E1F0E366E94EC07F0E9D9AE
:1008F80095EC0AF08E0E356E1F0E366E94EC07F0EE
:10090800020E221807E14BBA02D04B8A01D04B9A4B
:10091800010E486E030E221801E01AD48BBA03D0D8
:100928003F6A3F2A01D03F6A3F3A3F468B503F1803
:10093800DF0B3F188B6E010E486E0AD4020E326E22
:10094800100E95EC0AF04650300FC4EC0AF0220461
:1009580006E1462A030E461802E1010E466E020E13
:10096800221805E14606465002E1020E466E030EC5
:10097800221802E0ACEF00F0460419E1050ED8D9C0
:10098800A3EC0AF0010E326E95EC0AF0B80E356E43
:100998001F0E366E94EC07F094D995EC0AF0D20E3F
:1009A800356E1F0E366E94EC07F0ACEF00F0060EB5
:1009B800BFD9A3EC0AF0010E326E95EC0AF0AB0E2B
:1009C800356E1F0E366E94EC07F07BD995EC0AF065
:1009D800DD0E356E1F0E366E94EC07F019C02EF042
:1009E8001AC02FF0316A0A0E306E5AEC09F02E50F8
:1009F8001E6E55D93ED97FEC09F035501D6EACEF0F
:100A080000F08BD995EC0AF02B0EC4EC0AF076D9DD
:100A1800F2EC09F03DEC0AF0300FC4EC0AF02E0EAF
:100A2800C4EC0AF081D93DEC0AF0300FC4EC0AF0AE
:100A3800220405E1202A0B0E201801E1206A020E8B
:100A4800221805E12006202802E10A0E206E030E76
:100A5800221802E0ACEF00F04DD995EC0AF07F0EB9
:100A6800356E1F0E366E94EC07F0ACEF00F052D9DD
:100A780095EC0AF02D0EC4EC0AF037D9F2EC09F027
:100A88003DEC0AF0300FC4EC0AF02E0EC4EC0AF06C
:100A98005BD93DEC0AF0300FC4EC0AF0220405E102
:100AA8001F2A0B0E1F1801E11F6A020E221805E10A
:100AB8001F061F2802E10A0E1F6E030E221802E00D
:100AC800ACEF00F0010E486E20C02EF0100E50EC76
:100AD8000AF01FC02EF0110E50EC0AF0ACEF00F037
:100AE8002150010A8EE0030AC2E0ACEF00F015D9EC
:100AF80095EC0AF02B0EC4EC0AF0ECD8F2EC09F0F5
:100B08003DEC0AF0300FC4EC0AF0EAD8F2EC09F038
:100B18003DEC0AF0300FC4EC0AF00ED93DEC0AF0B7
:100B2800300FC4EC0AF02E0EC4EC0AF0F9D83DECF4
:100B38000AF0300FC4EC0AF0220405E11E2A680E00
:100B48001E6401D01E6A020E221805E11E061E2828
:100B580002E1690E1E6E030E221802E0ACEF00F0EF
:100B6800C9D895EC0AF01F0E356E1F0E366E94EC40
:100B780007F0ACEF00F0CED895EC0AF02B0EC4ECE1
:100B88000AF0A8D8F2EC09F03DEC0AF0300FC4ECFA
:100B98000AF0A6D8F2EC09F03DEC0AF0300FC4ECEC
:100BA8000AF0CAD83DEC0AF0300FC4EC0AF02E0E59
:100BB800C4EC0AF0B5D83DEC0AF0300FC4EC0AF0EA
:100BC800200EC4EC0AF0220405E11D2A0A0E1D18A5
:100BD80001E11D6A020E221805E11D061D2802E129
:100BE800090E1D6E030E221802E0ACEF00F0010E94
:100BF800486E1E500A0DF3CF3FF0F4CF40F01D5061
:100C08003F24196E000E40201A6E1AC02EF0120EE4
:100C180050EC0AF019C02EF0130E50EC0AF028D64A
:100C28002150010A01E163D7030AA5E0ACEF00F007
:100C38004850010A02E1B6EF00F0030A01E11CD6B0
:100C4800010A02E1ACEF00F0070A01E177D6010AD8
:100C580001E146D7030AE4E0010A01E13AD6ACEF24
:100C680000F02EC035F02FC036F0386A0A0E376E05
:100C78000A0C386A0A0E376E0A0C306E19C02EF04C
:100C88001AC02FF01200306E44C02EF045C02FF06D
:100C98001200306E42C02EF043C02FF0120019C06F
:100CA80035F01AC036F0120044C035F045C036F0B1
:100CB800120042C035F043C036F01200030E316E08
:100CC800E80C020E326E010C306E17C02EF018C000
:100CD8002FF012000A0E326E640E2E6E1E50120095
:100CE8000A0E326E2E6E1E5012000A0E326E2E6ED4
:100CF8001F501200020E216E326E010C0A0E326E67
:100D08002E6E20501200486E010E326E010C010E3C
:100D1800326E0F0C020E326E0A0C020E326E0B0C83
:100D28000A0E326E1D5012000A0E326E205012004A
:100D3800486E010E216E010C0A0E326E1E50120012
:100D48002F6A0A0E2E6E0A0C0A0E326E1F501200FF
:100D5800809480921A0E336EF80EE82EFED7332E4A
:100D6800FCD700D01A0E336EF80EE82EFED7332EBD
:100D7800FCD700D01A0E336EF80EE82EFED7332EAD
:100D8800FCD700D01A0E336EF80EE82EFED7332E9D
:100D9800FCD700D0030E2DEC08F00D0E336EFC0EC0
:100DA800E82EFED7332EFCD7030E2DEC08F00D0EDF
:100DB800336EFC0EE82EFED7332EFCD7030E2DEC37
:100DC80008F00D0E336EFC0EE82EFED7332EFCD73E
:100DD800020E2DEC08F00D0E336EFC0EE82EFED739
:100DE800332EFCD7000E306E280E74EC0AF00D0E70
:100DF800336EFC0EE82EFED7332EFCD7000E306E75
:100E08000C0E74EC0AF0150E336EC60EE82EFED7E3
:100E1800332EFCD700D0A3EC0AF00D0E336EFC0E77
:100E2800E82EFED7332EFCD7000E306E060E74EC7B
:100E38000AF00D0E336EFC0EE82EFED7332EFCD7CB
:100E4800A3EC0AF0808412005BD025EC0AF00009BC
:100E5800D8A4000CCC0ED7EC09F0440ED7EC09F05E
:100E68003650D96EDA6ADF6A3550D96EDA6A020E00
:100E7800DF6ECD80000C3B6A25EC0AF0550ED7ECEE
:100E880009F03C6A3B50080DF350010F3C24D96E21
:100E9800DA6ADF50D7EC09F03C2A070E3C64F2D737
:100EA800BE0ED7EC09F03C6A3C50230FD96EDA6AC3
:100EB800BCEC09F0DF6E3C2A080E3C64F5D7230E23
:100EC8002E6E090E2F6E35EC09F000090CE1245046
:100ED800376E2350396E37C03AF01BD839C0DEFF61
:100EE8003AC0DDFF04D015D8DE687F0EDD6E3B2AE0
:100EF800010E3B64C1D73550D96EDA6ADF6A010C3E
:100F08003550D96EDA6ADF50A0E0010AB4E0030A6E
:100F1800000C3B50020DF350110FD96EDA6A120023
:100F280046D04FD874EC0AF0060E376E300EE82E15
:100F3800FED7372EFCD700D038D065EC06F095ECFC
:100F48000AF033D0000E306E100E74EC0AF02DD07B
:100F580035C0F6FF36C0F7FFC00E0800F56006D0B2
:100F6800010E306E27D874EC0AF01FD0010E306ED7
:100F7800400E376E38681ED8396E3A6A37503926AF
:100F880038503A22B70E3924F66E1E0E3A20F76E04
:100F98000800F55074EC0AF008D00CD8080AD2E022
:100FA800020ACBE0060ABDE0D3D7354A362A02D872
:100FB800F4E1120035C0F6FF36C0F7FF0800F5501F
:100FC8001200000E306E010C306E3050020DF350DE
:100FD8000F0FD96EDA6ADECF32F0DDCF33F02E5044
:100FE800D96EDA6A2B0EDF6E322808E17F0E3318CD
:100FF80005E132C02EF033C02FF0120033AE09D015
:10100800326C331ED8B0332A2E50D96EDA6A2D0EC0
:10101800DF6E32500F0B316EF70E3124F66EF76A21
:101028001E0EF7220800F5CF31F0323A333A0F0E90
:1010380032163350F00B32120F0E331632500A0D9F
:10104800F3CF32F0F4CF33F031503226000E332292
:10105800D0D72F6E2FA003D02E6A2E2A01D02E6A49
:1010680082502E18FE0B2E18826E2FA203D02E6AE5
:101078002E2A01D02E6A2E4682502E18FD0B2E18CD
:10108800826E2FA403D02E6A2E2A01D02E6A19D878
:10109800FB0B2E18826E2FA603D02E6A2E2A01D0A3
:1010A8002E6A2E460ED8F70B2E18826E8082420EBC
:1010B800E82EFED700D08092420EE82EFED700D050
:1010C80012002E462E4682502E18120025EC0AF0E9
:1010D80000090FE1CC0ED7EC09F04E0ED7EC09F061
:1010E800000ED7EC09F0000ED7EC09F07F0ED7EC14
:1010F80009F0366A376A3650080DF350010F372465
:10110800D96EDA6A3650346E356AD8903436353648
:10111800D89034363536D89034363536375034246E
:101128002E6E000E35202F6EBBEC0AF0DF6E372ACC
:10113800070E3764E0D7362A010E3664DBD7010C78
:10114800806A896A926A816A8A6A060E936E826ADE
:101158008B6A946AD390D382700ED3120F0EC11289
:10116800808C6AEC08F0800ECD6E3C0ECF6EB00E0F
:10117800CE6EF80ED516D586D59CD59AD58EB10EDD
:10118800D76EE00ED66EF28AF19E9D80F28CF28EBA
:10119800ACEC06F0070E326E1F0E336E010E346E85
:1011A8000CEC0AF08B984B984B964B9412003D6EC2
:1011B80025EC0AF000090CE1330ED7EC09F03E6A81
:1011C80024D8BCEC09F0DF6E3E2A070E3E64F8D73F
:1011D800350E2E6E080E2F6E35EC09F0000914E15D
:1011E8003E6A13D8DF502E6E3D50080DF3503E2452
:1011F800F80F50EC0AF03E2A070E3E64F2D7A4EC32
:1012080006F062EC0AF0010C000C3E50350FD96E66
:10121800DA6A120081A281B402D0030E07D081B22B
:1012280002D0010E03D081B403D0020E2E6E01D07D
:101238002E6A2E5013E02D0E155C010E165807E38A
:10124800010E166E220E156E2EC01BF01200154AE6
:10125800162A0F0E15181610F7E01200156A166AEE
:101268001200346A336A1DD02E503324D96EDA6ADC
:10127800DF50316E080E306E34503118010B326E6B
:10128800320402E1180E341AD89034307F0B346ED1
:10129800320401E1348ED890313230063050ECE11E
:1012A800332A2F503318E0E134501200326A336A7F
:1012B800305031101BE0010E346E04D0D890303617
:1012C8003136342A31AEFAD7D890323633363050E8
:1012D8002E5C31502F5805E330502E5E31502F5A76
:1012E8003280D89031323032342EEED732C02EF0E0
:1012F80033C02FF012003750381017E0010E396E46
:1013080004D0D89037363836392A38AEFAD737501D
:10131800355C3850365804E33750355E3850365A05
:10132800D89038323732392EF2D735C035F036C03A
:1013380036F012009E0EF66E150EF76E000EF86E61
:1013480000EE42F010EE09F00900F5CFEEFFE5508F
:10135800E150FAE14B6A00EE01F02D0EEE6AE80664
:10136800FDE14C904C92000EF86E000149EF00F040
:10137800306A316AB0EC0AF000090CE031C02EF096
:10138800010E2F6E2E2A02D0D8902F362E2EFCD783
:101398002F503012500EE82EFED7312A070E316436
:1013A800E9D730501200316E336A33C02FF031C0A4
:1013B80030F02F2A02D0D89030322F2EFCD7305060
:1013C800326E010E3216325086EC0AF0332A070EBE
:1013D8003364EBD7460EE82EFED712002F6E316A23
:1013E8002E5014E0010E306E03D0D8902E36302ADD
:1013F8002EAEFBD7D89031362E502F5C03E32E50FB
:101408002F5E3180D8902E32302EF4D73150120012
:10141800306A3450080DF350400974EC0AF0356A0C
:10142800010E306E32C0F6FF33C0F7FF0800F550EA
:1014380074EC0AF0324A332A352A070E3564F0D79D
:10144800070C809C929CC80E00D0E82EFDD7808C9B
:10145800928C420EE82EFED700D0000E80BC010E02
:101468002E6EA90E00D0E82EFDD700D000F02E5029
:101478001200336E080E346E356AD8903334353422
:10148800356ED89033363250355C02E33250355ED3
:10149800342EF3D7355012002F6EA6B2FED72FC0C8
:1014A800A9FF2EC0A8FFA69EA69CA684F29E550E54
:1014B800A76EAA0EA76EA682F28EAA0C316A326AAD
:1014C80009D0030E306E980EE82EFED7302EFCD7CA
:1014D800314A322A31502E5C32502F58F2E2120033
:1014E800316E305002E1809401D08084420EE82EA3
:1014F800FED700D031380F0B2DEC08F031500F0B10
:101508002DEF08F02E6E809C929C2E0404E100D0F2
:1015180000D0808C928C460EE82EFED7808C928C60
:101528001200336E320403E0400E346E01D0346A88
:1015380033043426306A3450800974EF0AF0E5EC3D
:1015480007F074EC0AF0060E326E300EE82EFED765
:10155800322EFCD700D01200809C929C00D0808C48
:10156800928C040EE82EFED780BC010C000CA6B2AB
:10157800FED72EC0A9FFA69EA69CA680A850120042
:10158800326E010E306E325074EF0AF01BC02EF02E
:0F1598001B6A2E501200FF7FFF7F0101012B2BDA
:101EB6000041A042A1E045A3A4A5A64BA74D484FCB
:101EC600A8504354A9AA58E1ABACE2ADAE62AFB09C
:101ED600B161B2B3B4E365B6B7B8B9BABBBCBD6F4E
:101EE600BE7063BF79E478E5C0C1E6C2C3C4C5C6A7
:101EF600C7000101020203040405060607070809D4
:101F060009060909060000000020CAEEE420EFF0E9
:101F1600EEF7E8F2E0EDEE2000D2E5ECEF20E4F09B
:101F2600E13A202020202020002D2D2DD2C5D0CC16
:101F3600CECCC5D2D02D2D2D002863294976616ED1
:101F46005F66642076312E3000C4E0F2F7E8EA20BE
:101F5600312C20E0E1EE203200202031202020200C
:101F66002032202020312D3200CFEEF069E320D13F
:101F7600E8E3ED2E204C656400D2E5ECEF20CDE8D9
:101F8600E73A202020202000CAEEEB2831292FCA6C
:101F9600F3E12832293A00202020C3F0E0EDE8F6EC
:101FA600692020200020202020CAF3E1EEE2E02074
:101FB600200020202020CAEEEBEEEDE0202000C21B
:101FC600E8E169F02031384232303A00D2E5ECEFF0
:101FD60020C2E5F0F53A00D2E5ECEF20F669EB69B0
:101FE6003A00CAF3E1EEE2E03A00CAEEEBEEEDE0CB
:0A1FF6003A00CFEEF069E33A000074
:020000040020DA
:08000000FFFFFFFFFFFFFFFF00
:020000040030CA
:0E000000FF080A1EFF8181FF0FC00FE00F40B6
:00000001FF
