:020000040000FA
:040000004EEF00F0CF
:060008006582FBEF0BF026
:100018006580D8CF43F0E8CF44F0E0CF45F0F2A4B4
:1000280031D0F294B10ED76EE00ED66E5B82372ACD
:10003800362A5BA026D02F2A5AAC0AD00B0E2F6086
:1000480002D08B8801D08B98500E2F6401D02F6A74
:100058005AAA0AD0100E2F6002D08B8801D08B9834
:10006800320E2F6401D02F6A5AA80CD00B0E2F60C5
:1000780002D08B8801D08B98190E2F6403D02F6A79
:1000880001D08B9845C0E0FF44C0E8FF43C0D8FFCB
:1000980065901000DBEF0AF0C1EC09F0010E4A6E22
:1000A8002BEC0CF00B0E4D6E1F0E4E6EEBEC08F0A9
:1000B800B0EC07F02BEC0CF03B0E4D6E1F0E4E6EA5
:1000C800EBEC08F0070E476ED00E466ED7EC0BF03F
:1000D80047EC0CF081B217D047EC0CF0020EBFECE5
:1000E80007F02BEC0CF01B0E4D6E1F0E4E6EEBEC5A
:1000F80008F0B0EC07F02BEC0CF0B00E4D6E1F0EB4
:100108004E6EEBEC08F0476A100E466E5FEC0CF092
:10011800336E476A110E466E5FEC0CF0326E476A1A
:10012800130E466E5FEC0CF0576E476A120E466E61
:100138005FEC0CF0586E5750296E58C02AF0476A89
:10014800150E466E5FEC0CF0576E476A140E466E3D
:100158005FEC0CF0586E5750276E58C028F05BA221
:1001680003D06AEC0AF05B926EEC0CF0356E64EF2B
:1001780007F0410E4D6E420E4E6E7DEC08F0000900
:1001880012E0640E466E010E3FEC09F046C05EF0C8
:1001980047C05FF0630E466E020E3FEC09F046C0A2
:1001A8005CF047C05DF0C70E366498D3366A5E28A7
:1001B80003E17F0E5F1839E0D6EC07F00CEC0CF089
:1001C800ADEC07F088EC07F0B6EC0AF080EC07F02D
:1001D800FAEC0AF04D50300F9AEC0BF0496A640EB5
:1001E80088EC07F0B6EC0AF080EC07F0FAEC0AF0BD
:1001F8004D50300F9AEC0BF0496A0A0E88EC07F064
:10020800B6EC0AF080EC07F0FAEC0AF04D50300F2B
:100218009AEC0BF0A3EC07F094EC07F0FAEC0AF078
:100228004D50300F9AEC0BF00AD0D6EC07F00CECDE
:100238000CF0F10E476E1F0E486E0CEC0CF05C28AB
:1002480003E17F0E5D183FE0DBEC07F00CEC0CF0EF
:10025800ADEC07F08EEC07F0B6EC0AF080EC07F096
:10026800FAEC0AF04D50300F9AEC0BF0496A640E24
:100278008EEC07F0B6EC0AF080EC07F0FAEC0AF026
:100288004D50300F9AEC0BF0496A0A0E8EEC07F0CD
:10029800B6EC0AF080EC07F0FAEC0AF04D50300F9B
:1002A8009AEC0BF0A8EC07F094EC07F0FAEC0AF0E3
:1002B8004D50300F9AEC0BF0E70E476E1F0E486E4C
:1002C8000CEC0CF00BD3DBEC07F00CEC0CF0E30EB1
:1002D800476E1F0E486E0CEC0CF000D3010E4A6EF0
:1002E8002BEC0CF0DB0E4D6E1F0E4E6EEBEC08F097
:1002F8005E2804E17F0E5F1801E1BCD0ADEC07F089
:1003080088EC07F0B6EC0AF080EC07F0FAEC0AF09B
:100318004D504E106EE1496A640E88EC07F0B6EC59
:100328000AF080EC07F0FAEC0AF04D504E102BE181
:10033800645068EC0CF0496A0A0E88EC07F0B6ECD9
:100348000AF080EC07F0FAEC0AF04D50300F68EC38
:100358000CF02E0E68EC0CF0A3EC07F094EC07F010
:10036800FAEC0AF04D50300F68EC0CF0010E68EC16
:100378000CF0200E68EC0CF0200E68EC0CF0200E4F
:1003880068EC0CF08CD0645068EC0CF0496A640E90
:1003980088EC07F0B6EC0AF080EC07F0FAEC0AF00B
:1003A8004D50300F68EC0CF0496A0A0E88EC07F0E3
:1003B800B6EC0AF080EC07F0FAEC0AF04D50300F7A
:1003C80068EC0CF02E0E68EC0CF0A3EC07F094EC43
:1003D80007F0FAEC0AF04D50300F68EC0CF0010E03
:1003E80068EC0CF0200E68EC0CF0200E68EC0CF0B9
:1003F80056D0645068EC0CF0ADEC07F088EC07F0D0
:10040800B6EC0AF080EC07F0FAEC0AF04D50300F29
:1004180068EC0CF0496A640E88EC07F0B6EC0AF058
:1004280080EC07F0FAEC0AF04D50300F68EC0CF055
:10043800496A0A0E88EC07F0B6EC0AF080EC07F07F
:10044800FAEC0AF04D50300F68EC0CF02E0E68EC08
:100458000CF0A3EC07F094EC07F0FAEC0AF04D501E
:10046800300F68EC0CF0010E68EC0CF0200E68EC14
:100478000CF015D02D0E68EC0CF02D0E68EC0CF07D
:100488002D0E68EC0CF0200E68EC0CF0200E68ECD9
:100498000CF0200E68EC0CF0200E68EC0CF0E4EC8C
:1004A80007F02BEC0CF05AA204D0ED0E68EC0CF01F
:1004B80003D0D50E68EC0CF0B0EC07F02BEC0CF088
:1004C800CE0E68EC0CF0496A640EB3EC07F0B6EC9B
:1004D8000AF080EC07F0FAEC0AF04D50300F68ECA7
:1004E8000CF0496A0A0EB3EC07F0B6EC0AF080EC9F
:1004F80007F0FAEC0AF04D50300F68EC0CF02E0EB5
:1005080068EC0CF027C04DF028C04EF094EC07F0D2
:10051800FAEC0AF04D50300F68EC0CF0010E68EC64
:100528000CF0200E68EC0CF0D90E68EC0CF0C7EC5F
:1005380007F04FEC0BF0B2EC0BF0300F68EC0CF05E
:100548002E0E68EC0CF0F1EC07F0B2EC0BF0300F6B
:1005580068EC0CF0200E68EC0CF0DA0E68EC0CF08D
:10056800D1EC07F04FEC0BF0B2EC0BF0300F68EC6D
:100578000CF02E0E68EC0CF0E0EC07F0B2EC0BF08F
:10058800300F68EC0CF0B1D1010E4A6E2BEC0CF078
:10059800D30E4D6E1F0E4E6EEBEC08F05C2804E196
:1005A8007F0E5D1801E1BCD0ADEC07F08EEC07F0D2
:1005B800B6EC0AF080EC07F0FAEC0AF04D504E1059
:1005C8006EE1496A640E8EEC07F0B6EC0AF080EC36
:1005D80007F0FAEC0AF04D504E102BE1635068EC2E
:1005E8000CF0496A0A0E8EEC07F0B6EC0AF080ECC3
:1005F80007F0FAEC0AF04D50300F68EC0CF02E0EB4
:1006080068EC0CF0A8EC07F094EC07F0FAEC0AF0B0
:100618004D50300F68EC0CF0010E68EC0CF0200E19
:1006280068EC0CF0200E68EC0CF0200E68EC0CF076
:100638008CD0635068EC0CF0496A640E8EEC07F0BD
:10064800B6EC0AF080EC07F0FAEC0AF04D50300FE7
:1006580068EC0CF0496A0A0E8EEC07F0B6EC0AF06A
:1006680080EC07F0FAEC0AF04D50300F68EC0CF013
:100678002E0E68EC0CF0A8EC07F094EC07F0FAECFE
:100688000AF04D50300F68EC0CF0010E68EC0CF0DD
:10069800200E68EC0CF0200E68EC0CF056D063507D
:1006A80068EC0CF0ADEC07F08EEC07F0B6EC0AF055
:1006B80080EC07F0FAEC0AF04D50300F68EC0CF0C3
:1006C800496A640E8EEC07F0B6EC0AF080EC07F08D
:1006D800FAEC0AF04D50300F68EC0CF0496A0A0E3B
:1006E8008EEC07F0B6EC0AF080EC07F0FAEC0AF0B2
:1006F8004D50300F68EC0CF02E0E68EC0CF0A8ECA6
:1007080007F094EC07F0FAEC0AF04D50300F68EC63
:100718000CF0010E68EC0CF0200E68EC0CF015D013
:100728002D0E68EC0CF02D0E68EC0CF02D0E68EC1C
:100738000CF0200E68EC0CF0200E68EC0CF0200E8B
:1007480068EC0CF0200E68EC0CF0E4EC07F02BECF5
:100758000CF05AA004D0ED0E68EC0CF003D0D50EC6
:1007680068EC0CF0F9DB2BEC0CF0EA0E4D6E1F0E6A
:100778004E6EEBEC08F02B0E68EC0CF0EADBD4DBE9
:10078800B6EC0AF0B9DBFAEC0AF04D504E103BE03B
:10079800E0DBCADBB6EC0AF0AFDBFAEC0AF04D504E
:1007A800300F68EC0CF0496A640EBEDBB6EC0AF058
:1007B800A3DBFAEC0AF04D50300F68EC0CF0496AF4
:1007C8000A0EB2DBB6EC0AF097DBFAEC0AF04D50F1
:1007D800300F68EC0CF02E0E68EC0CF0ABDBA0DBF5
:1007E800FAEC0AF04D50300F68EC0CF0010E68EC92
:1007F8000CF0200E68EC0CF0200E68EC0CF0200ECB
:1008080068EC0CF072D0496A640E8EDBB6EC0AF024
:1008180073DBFAEC0AF04D504E1033E0496A640E6F
:1008280083DBB6EC0AF068DBFAEC0AF04D50300FC7
:1008380068EC0CF0496A0A0E77DBB6EC0AF05CDB70
:10084800FAEC0AF04D50300F68EC0CF02E0E68EC04
:100858000CF070DB65DBFAEC0AF04D50300F68ECF9
:100868000CF0010E68EC0CF0200E68EC0CF0200E79
:1008780068EC0CF0200E68EC0CF0200E68EC0CF024
:1008880034D0496A0A0E50DBB6EC0AF035DBFAECD4
:100898000AF04D50300F68EC0CF02E0E68EC0CF09E
:1008A80049DB3EDBFAEC0AF04D50300F68EC0CF0F7
:1008B800010E68EC0CF0200E68EC0CF0200E68ECD1
:1008C8000CF0200E68EC0CF0200E68EC0CF0200EFA
:1008D80068EC0CF0200E68EC0CF007D06150010AAF
:1008E80001E1FCD4030A01E14FD65AAE90D05AA2D6
:1008F8001DD033502724576E000E2820586E5750AD
:100908005E5C58505F580BE23250275C576E000E01
:100918002858586E5E50575C5F50585807E35E2859
:1009280003E17F0E5F1802E05A8601D05A965AA05A
:100938000CD029505C5C2A505D5807E35C2803E121
:100948007F0E5D1802E05A8401D05A945AB65AA410
:100958001ED05B805A9C5A9A5A88630E376459D0C5
:10096800376A410E9AEC0BF06C0E9AEC0BF0720E93
:100978009AEC0BF05F0E9AEC0BF0410E9AEC0BF030
:100988000D0E9AEC0BF00A0E9AEC0BF042D05AA41A
:100998001ED05B805A9C5A985A8A630E376439D0A5
:1009A800376A410E9AEC0BF06C0E9AEC0BF0720E53
:1009B8009AEC0BF05F0E9AEC0BF0420E9AEC0BF0EF
:1009C8000D0E9AEC0BF00A0E9AEC0BF022D05AA6F8
:1009D8001FD05B805A8C5A985A9A630E376419D084
:1009E800376A410E9AEC0BF06C0E9AEC0BF0720E13
:1009F8009AEC0BF05F0E9AEC0BF04B0E9AEC0BF0A6
:100A08000D0E9AEC0BF00A0E9AEC0BF002D08B98B4
:100A18005B90350415E147EC0CF0070EACDA2BECD3
:100A28000CF04B0E4D6E1F0E4E6EEBEC08F094DA88
:100A38002BEC0CF02B0E4D6E1F0E4E6EEBEC08F0EF
:100A4800020E351805E16104020ED8A4010E616E8C
:100A5800030E351811E0B3EF00F05EC027F05FC059
:100A680028F028C046F0140EC5EC0BF027C046F05D
:100A7800150EC5EC0BF004D06150010AEEE0030A34
:100A8800B8DAD7EC0BF0B3EF00F0020E4A6E0E0E98
:100A98002BEC0CF06050300F68EC0CF0350406E1DC
:100AA800602A030E601802E1010E606E020E35180E
:100AB80005E16006605002E1020E606E030E351813
:100AC80002E0B3EF00F0605037EC0AF0000909E0EB
:100AD80043DA2BEC0CF0EB0E4D6E1E0E4E6EEBEC6B
:100AE80008F0030E39D0350415E147EC0CF0040E7C
:100AF80042DA2BEC0CF0880E4D6E1F0E4E6EEBECAE
:100B080008F02ADA2BEC0CF0790E4D6E1F0E4E6EA3
:100B1800EBEC08F0020E35180CE147EC0CF0080E6F
:100B28002ADA2BEC0CF05B0E4D6E1F0E4E6EEBECC2
:100B380008F0030E351802E0B3EF00F08BBA03D0CB
:100B4800576A572A01D0576A573A57468B50571851
:100B5800DF0B57188B6E010E626EB3EF00F0020EBA
:100B68004A6E040E2BEC0CF05AA204D0ED0E68EC81
:100B78000CF003D0D50E68EC0CF0020E4A6E0D0E88
:100B88002BEC0CF05AA004D0ED0E68EC0CF003D05E
:100B9800D50E68EC0CF0350405E15AB202D05A8241
:100BA80001D05A92020E351805E15AB002D05A8087
:100BB80001D05A90030E351802E0B3EF00F05AA2A4
:100BC8005AB002D05A9EC7D75A8EC5D7020E4A6E5F
:100BD800100E2BEC0CF06050300F68EC0CF0350464
:100BE80006E1602A030E601802E1010E606E020E33
:100BF800351805E16006605002E1020E606E030ED2
:100C0800351802E0B3EF00F0600419E1050EE9D9E8
:100C180047EC0CF0010E4A6E2BEC0CF0A30E4D6E57
:100C28001F0E4E6EEBEC08F097D92BEC0CF0BD0EB6
:100C38004D6E1F0E4E6EEBEC08F0B3EF00F0060E93
:100C4800D0D947EC0CF0010E4A6E2BEC0CF0960E46
:100C58004D6E1F0E4E6EEBEC08F07ED92BEC0CF0AF
:100C6800C80E4D6E1F0E4E6EEBEC08F029C046F014
:100C78002AC047F0496A0A0E486EB6EC0AF0465098
:100C8800316E58D94DD9FAEC0AF04D50306EB3EFA9
:100C980000F09CD92BEC0CF02B0E68EC0CF073D9FF
:100CA8004FEC0BF0B2EC0BF0300F68EC0CF02E0EA2
:100CB80068EC0CF092D9B2EC0BF0300F68EC0CF049
:100CC800350405E1332A0B0E331801E1336A020EAD
:100CD800351805E13306332802E10A0E336E030E98
:100CE800351802E0B3EF00F04AD92BEC0CF06A0E8D
:100CF8004D6E1F0E4E6EEBEC08F0B3EF00F063D9AB
:100D08002BEC0CF02D0E68EC0CF047D94FEC0BF0E7
:100D1800B2EC0BF0300F68EC0CF02E0E68EC0CF017
:100D28004BD9B2EC0BF0300F68EC0CF0350405E150
:100D3800322A0B0E321801E1326A020E351805E12B
:100D48003206322802E10A0E326E030E351802E02E
:100D5800B3EF00F0010E626E33C046F0100EC5EC22
:100D68000BF032C046F0110EC5EC0BF0B3EF00F0FB
:100D78003450010A8EE0030AC2E0B3EF00F026D92E
:100D88002BEC0CF02B0E68EC0CF0EFD84FEC0BF0C2
:100D9800B2EC0BF0300F68EC0CF0FAD84FEC0BF01B
:100DA800B2EC0BF0300F68EC0CF01FD9B2EC0BF082
:100DB800300F68EC0CF02E0E68EC0CF00AD9B2EC8F
:100DC8000BF0300F68EC0CF0350405E1312A680EA1
:100DD800316401D0316A020E351805E13106312837
:100DE80002E1690E316E030E351802E0B3EF00F030
:100DF800C6D82BEC0CF0FB0E4D6E1E0E4E6EEBECB7
:100E080008F0B3EF00F0DFD82BEC0CF02B0E68ECF9
:100E18000CF0ABD84FEC0BF0B2EC0BF0300F68ECE9
:100E28000CF0B6D84FEC0BF0B2EC0BF0300F68ECCE
:100E38000CF0DBD8B2EC0BF0300F68EC0CF02E0E97
:100E480068EC0CF0C6D8B2EC0BF0300F68EC0CF084
:100E5800200E68EC0CF0350405E1302A0A0E301833
:100E680001E1306A020E351805E13006302802E14A
:100E7800090E306E030E351802E0B3EF00F0010ED4
:100E8800626E31500A0DF3CF57F0F4CF58F030505E
:100E98005724296E000E58202A6E2AC046F0120EDA
:100EA800C5EC0BF029C046F0130EC5EC0BF0E8D5E5
:100EB8003450010A01E163D7030AA5E0B3EF00F05B
:100EC8006250010A02E1BDEF00F0030A01E1DDD53D
:100ED800010A02E1B3EF00F0070A01E177D6010A3F
:100EE80001E146D7030AE4E0010A01E1FCD50F0A53
:100EF80001E135D6B3EF00F046C04DF047C04EF0E3
:100F0800506A0A0E4F6E0A0C486E5EC046F05FC00B
:100F180047F01200486E5CC046F05DC047F0120012
:100F2800506A0A0E4F6E0A0C486E29C046F02AC055
:100F380047F0120029C04DF02AC04EF012005EC0E2
:100F48004DF05FC04EF012005CC04DF05DC04EF039
:100F58001200030E496EE80C020E4A6E010C486E30
:100F680027C046F028C047F012000A0E4A6E640EE9
:100F7800466E31501200626E010E4A6E010C020E6E
:100F8800346E4A6E010C0A0E4A6E466E33501200D9
:100F98000A0E4A6E466E315012000A0E4A6E466EAE
:100FA80032501200FA0E476E1F0E486E1200F60EEF
:100FB800476E1F0E486E12000A0E4A6E325012001B
:100FC800010E4A6E100C020E4A6E0A0C020E4A6E90
:100FD8000B0C0A0E4A6E305012000A0E4A6E33503D
:100FE8001200626E010E346E010C0A0E4A6E315008
:100FF8001200476A0A0E466E0A0C899489921A0EE4
:101008004B6EF80EE82EFED74B2EFCD700D01A0EEA
:101018004B6EF80EE82EFED74B2EFCD700D01A0EDA
:101028004B6EF80EE82EFED74B2EFCD700D01A0ECA
:101038004B6EF80EE82EFED74B2EFCD700D0030ED1
:1010480084EC09F00D0E4B6EFC0EE82EFED74B2EED
:10105800FCD7030E84EC09F00D0E4B6EFC0EE82E47
:10106800FED74B2EFCD7030E84EC09F00D0E4B6E09
:10107800FC0EE82EFED74B2EFCD7020E84EC09F0AE
:101088000D0E4B6EFC0EE82EFED74B2EFCD7000E35
:10109800486E280EE9EC0BF00D0E4B6EFC0EE82E98
:1010A800FED74B2EFCD7000E486E0C0EE9EC0BF069
:1010B800150E4B6EC60EE82EFED74B2EFCD700D071
:1010C80047EC0CF00D0E4B6EFC0EE82EFED74B2EA7
:1010D800FCD7000E486E060EE9EC0BF00D0E4B6EB9
:1010E800FC0EE82EFED74B2EFCD747EC0CF089847B
:1010F80012005DD082EC0BF00009D8A4000CCC0ED5
:1011080034EC0BF0440E34EC0BF04E50D96EDA6A26
:10111800DF6A4D50D96EDA6A020EDF6ECD80000CA0
:10112800536AF29E82EC0BF0550E34EC0BF0546AC5
:101138005350080DF350110F5424D96EDA6ADF505A
:1011480034EC0BF0542A070E5464F2D7BE0E34EC7C
:101158000BF0546A5450380FD96EDA6A19EC0BF058
:10116800DF6E542A080E5464F5D7380E466E090E01
:10117800476E91EC0AF000090CE139504F6E385077
:10118800516E4FC052F01CD851C0DEFF52C0DDFF77
:1011980004D016D8DE687F0EDD6EF28E532A010E5B
:1011A8005364BFD74D50D96EDA6ADF6A010C4D50CF
:1011B800D96EDA6ADF509EE0010AB2E0030A000C39
:1011C8005350020DF350210FD96EDA6A120046D03F
:1011D8004FD8E9EC0BF0060E4F6E300EE82EFED716
:1011E8004F2EFCD700D038D0B0EC07F02BEC0CF029
:1011F80033D0000E486E100EE9EC0BF02DD04DC028
:10120800F6FF4EC0F7FFC00E0800F56006D0010ECD
:10121800486E27D8E9EC0BF01FD0010E486E400E3F
:101228004F6E50681ED8516E526A4F50512650501A
:101238005222930E5124F66E1E0E5220F76E0800AD
:10124800F550E9EC0BF008D00CD8080AD2E0020AF5
:10125800CBE0060ABDE0D3D74D4A4E2A02D8F4E1C6
:1012680012004DC0F6FF4EC0F7FF0800F5501200FF
:10127800000E486E010C486E4850020DF3501F0FC7
:10128800D96EDA6ADECF4AF0DDCF4BF04650D96E20
:10129800DA6A2B0EDF6E4A2808E17F0E4B1805E14B
:1012A8004AC046F04BC047F012004BAE09D04A6C1A
:1012B8004B1ED8B04B2A4650D96EDA6A2D0EDF6E17
:1012C8004A500F0B496ED30E4924F66EF76A1E0E6C
:1012D800F7220800F5CF49F04A3A4B3A0F0E4A1662
:1012E8004B50F00B4A120F0E4B164A500A0DF3CF13
:1012F8004AF0F4CF4BF049504A26000E4B22D0D783
:10130800476E47A003D0466A462A01D0466A8B50EA
:101318004618FE0B46188B6E47A203D0466A462A2B
:1013280001D0466A46468B504618FD0B46188B6E10
:1013380047A403D0466A462A01D0466A19D8FB0B4F
:1013480046188B6E47A603D0466A462A01D0466ADD
:1013580046460ED8F70B46188B6E8982420EE82E49
:10136800FED700D08992420EE82EFED700D0120098
:10137800464646468B5046181200806A896A926A29
:10138800816A8A6A060E936E826A8B6A946AD3901F
:10139800D382700ED3120F0EC112808CFDEC09F0AF
:1013A800800ECD6E3C0ECF6EB00ECE6E9F80F80EC6
:1013B800D516D586D59CD59AD58EB10ED76EE00EAA
:1013C800D66EF28AF194F19E9D80D08EF28CF28EC8
:1013D80001EC08F039EC0CF0E30E4A6E1E0E4B6E71
:1013E800010E4C6E69EC0BF08B985A9C5A9A5A98DD
:1013F800120082EC0BF000090FE1CC0E34EC0BF07C
:101408004E0E34EC0BF0000E34EC0BF0000E34EC06
:101418000BF07F0E34EC0BF04E6A4F6A4E50080DFD
:10142800F350110F4F24D96EDA6A4E504C6E4D6A44
:10143800D8904C364D36D8904C364D36D8904C36E0
:101448004D364F504C24466E000E4D20476E5FECD3
:101458000CF0DF6E4F2A070E4F64E0D74E2A010EBC
:101468004E64DBD7010C556E82EC0BF000090CE1E1
:10147800330E34EC0BF0566A24D819EC0BF0DF6EFF
:10148800562A070E5664F8D74D0E466E080E476E5C
:1014980091EC0AF0000914E1566A13D8DF50466E41
:1014A8005550080DF3505624F80FC5EC0BF0562A8A
:1014B800070E5664F2D7FDEC07F0D7EC0BF0010CE1
:1014C800000C56504D0FD96EDA6A120081A281B411
:1014D80002D0030E07D081B202D0010E03D081B42E
:1014E80003D0020E466E01D0466A465013E02D0E18
:1014F800255C010E265807E3010E266E220E256E86
:1015080046C02EF01200254A262A0F0E251826104E
:10151800F7E01200256A266A12004C6A4B6A1DD051
:1015280046504B24D96EDA6ADF50496E080E486E71
:101538004C504918010B4A6E4A0402E1180E4C1A25
:10154800D8904C307F0B4C6E4A0401E14C8ED890F9
:10155800493248064850ECE14B2A47504B18E0E125
:101568004C5012004A6A4B6A485049101BE0010E61
:101578004C6E04D0D890483649364C2A49AEFAD732
:10158800D8904A364B364850465C4950475805E390
:101598004850465E4950475A4A80D89049324832A6
:1015A8004C2EEED74AC046F04BC047F01200E60E6C
:1015B800F66E180EF76E000EF86E00EE5CF010EE88
:1015C80009F00900F5CFEEFFE550E150FAE15B6A5A
:1015D8005A6A00EE01F0420EEE6AE806FDE16590F7
:1015E8006592000EF86E000150EF00F04F50501059
:1015F80017E0010E516E04D0D8904F365036512A5C
:1016080050AEFAD74F504D5C50504E5804E34F50EF
:101618004D5E50504E5AD89050324F32512EF2D71C
:101628004DC04DF04EC04EF01200486A496A54EC65
:101638000CF000090CE049C046F0010E476E462A3E
:1016480002D0D8904736462EFCD747504812500E45
:10165800E82EFED7492A070E4964E9D748501200F8
:10166800496E4B6A4BC047F049C048F0472A02D040
:10167800D8904832472EFCD748504A6E010E4A1679
:101688004A501CEC0CF04B2A070E4B64EBD7460E65
:10169800E82EFED71200476E496A465014E0010E44
:1016A800486E03D0D8904636482A46AEFBD7D89025
:1016B80049364650475C03E34650475E4980D89018
:1016C8004632482EF4D749501200486A4C50080D4B
:1016D800F3504009E9EC0BF04D6A010E486E4AC020
:1016E800F6FF4BC0F7FF0800F550E9EC0BF04A4A4B
:1016F8004B2A4D2A070E4D64F0D7070C809C929C0C
:10170800C80E00D0E82EFDD7808C928C420EE82EB1
:10171800FED700D0000E80BC010E466EA90E00D088
:10172800E82EFDD700D000F046501200466E2C502F
:10173800FEE09DB805D09EA8FED746C0ADFF1200BA
:101748009D982D50010FD96EDA6A46C0DFFF2D2A09
:101758000F0E2D6401D02D6A2C0612004B6E080E58
:101768004C6E4D6AD8904B344D344D6ED8904B36F4
:101778004A504D5C02E34A504D5E4C2EF3D74D5013
:101788001200476EA6B2FED747C0A9FF46C0A8FF01
:10179800A69EA69CA684F29E550EA76EAA0EA76EBC
:1017A800A682F28EAA0C496A4A6A09D0030E486ECC
:1017B800980EE82EFED7482EFCD7494A4A2A4950A7
:1017C800465C4A504758F2E21200496E485002E11E
:1017D800899401D08984420EE82EFED700D049387A
:1017E8000F0B84EC09F049500F0B84EF09F09EA011
:1017F8000DD09E903C0ECF6EB00ECE6E422A1D0EBE
:10180800426404D0426A010E416ECD906592110087
:1018180005D007D89AEC0BF0474A482A02D8F9E1D4
:10182800120047C0F6FF48C0F7FF0800F550120045
:10183800466E809C929C460404E100D000D0808CC7
:10184800928C460EE82EFED7808C928C12004B6E3E
:101858004A0403E0400E4C6E01D04C6A4B044C26FF
:10186800486A4C508009E9EF0BF0949C948EAC9830
:10187800AC8AAB88AB8EAC84330EAF6E2D6A100E7B
:101888002C6E2B6A12003CEC09F0E9EC0BF0060E0A
:101898004A6E300EE82EFED74A2EFCD700D0120032
:1018A800809C929C00D0808C928C040EE82EFED7EF
:1018B80080BC010C000CA6B2FED746C0A9FFA69EAC
:1018C800A69CA680A85012004A6E010E486E4A5087
:1018D800E9EF0BF02EC046F02E6A46501200FF7F4B
:0718E800FF7F0101012B2B22
:101E92000041A042A1E045A3A4A5A64BA74D484FEF
:101EA200A8504354A9AA58E1ABACE2ADAE62AFB0C0
:101EB200B161B2B3B4E365B6B7B8B9BABBBCBD6F72
:101EC200BE7063BF79E478E5C0C1E6C2C3C4C5C6CB
:101ED200C7000101020203040405060607070809F8
:101EE20009060909060000000020CAEEE420EFF00E
:101EF200EEF7E8F2E0EDEE2000D2E5ECEF20E4F0C0
:101F0200E13A202020202020002D2D2DD2C5D0CC3A
:101F1200CECCC5D2D02D2D2D00C4E0F2F7E8EA20B8
:101F2200312C20E0E1EE2032002020312020202040
:101F32002032202020312D32002863294976616E1B
:101F42005F66642076312E3300CFEEF069E320D154
:101F5200E8E3ED2E204C65640020CAEEEBEEEDE0E6
:101F620020202020CAF3E100D2E5ECEF20CDE8E703
:101F72003A202020202000CAEEEB2831292FCAF374
:101F8200E12832293A00202020C3F0E0EDE8F6698A
:101F92002020200020202020CAF3E1EEE2E02020D1
:101FA2000020202020CAEEEBEEEDE0202000C2E867
:101FB200E169F02031384232303A00D2E5ECEF20CC
:101FC200C2E5F0F53A00D2E5ECEF20F669EB693AAA
:101FD20000CAF3E1EEE2E03A00CAEEEBEEEDE03ADF
:101FE20000303030300D0A00CFEEF069E33A0030B5
:0D1FF2003030300074623A00746B3A000029
:020000040020DA
:08000000FFFFFFFFFFFFFFFF00
:020000040030CA
:0E000000FF080A1EFF8181FF0FC00FE00F40B6
:00000001FF
