:020000040000FA
:040000001EEF00F0FF
:100008004D829EA00DD09E903C0ECF6EB00ECE6E4F
:10001800382A1D0E386404D0386A010E376ECD9028
:10002800F2A406D0F294B10ED76EE00ED66E4C80D4
:080038004D92110070EF05F07C
:1002000000000101020203040405060607070809AD
:10021000092D2D2D54454D502053454E532D2D2D38
:100220002D0020202044512031206F7220323F20A9
:1002300020002863294976616E5F66642076312E3E
:030240003000008B
:1002440088EC04F075EC02F0010E3D6EE7EC05F06D
:10025400110E20D950EC03F02AD9E7EC05F0320E48
:1002640019D950EC03F03AD9C6EC05F0F5EC05F0D9
:1002740081B20FD0F5EC05F0020E4B6E010E3D6E0F
:10028400E7EC05F0220E06D950EC03F027D9C6ECB2
:1002940005F04CA003D0FBEC04F04C9016EC06F0F7
:1002A400246EBED0370E3F6E380E406EF1EC02F075
:1002B400000912E0360E396E010E9EEC03F039C0CF
:1002C40020F03AC021F0350E396E020E9EEC03F098
:1002D40039C01EF03AC01FF0010E3D6EE7EC05F088
:1002E400CAD8310E296E3A0E2A6E36C02BF03C6AFB
:1002F400640E3B6EEED8D6EC04F0A6D81BEC05F0E9
:10030400CFD8E7D8D6EC04F09FD81BEC05F0D6D8AC
:1003140020C040F021C041F0CDD81BEC05F09CD8A2
:1003240050EC03F0C4D8E7EC05F0A5D8320E296EE2
:100334003A0E2A6E35C02BF03C6A640E3B6EC4D86C
:10034400D6EC04F081D81BEC05F0AAD8BDD8D6ECC5
:1003540004F07AD81BEC05F0B1D81EC040F01FC0E1
:1003640041F0A8D81BEC05F077D850EC03F0240436
:100374000AE19DD8E7EC05F05BD84F0E2B6E4B0ECF
:1003840083D850EC03F0020E24180AE190D8E7EC6D
:1003940005F04ED8550E2B6E500E76D850EC03F067
:1003A400030E241801E075D782D8E7EC05F040D895
:1003B400420E2B6E540E68D850EC03F06AD777D8EF
:1003C400E7EC05F0440E256E510E266E3A0E276EAC
:1003D400200E286E4A50300F296E200E2A6E2B6E86
:1003E4002C6A250E406E416A50EC03F0240406E1A9
:1003F4004A2A030E4A1802E1010E4A6E020E24181C
:1004040005E14A064A5002E1020E4A6E030E241820
:1004140001E03FD74A5055EC04F0030E4B6E39D738
:100424004B50010A01E13ED7030AC9E0010A31D762
:10043400500E256E720E266E650E276E730E286E94
:10044400296E3A0E2A6E3A0C39C040F03AC041F097
:10045400436A0A0E426E0A0C4050300F2F6EEF0EA4
:10046400306E430E316E200E326E336E346A250EBA
:10047400406E416A1200540E256E650E266E6D0E96
:10048400276E700E286E700C2C6E2D6A250E406E31
:10049400416A1200406E4050D8A4020E416E120010
:1004A4004050300F2C6E3C6A0A0E3B6E0A0C020E52
:1004B4003D6E010C436A0A0E426E0A0C4050300F26
:1004C4002D6E2E0E2E6E2E0C1EC039F01FC03AF06B
:1004D400120020C039F021C03AF01200070E3A6E23
:1004E400D00E396ED00C809480921A0E3E6EF80EA7
:1004F400E82EFED73E2EFCD700D01A0E3E6EF80E24
:10050400E82EFED73E2EFCD700D01A0E3E6EF80E13
:10051400E82EFED73E2EFCD700D01A0E3E6EF80E03
:10052400E82EFED73E2EFCD700D0030EDEEC03F0FF
:100534000D0E3E6EFC0EE82EFED73E2EFCD7030EAB
:10054400DEEC03F00D0E3E6EFC0EE82EFED73E2EC2
:10055400FCD7030EDEEC03F00D0E3E6EFC0EE82E0F
:10056400FED73E2EFCD7020EDEEC03F00D0E3E6EDF
:10057400FC0EE82EFED73E2EFCD7000E3B6E280E56
:10058400A2EC05F00D0E3E6EFC0EE82EFED73E2EBC
:10059400FCD7000E3B6E0C0EA2EC05F0150E3E6E61
:1005A400C60EE82EFED73E2EFCD700D0F5EC05F0A3
:1005B4000D0E3E6EFC0EE82EFED73E2EFCD7000E2E
:1005C4003B6E060EA2EC05F00D0E3E6EFC0EE82E00
:1005D400FED73E2EFCD7F5EC05F08084120053D0F4
:1005E4008AEC05F00009D8A41200CC0E55EC05F0F5
:1005F400440E55EC05F04050D96EDA6ADF6A3F507C
:10060400D96EDA6A020EDF6ECD80000C456A8AEC80
:1006140005F0550E55EC05F0466A4550080DF350AB
:10062400010F4624D96EDA6ADF5055EC05F0462AEC
:10063400070E4664F2D7BE0E55EC05F0466A4650E6
:10064400110FD96EDA6A3AEC05F0DF6E462A010E14
:100654004664F5D71250416E1150436E41C044F0C8
:100664004550020DF3501A0FD96EDA6A43C0DEFF0B
:1006740044C0DDFF452A010E4564C9D73F50D96EF9
:10068400DA6ADF6A010C3F50D96EDA6ADF50A8E0FB
:10069400010ABCE0030AD8B4000C120033D049D8D4
:1006A400A2EC05F0060E426E300EE82EFED7422E66
:1006B400FCD700D025D059EC02F0E7EC05F020D0AF
:1006C400000E3B6E100EA2EC05F01AD0010E3B6E2C
:1006D40023D8F76403D00800F55001D024D8A2EC45
:1006E40005F00ED019D8F76403D00800F55001D0F6
:1006F4001AD8080AE5E0020ADEE0060AD0E0E6D7E6
:10070400404A412A09D8F76403D00800F55001D0C3
:100714000AD80009E7E1120040C0F6FF41C0F7FF24
:10072400F86A010E1200F6CFD9FFF7CFDAFFDF50D7
:100734001200000E3B6E010C3C6E3C50020DF35057
:10074400180FD96EDA6ADECF3EF0DDCF3FF03950B4
:10075400D96EDA6A2B0EDF6E3FAE09D03E6C3F1EB7
:10076400D8B03F2A3950D96EDA6A2D0EDF6E3E506A
:100774000F0B3D6E3D50010F3B6E3BC0F6FF020E6A
:10078400F76E0800F5CF3DF03E3A3F3A0F0E3E16A5
:100794003F50F00B3E120F0E3F163E500A0DF3CFA2
:1007A4003EF0F4CF3FF03D503E26000E3F223EC0C7
:1007B40039F03FC03AF0000C3A6E3AA003D0396ADF
:1007C400392A01D0396A82503918FE0B3918826EE1
:1007D4003AA203D0396A392A01D0396A394682509B
:1007E4003918FD0B3918826E3AA403D0396A392AB4
:1007F40001D0396A19D8FB0B3918826E3AA603D096
:10080400396A392A01D0396A39460ED8F70B3918B2
:10081400826E8082420EE82EFED700D08092420E75
:10082400E82EFED700D012003946394682503918D6
:1008340012008AEC05F000090FE1CC0E55EC05F02E
:100844004E0E55EC05F0000E55EC05F0000E55EC7F
:1008540005F07F0E55EC05F0416A426A4150080DDF
:10086400F350010F4224D96EDA6A41503F6E406A58
:10087400D8903F364036D8903F364036D8903F36F1
:10088400403642503F24396E000E40203A6E0DEC43
:1008940006F0DF6E422A070E4264E0D7412A010EB9
:1008A4004164DBD7010C486E8AEC05F000090CE1C9
:1008B400330E55EC05F0496A24D83AEC05F0DF6EA6
:1008C400492A070E4964F8D7400E396E080E3A6E6D
:1008D400B1EC04F00009D8A41200496A12D8DF5020
:1008E400396E4850080DF3504924F80FB4EC05F064
:1008F400492A070E4964F2D73A6A0A0E396EC6EFDE
:1009040005F04950400FD96EDA6A1200806A896A8C
:10091400926A816A8A6A060E936E826A8B6A946A04
:10092400D390D382700ED3120F0EC112808C1BECA5
:1009340004F0800ECD6E3C0ECF6EB00ECE6EF80E6F
:10094400D516D586D59CD59AD58EB10ED76EE00E28
:10095400D66EF28AF19E9D80F28CF28EE00C3F6A94
:100964003E6A1DD039503E24D96EDA6ADF503C6E9F
:10097400080E3B6E3F503C18010B3D6E3D0402E1F6
:10098400180E3F1AD8903F307F0B3F6E3D0401E1B3
:100994003F8ED8903C323B063B50ECE13E2A3A5025
:1009A4003E18E0E13F5012003D6A3E6A3B503C1065
:1009B4001BE0010E3F6E04D0D8903B363C363F2AF4
:1009C4003CAEFAD7D8903D363E363B50395C3C506D
:1009D4003A5805E33B50395E3C503A5A3D80D89032
:1009E4003C323B323F2EEED73DC039F03EC03AF0A8
:1009F400120081A281B402D0030E07D081B202D0CA
:100A0400010E03D081B403D0020E396E01D0396ACD
:100A140039500DE0140E221805E11E0E226E39C065
:100A240023F01E0C190E2260190C222A190C226ABA
:100A340012004250431017E0010E446E04D0D890C7
:100A440042364336442A43AEFAD74250405C4350C0
:100A5400415804E34250405E4350415AD8904332D7
:100A64004232442EF2D740C040F041C041F012005F
:100A74003B6A3C6A02EC06F000090CE03CC039F029
:100A8400010E3A6E392A02D0D8903A36392EFCD764
:100A94003A503B12500EE82EFED73C2A070E3C6417
:100AA400E9D73B5012003C6E3E6A3EC03AF03CC06F
:100AB4003BF03A2A02D0D8903B323A2EFCD73B5036
:100AC4003D6E010E3D163D50D8EC05F03E2A070E52
:100AD4003E64EBD7460EE82EFED71200360EF66EB5
:100AE4000C0EF76E000EF86E0900F5CF4AF00900FF
:100AF400F5CF4BF04C6A00EE01F0380EEE6AE806D2
:100B0400FDE14D904D92000EF86E000122EF01F0D0
:100B1400809C929CC80E00D0E82EFDD7808C928CCD
:100B2400420EE82EFED700D0000E80BC010E396EB6
:100B3400A90E00D0E82EFDD700D000F039501200E5
:100B44003C6E3B5002E1809401D08084420EE82E3A
:100B5400FED700D03C380F0BDEEC03F03C500F0BFB
:100B6400DEEF03F03A6EA6B2FED73AC0A9FF39C051
:100B7400A8FFA69EA69CA684F29E550EA76EAA0E5A
:100B8400A76EA682F28EAA0C3C6A3D6A09D0030EB7
:100B94003B6E980EE82EFED73B2EFCD73C4A3D2AEE
:100BA4003C50395C3D503A58F2E21200396E809C58
:100BB400929C390404E100D000D0808C928C460EC3
:100BC400E82EFED7808C928C12003E6E3D0403E02A
:100BD400400E3F6E01D03F6A3E043F263B6A3F50C1
:100BE4008009A2EF05F09BEC03F0A2EC05F0060EE1
:100BF4003D6E300EE82EFED73D2EFCD700D01200FD
:100C0400809C929C00D0808C928C040EE82EFED79F
:100C140080BC010C000CA6B2FED739C0A9FFA69E69
:100C2400A69CA680A850120023C039F0236A39502C
:040C340012000101A8
:020000040020DA
:08000000FFFFFFFFFFFFFFFF00
:020000040030CA
:0E000000FF080A1EFF8181FF0FC00FE00F40B6
:00000001FF
