:020000040000FA
:040000001EEF00F0FF
:1000080035829EA00DD09E903C0ECF6EB00ECE6E67
:10001800212A1D0E216404D0216A010E206ECD9084
:10002800F2A406D0F294B10ED76EE00ED66E3480EC
:080038003592110069EF04F09C
:1002000000000101020203040405060607070809AD
:10021000092D2D2D54454D502053454E532D2D2D38
:100220002D0020202044512031206F7220323F20A9
:1002300020002863294976616E5F66642076312E3E
:030240003000008B
:10024400A6EC03F029EC02F0010E266EE2EC04F0B9
:10025400110EDDD81BEC03F0EED8E2EC04F0320E04
:10026400D6D81BEC03F0EED8C1EC04F0F0EC04F0AB
:1002740081B20FD0F0EC04F0020E336E010E266E44
:10028400E2EC04F0220EC3D81BEC03F0DBD8C1EC83
:1002940004F01D0E286E1F0E296E200E2A6E210EEC
:1002A4002B6EA5EC02F034A003D0F4EC03F03490F0
:1002B40008EC05F00C6E91D0010E266EE2EC04F011
:1002C400540E0D6E650E0E6E6D0E0F6E700E106E6A
:1002D4003A0E116E1FC012F0256A640EA6D8CFEC38
:1002E40003F09BD814EC04F02950300F136E256AE8
:1002F4000A0E9BD8CFEC03F090D814EC04F02950EC
:10030400300F146E2E0E156E1DC029F01EC02AF07B
:100314002C6A0A0E2B6E14EC04F02950300F166E62
:10032400200E176E186E196E1A6E1B6E1C6A86D814
:100334001BEC03F00C040AE17ED8E2EC04F055D87F
:100344004F0E136E4B0E5DD81BEC03F0020E0C180F
:100354000AE171D8E2EC04F048D8550E136E500E41
:1003640050D81BEC03F0030E0C1893E164D8E2ECB4
:1003740004F03BD8420E136E540E43D81BEC03F02A
:1003840088D759D8E2EC04F0440E0D6E510E0E6E6F
:100394003A0E0F6E200E106E3250300F116E200E7A
:1003A400126E136E146A4AD81BEC03F00C0406E1B7
:1003B400322A030E321802E1010E326E020E0C18BC
:1003C40005E13206325002E1020E326E030E0C18C1
:1003D40001E05FD7030E336E5CD73350010A01E1AD
:1003E4006BD7030ACEE0010A54D7500E0D6E720E7D
:1003F4000E6E650E0F6E730E106E116E3A0E126E47
:100404003A0C146E156A0D0E296E2A6A1200296EB2
:100414002950D8A4020E2A6E120022C029F023C04B
:100424002AF02C6A0A0E2B6E0A0C246E1DC022F0D0
:100434001EC023F01200020E266E010C0D0E296E52
:100444002A6A1200070E236ED00E226ED00C8094FE
:1004540080921A0E276EF80EE82EFED7272EFCD7B0
:1004640000D01A0E276EF80EE82EFED7272EFCD7E2
:1004740000D01A0E276EF80EE82EFED7272EFCD7D2
:1004840000D01A0E276EF80EE82EFED7272EFCD7C2
:1004940000D0030E69EC03F00D0E276EFC0EE82E5F
:1004A400FED7272EFCD7030E69EC03F00D0E276E42
:1004B400FC0EE82EFED7272EFCD7030E69EC03F0C2
:1004C4000D0E276EFC0EE82EFED7272EFCD7020E4B
:1004D40069EC03F00D0E276EFC0EE82EFED7272ED6
:1004E400FCD7000E246E280EAFEC04F00D0E276E20
:1004F400FC0EE82EFED7272EFCD7000E246E0C0E21
:10050400AFEC04F0150E276EC60EE82EFED7272E8C
:10051400FCD700D0F0EC04F00D0E276EFC0EE82E94
:10052400FED7272EFCD7000E246E060EAFEC04F087
:100534000D0E276EFC0EE82EFED7272EFCD7F0EC0E
:1005440004F0808412002950D96EDA6A2B0EDF6E13
:1005540067D083EC04F00009D8A41200CC0E4EEC52
:1005640004F0440E4EEC04F02B50D96EDA6ADF6AC4
:100574002A50D96EDA6A020EDF6ECD80020C83EC4B
:1005840004F0CC0E4EEC04F0BE0E4EEC04F02F6AD8
:100594002F50010FD96EDA6A33EC04F0DF6E2F2A84
:1005A400010E2F64F5D702502C6E0150306E2CC012
:1005B40031F031AE09D0306C311ED8B0312A295017
:1005C400D96EDA6A2D0EDF6E30500F0B2E6E2E5060
:1005D400010F2C6E2CC0F6FF020EF76E0800F5CF4B
:1005E4002EF0303A313A0F0E30163150F00B3012F3
:1005F4000F0E311630500A0DF3CF30F0F4CF31F036
:100604002E503026000E31222850D96EDA6A30C0BE
:10061400DEFF31C0DDFF2A50D96EDA6ADF6A000CD2
:100624002A50D96EDA6ADF5094E0010AA8E0030A7E
:10063400120033D049D8AFEC04F0060E2B6E300E06
:10064400E82EFED72B2EFCD700D025D01DEC02F0CF
:10065400E2EC04F020D0000E246E100EAFEC04F097
:100664001AD0010E246E23D8F76403D00800F55085
:1006740001D024D8AFEC04F00ED019D8F76403D01D
:100684000800F55001D01AD8080AE5E0020ADEE0B5
:10069400060AD0E0E6D7294A2A2A09D8F76403D003
:1006A4000800F55001D00AD80009E7E1120029C07A
:1006B400F6FF2AC0F7FFF86A010E1200F6CFE9FF31
:1006C400F7CFEAFFEF501200000E246E010C236EE8
:1006D40023A003D0226A222A01D0226A825022183F
:1006E400FE0B2218826E23A203D0226A222A01D092
:1006F400226A224682502218FD0B2218826E23A4FD
:1007040003D0226A222A01D0226A19D8FB0B2218AC
:10071400826E23A603D0226A222A01D0226A2246AC
:100724000ED8F70B2218826E8082420EE82EFED776
:1007340000D08092420EE82EFED700D0120022464E
:100744002246825022181200806A896A926A816A5B
:100754008A6A060E936E826A8B6A946A0F0EC112BD
:10076400808C9BEC04F0800ECD6E3C0ECF6EB00EF0
:10077400CE6EF80ED516D586D59CD59AD58EB10EEB
:10078400D76EE00ED66EF28AF19ED390D382700EAD
:10079400D3129D80F28CF28E700C266A276A245044
:1007A40025101BE0010E286E04D0D890243625367F
:1007B400282A25AEFAD7D890263627362450225C2C
:1007C4002550235805E32450225E2550235A2680C1
:1007D400D89025322432282EEED726C022F027C006
:1007E40023F0120081A281B402D0030E07D081B29B
:1007F40002D0010E03D081B403D0020E226E01D0C8
:10080400226A22500DE0140E0A1805E11E0E0A6E2B
:1008140022C00BF01E0C190E0A60190C0A2A190CBE
:100824000A6A12002B502C1017E0010E2D6E04D012
:10083400D8902B362C362D2A2CAEFAD72B50295C87
:100844002C502A5804E32B50295E2C502A5AD89055
:100854002C322B322D2EF2D729C029F02AC02AF0AF
:100864001200246A256AFDEC04F000090CE025C09E
:1008740022F0010E236E222A02D0D8902336222E93
:10088400FCD723502412500EE82EFED7252A070E3B
:100894002564E9D724501200256E276A27C023F067
:1008A40025C024F0232A02D0D8902432232EFCD74A
:1008B4002450266E010E26162650D3EC04F0272A67
:1008C400070E2764EBD7460EE82EFED712001A0E49
:1008D400F66E0A0EF76E000EF86E0900F5CF32F0D0
:1008E4000900F5CF33F0346A00EE01F0210EEE6A10
:1008F400E806FDE135903592000EF86E000122EF16
:1009040001F0809C929CC80E00D0E82EFDD7808C0C
:10091400928C420EE82EFED700D0000E80BC010E51
:10092400226EA90E00D0E82EFDD700D000F0225090
:10093400120083EC04F00009D8A41200CC0E4EEC93
:1009440004F04E0E4EEC04F0000E4EEC04F0000EDB
:100954004EEC04F07F0E4EEF04F0256E245002E1BD
:10096400809401D08084420EE82EFED700D0253832
:100974000F0B69EC03F025500F0B69EF03F0256AA8
:10098400266A09D0030E246E980EE82EFED7242E74
:10099400FCD7254A262A2550225C26502358F2E209
:1009A4001200226E809C929C220404E100D000D0AC
:1009B400808C928C460EE82EFED7808C928C12008E
:1009C400276E260403E0400E286E01D0286A27040F
:1009D4002826246A28508009AFEF04F066EC03F05F
:1009E400AFEC04F0060E266E300EE82EFED7262E4F
:1009F400FCD700D01200809C929C00D0808C928CFA
:100A0400040EE82EFED780BC010C000C0BC022F0B3
:080A14000B6A225012000101DF
:020000040020DA
:08000000FFFFFFFFFFFFFFFF00
:020000040030CA
:0E000000FF080A1EFF8181FF0FC00FE00F40B6
:00000001FF
